{
	"data": {
		"bytecode": {
			"linkReferences": {},
			"object": "60806040525f805462ffff001916620101001790556101c8600155607b6002553480156029575f80fd5b5060f7806100365f395ff3fe6080604052348015600e575f80fd5b5060043610604e575f3560e01c8063459b1acf146052578063ab3a58a314606d578063b6c52ae814608f578063bde2b5731460ae578063c6a898c51460b9575b5f80fd5b605a60015481565b6040519081526020015b60405180910390f35b5f54607e9062010000900460ff1681565b60405160ff90911681526020016064565b5f54609f90610100900460ff1681565b60405190151581526020016064565b5f54609f9060ff1681565b605a6002548156fea2646970667358221220751b33aeef80e4fa0d65829a91b69b54e7d1d794abb4fcda42a65049e4cf339664736f6c63430008190033",
			"opcodes": "PUSH1 0x80 PUSH1 0x40 MSTORE PUSH0 DUP1 SLOAD PUSH3 0xFFFF00 NOT AND PUSH3 0x10100 OR SWAP1 SSTORE PUSH2 0x1C8 PUSH1 0x1 SSTORE PUSH1 0x7B PUSH1 0x2 SSTORE CALLVALUE DUP1 ISZERO PUSH1 0x29 JUMPI PUSH0 DUP1 REVERT JUMPDEST POP PUSH1 0xF7 DUP1 PUSH2 0x36 PUSH0 CODECOPY PUSH0 RETURN INVALID PUSH1 0x80 PUSH1 0x40 MSTORE CALLVALUE DUP1 ISZERO PUSH1 0xE JUMPI PUSH0 DUP1 REVERT JUMPDEST POP PUSH1 0x4 CALLDATASIZE LT PUSH1 0x4E JUMPI PUSH0 CALLDATALOAD PUSH1 0xE0 SHR DUP1 PUSH4 0x459B1ACF EQ PUSH1 0x52 JUMPI DUP1 PUSH4 0xAB3A58A3 EQ PUSH1 0x6D JUMPI DUP1 PUSH4 0xB6C52AE8 EQ PUSH1 0x8F JUMPI DUP1 PUSH4 0xBDE2B573 EQ PUSH1 0xAE JUMPI DUP1 PUSH4 0xC6A898C5 EQ PUSH1 0xB9 JUMPI JUMPDEST PUSH0 DUP1 REVERT JUMPDEST PUSH1 0x5A PUSH1 0x1 SLOAD DUP2 JUMP JUMPDEST PUSH1 0x40 MLOAD SWAP1 DUP2 MSTORE PUSH1 0x20 ADD JUMPDEST PUSH1 0x40 MLOAD DUP1 SWAP2 SUB SWAP1 RETURN JUMPDEST PUSH0 SLOAD PUSH1 0x7E SWAP1 PUSH3 0x10000 SWAP1 DIV PUSH1 0xFF AND DUP2 JUMP JUMPDEST PUSH1 0x40 MLOAD PUSH1 0xFF SWAP1 SWAP2 AND DUP2 MSTORE PUSH1 0x20 ADD PUSH1 0x64 JUMP JUMPDEST PUSH0 SLOAD PUSH1 0x9F SWAP1 PUSH2 0x100 SWAP1 DIV PUSH1 0xFF AND DUP2 JUMP JUMPDEST PUSH1 0x40 MLOAD SWAP1 ISZERO ISZERO DUP2 MSTORE PUSH1 0x20 ADD PUSH1 0x64 JUMP JUMPDEST PUSH0 SLOAD PUSH1 0x9F SWAP1 PUSH1 0xFF AND DUP2 JUMP JUMPDEST PUSH1 0x5A PUSH1 0x2 SLOAD DUP2 JUMP INVALID LOG2 PUSH5 0x6970667358 0x22 SLT KECCAK256 PUSH22 0x1B33AEEF80E4FA0D65829A91B69B54E7D1D794ABB4FC 0xDA TIMESTAMP 0xA6 POP BLOBHASH 0xE4 0xCF CALLER SWAP7 PUSH5 0x736F6C6343 STOP ADDMOD NOT STOP CALLER "
		},
		"gasEstimates": {
			"creation": {
				"codeDepositCost": "49400",
				"executionCost": "68532",
				"totalCost": "117932"
			},
			"external": {
				"hey()": "2352",
				"no()": "2341",
				"u()": "2349",
				"u256()": "2261",
				"u8()": "2322"
			}
		},
		"methodIdentifiers": {
			"hey()": "bde2b573",
			"no()": "b6c52ae8",
			"u()": "c6a898c5",
			"u256()": "459b1acf",
			"u8()": "ab3a58a3"
		}
	},
	"abi": [
		{
			"inputs": [],
			"name": "hey",
			"outputs": [
				{
					"internalType": "bool",
					"name": "",
					"type": "bool"
				}
			],
			"stateMutability": "view",
			"type": "function"
		},
		{
			"inputs": [],
			"name": "no",
			"outputs": [
				{
					"internalType": "bool",
					"name": "",
					"type": "bool"
				}
			],
			"stateMutability": "view",
			"type": "function"
		},
		{
			"inputs": [],
			"name": "u",
			"outputs": [
				{
					"internalType": "uint256",
					"name": "",
					"type": "uint256"
				}
			],
			"stateMutability": "view",
			"type": "function"
		},
		{
			"inputs": [],
			"name": "u256",
			"outputs": [
				{
					"internalType": "uint256",
					"name": "",
					"type": "uint256"
				}
			],
			"stateMutability": "view",
			"type": "function"
		},
		{
			"inputs": [],
			"name": "u8",
			"outputs": [
				{
					"internalType": "uint8",
					"name": "",
					"type": "uint8"
				}
			],
			"stateMutability": "view",
			"type": "function"
		}
	]
}