{
	"data": {
		"bytecode": {
			"linkReferences": {},
			"object": "60806040525f805461ff001916610100179055348015601c575f80fd5b5060998060285f395ff3fe6080604052348015600e575f80fd5b50600436106030575f3560e01c8063b6c52ae8146034578063bde2b573146058575b5f80fd5b5f54604490610100900460ff1681565b604051901515815260200160405180910390f35b5f5460449060ff168156fea26469706673582212205ca4738e68a0297ccb6f978bb8628b4a06078dd9854547c9dbb75706778a532764736f6c63430008190033",
			"opcodes": "PUSH1 0x80 PUSH1 0x40 MSTORE PUSH0 DUP1 SLOAD PUSH2 0xFF00 NOT AND PUSH2 0x100 OR SWAP1 SSTORE CALLVALUE DUP1 ISZERO PUSH1 0x1C JUMPI PUSH0 DUP1 REVERT JUMPDEST POP PUSH1 0x99 DUP1 PUSH1 0x28 PUSH0 CODECOPY PUSH0 RETURN INVALID PUSH1 0x80 PUSH1 0x40 MSTORE CALLVALUE DUP1 ISZERO PUSH1 0xE JUMPI PUSH0 DUP1 REVERT JUMPDEST POP PUSH1 0x4 CALLDATASIZE LT PUSH1 0x30 JUMPI PUSH0 CALLDATALOAD PUSH1 0xE0 SHR DUP1 PUSH4 0xB6C52AE8 EQ PUSH1 0x34 JUMPI DUP1 PUSH4 0xBDE2B573 EQ PUSH1 0x58 JUMPI JUMPDEST PUSH0 DUP1 REVERT JUMPDEST PUSH0 SLOAD PUSH1 0x44 SWAP1 PUSH2 0x100 SWAP1 DIV PUSH1 0xFF AND DUP2 JUMP JUMPDEST PUSH1 0x40 MLOAD SWAP1 ISZERO ISZERO DUP2 MSTORE PUSH1 0x20 ADD PUSH1 0x40 MLOAD DUP1 SWAP2 SUB SWAP1 RETURN JUMPDEST PUSH0 SLOAD PUSH1 0x44 SWAP1 PUSH1 0xFF AND DUP2 JUMP INVALID LOG2 PUSH5 0x6970667358 0x22 SLT KECCAK256 TLOAD LOG4 PUSH20 0x8E68A0297CCB6F978BB8628B4A06078DD9854547 0xC9 0xDB 0xB7 JUMPI MOD PUSH24 0x8A532764736F6C6343000819003300000000000000000000 "
		},
		"gasEstimates": {
			"creation": {
				"codeDepositCost": "30600",
				"executionCost": "24302",
				"totalCost": "54902"
			},
			"external": {
				"hey()": "2296",
				"no()": "2285"
			}
		},
		"methodIdentifiers": {
			"hey()": "bde2b573",
			"no()": "b6c52ae8"
		}
	},
	"abi": [
		{
			"inputs": [],
			"name": "hey",
			"outputs": [
				{
					"internalType": "bool",
					"name": "",
					"type": "bool"
				}
			],
			"stateMutability": "view",
			"type": "function"
		},
		{
			"inputs": [],
			"name": "no",
			"outputs": [
				{
					"internalType": "bool",
					"name": "",
					"type": "bool"
				}
			],
			"stateMutability": "view",
			"type": "function"
		}
	]
}