{
	"data": {
		"bytecode": {
			"linkReferences": {},
			"object": "60806040525f805462ffff00191662ff01001790556101c86001556104d119600255348015602b575f80fd5b5060f8806100385f395ff3fe6080604052348015600e575f80fd5b5060043610604e575f3560e01c80634c27fd62146052578063921cda7414606d578063b6c52ae8146090578063bde2b5731460af578063e5aa3d581460ba575b5f80fd5b605a60015481565b6040519081526020015b60405180910390f35b5f8054607f9162010000909104900b81565b6040515f9190910b81526020016064565b5f5460a090610100900460ff1681565b60405190151581526020016064565b5f5460a09060ff1681565b605a6002548156fea2646970667358221220f2c05a33b048aaaf2d7fbd4fd7b4ca103dd4fac20def2cad83062f77c1f6893d64736f6c63430008190033",
			"opcodes": "PUSH1 0x80 PUSH1 0x40 MSTORE PUSH0 DUP1 SLOAD PUSH3 0xFFFF00 NOT AND PUSH3 0xFF0100 OR SWAP1 SSTORE PUSH2 0x1C8 PUSH1 0x1 SSTORE PUSH2 0x4D1 NOT PUSH1 0x2 SSTORE CALLVALUE DUP1 ISZERO PUSH1 0x2B JUMPI PUSH0 DUP1 REVERT JUMPDEST POP PUSH1 0xF8 DUP1 PUSH2 0x38 PUSH0 CODECOPY PUSH0 RETURN INVALID PUSH1 0x80 PUSH1 0x40 MSTORE CALLVALUE DUP1 ISZERO PUSH1 0xE JUMPI PUSH0 DUP1 REVERT JUMPDEST POP PUSH1 0x4 CALLDATASIZE LT PUSH1 0x4E JUMPI PUSH0 CALLDATALOAD PUSH1 0xE0 SHR DUP1 PUSH4 0x4C27FD62 EQ PUSH1 0x52 JUMPI DUP1 PUSH4 0x921CDA74 EQ PUSH1 0x6D JUMPI DUP1 PUSH4 0xB6C52AE8 EQ PUSH1 0x90 JUMPI DUP1 PUSH4 0xBDE2B573 EQ PUSH1 0xAF JUMPI DUP1 PUSH4 0xE5AA3D58 EQ PUSH1 0xBA JUMPI JUMPDEST PUSH0 DUP1 REVERT JUMPDEST PUSH1 0x5A PUSH1 0x1 SLOAD DUP2 JUMP JUMPDEST PUSH1 0x40 MLOAD SWAP1 DUP2 MSTORE PUSH1 0x20 ADD JUMPDEST PUSH1 0x40 MLOAD DUP1 SWAP2 SUB SWAP1 RETURN JUMPDEST PUSH0 DUP1 SLOAD PUSH1 0x7F SWAP2 PUSH3 0x10000 SWAP1 SWAP2 DIV SWAP1 SIGNEXTEND DUP2 JUMP JUMPDEST PUSH1 0x40 MLOAD PUSH0 SWAP2 SWAP1 SWAP2 SIGNEXTEND DUP2 MSTORE PUSH1 0x20 ADD PUSH1 0x64 JUMP JUMPDEST PUSH0 SLOAD PUSH1 0xA0 SWAP1 PUSH2 0x100 SWAP1 DIV PUSH1 0xFF AND DUP2 JUMP JUMPDEST PUSH1 0x40 MLOAD SWAP1 ISZERO ISZERO DUP2 MSTORE PUSH1 0x20 ADD PUSH1 0x64 JUMP JUMPDEST PUSH0 SLOAD PUSH1 0xA0 SWAP1 PUSH1 0xFF AND DUP2 JUMP JUMPDEST PUSH1 0x5A PUSH1 0x2 SLOAD DUP2 JUMP INVALID LOG2 PUSH5 0x6970667358 0x22 SLT KECCAK256 CALLCODE 0xC0 GAS CALLER 0xB0 BASEFEE 0xAA 0xAF 0x2D PUSH32 0xBD4FD7B4CA103DD4FAC20DEF2CAD83062F77C1F6893D64736F6C634300081900 CALLER "
		},
		"gasEstimates": {
			"creation": {
				"codeDepositCost": "49600",
				"executionCost": "68535",
				"totalCost": "118135"
			},
			"external": {
				"hey()": "2352",
				"i()": "2349",
				"i256()": "2261",
				"i8()": "2334",
				"no()": "2341"
			}
		},
		"methodIdentifiers": {
			"hey()": "bde2b573",
			"i()": "e5aa3d58",
			"i256()": "4c27fd62",
			"i8()": "921cda74",
			"no()": "b6c52ae8"
		}
	},
	"abi": [
		{
			"inputs": [],
			"name": "hey",
			"outputs": [
				{
					"internalType": "bool",
					"name": "",
					"type": "bool"
				}
			],
			"stateMutability": "view",
			"type": "function"
		},
		{
			"inputs": [],
			"name": "i",
			"outputs": [
				{
					"internalType": "int256",
					"name": "",
					"type": "int256"
				}
			],
			"stateMutability": "view",
			"type": "function"
		},
		{
			"inputs": [],
			"name": "i256",
			"outputs": [
				{
					"internalType": "int256",
					"name": "",
					"type": "int256"
				}
			],
			"stateMutability": "view",
			"type": "function"
		},
		{
			"inputs": [],
			"name": "i8",
			"outputs": [
				{
					"internalType": "int8",
					"name": "",
					"type": "int8"
				}
			],
			"stateMutability": "view",
			"type": "function"
		},
		{
			"inputs": [],
			"name": "no",
			"outputs": [
				{
					"internalType": "bool",
					"name": "",
					"type": "bool"
				}
			],
			"stateMutability": "view",
			"type": "function"
		}
	]
}