{
	"data": {
		"bytecode": {
			"linkReferences": {},
			"object": "608060405234801561000f575f80fd5b505f80546001600160a01b03199081163317825560018054821641179055446002554560035543600455426005553a6009556008805490911632179055600a9061005b9036908361010c565b50600b805463ffffffff19165f3560e01c1790556101c5565b634e487b7160e01b5f52604160045260245ffd5b600181811c9082168061009c57607f821691505b6020821081036100ba57634e487b7160e01b5f52602260045260245ffd5b50919050565b601f82111561010757805f5260205f20601f840160051c810160208510156100e55750805b601f840160051c820191505b81811015610104575f81556001016100f1565b50505b505050565b6001600160401b0383111561012357610123610074565b610137836101318354610088565b836100c0565b5f601f841160018114610168575f85156101515750838201355b5f19600387901b1c1916600186901b178355610104565b5f83815260208120601f198716915b828110156101975786850135825560209485019460019092019101610177565b50868210156101b3575f1960f88860031b161c19848701351681555b505060018560011b0183555050505050565b6102c1806101d25f395ff3fe608060405234801561000f575f80fd5b50600436106100b1575f3560e01c80638381f58a1161006e5780638381f58a146101275780638da5cb5b14610130578063938b5f321461015a578063b80777ea1461016d578063e976f0bc14610176578063f68016b714610189575f80fd5b806319cae462146100b557806322b22ce8146100d15780633fa4f245146100da5780634e417a98146100e3578063621a38e5146100f85780636ec232d31461011e575b5f80fd5b6100be60025481565b6040519081526020015b60405180910390f35b6100be60075481565b6100be60065481565b6100eb610192565b6040516100c8919061021e565b600b546101059060e01b81565b6040516001600160e01b031990911681526020016100c8565b6100be60095481565b6100be60045481565b5f54610142906001600160a01b031681565b6040516001600160a01b0390911681526020016100c8565b600854610142906001600160a01b031681565b6100be60055481565b600154610142906001600160a01b031681565b6100be60035481565b600a805461019f90610253565b80601f01602080910402602001604051908101604052809291908181526020018280546101cb90610253565b80156102165780601f106101ed57610100808354040283529160200191610216565b820191905f5260205f20905b8154815290600101906020018083116101f957829003601f168201915b505050505081565b602081525f82518060208401528060208501604085015e5f604082850101526040601f19601f83011684010191505092915050565b600181811c9082168061026757607f821691505b60208210810361028557634e487b7160e01b5f52602260045260245ffd5b5091905056fea264697066735822122090137ef6a1e175b24e6351053cac78c74bd3f13aa190e53565c6eba652177df364736f6c63430008190033",
			"opcodes": "PUSH1 0x80 PUSH1 0x40 MSTORE CALLVALUE DUP1 ISZERO PUSH2 0xF JUMPI PUSH0 DUP1 REVERT JUMPDEST POP PUSH0 DUP1 SLOAD PUSH1 0x1 PUSH1 0x1 PUSH1 0xA0 SHL SUB NOT SWAP1 DUP2 AND CALLER OR DUP3 SSTORE PUSH1 0x1 DUP1 SLOAD DUP3 AND COINBASE OR SWAP1 SSTORE PREVRANDAO PUSH1 0x2 SSTORE GASLIMIT PUSH1 0x3 SSTORE NUMBER PUSH1 0x4 SSTORE TIMESTAMP PUSH1 0x5 SSTORE GASPRICE PUSH1 0x9 SSTORE PUSH1 0x8 DUP1 SLOAD SWAP1 SWAP2 AND ORIGIN OR SWAP1 SSTORE PUSH1 0xA SWAP1 PUSH2 0x5B SWAP1 CALLDATASIZE SWAP1 DUP4 PUSH2 0x10C JUMP JUMPDEST POP PUSH1 0xB DUP1 SLOAD PUSH4 0xFFFFFFFF NOT AND PUSH0 CALLDATALOAD PUSH1 0xE0 SHR OR SWAP1 SSTORE PUSH2 0x1C5 JUMP JUMPDEST PUSH4 0x4E487B71 PUSH1 0xE0 SHL PUSH0 MSTORE PUSH1 0x41 PUSH1 0x4 MSTORE PUSH1 0x24 PUSH0 REVERT JUMPDEST PUSH1 0x1 DUP2 DUP2 SHR SWAP1 DUP3 AND DUP1 PUSH2 0x9C JUMPI PUSH1 0x7F DUP3 AND SWAP2 POP JUMPDEST PUSH1 0x20 DUP3 LT DUP2 SUB PUSH2 0xBA JUMPI PUSH4 0x4E487B71 PUSH1 0xE0 SHL PUSH0 MSTORE PUSH1 0x22 PUSH1 0x4 MSTORE PUSH1 0x24 PUSH0 REVERT JUMPDEST POP SWAP2 SWAP1 POP JUMP JUMPDEST PUSH1 0x1F DUP3 GT ISZERO PUSH2 0x107 JUMPI DUP1 PUSH0 MSTORE PUSH1 0x20 PUSH0 KECCAK256 PUSH1 0x1F DUP5 ADD PUSH1 0x5 SHR DUP2 ADD PUSH1 0x20 DUP6 LT ISZERO PUSH2 0xE5 JUMPI POP DUP1 JUMPDEST PUSH1 0x1F DUP5 ADD PUSH1 0x5 SHR DUP3 ADD SWAP2 POP JUMPDEST DUP2 DUP2 LT ISZERO PUSH2 0x104 JUMPI PUSH0 DUP2 SSTORE PUSH1 0x1 ADD PUSH2 0xF1 JUMP JUMPDEST POP POP JUMPDEST POP POP POP JUMP JUMPDEST PUSH1 0x1 PUSH1 0x1 PUSH1 0x40 SHL SUB DUP4 GT ISZERO PUSH2 0x123 JUMPI PUSH2 0x123 PUSH2 0x74 JUMP JUMPDEST PUSH2 0x137 DUP4 PUSH2 0x131 DUP4 SLOAD PUSH2 0x88 JUMP JUMPDEST DUP4 PUSH2 0xC0 JUMP JUMPDEST PUSH0 PUSH1 0x1F DUP5 GT PUSH1 0x1 DUP2 EQ PUSH2 0x168 JUMPI PUSH0 DUP6 ISZERO PUSH2 0x151 JUMPI POP DUP4 DUP3 ADD CALLDATALOAD JUMPDEST PUSH0 NOT PUSH1 0x3 DUP8 SWAP1 SHL SHR NOT AND PUSH1 0x1 DUP7 SWAP1 SHL OR DUP4 SSTORE PUSH2 0x104 JUMP JUMPDEST PUSH0 DUP4 DUP2 MSTORE PUSH1 0x20 DUP2 KECCAK256 PUSH1 0x1F NOT DUP8 AND SWAP2 JUMPDEST DUP3 DUP2 LT ISZERO PUSH2 0x197 JUMPI DUP7 DUP6 ADD CALLDATALOAD DUP3 SSTORE PUSH1 0x20 SWAP5 DUP6 ADD SWAP5 PUSH1 0x1 SWAP1 SWAP3 ADD SWAP2 ADD PUSH2 0x177 JUMP JUMPDEST POP DUP7 DUP3 LT ISZERO PUSH2 0x1B3 JUMPI PUSH0 NOT PUSH1 0xF8 DUP9 PUSH1 0x3 SHL AND SHR NOT DUP5 DUP8 ADD CALLDATALOAD AND DUP2 SSTORE JUMPDEST POP POP PUSH1 0x1 DUP6 PUSH1 0x1 SHL ADD DUP4 SSTORE POP POP POP POP POP JUMP JUMPDEST PUSH2 0x2C1 DUP1 PUSH2 0x1D2 PUSH0 CODECOPY PUSH0 RETURN INVALID PUSH1 0x80 PUSH1 0x40 MSTORE CALLVALUE DUP1 ISZERO PUSH2 0xF JUMPI PUSH0 DUP1 REVERT JUMPDEST POP PUSH1 0x4 CALLDATASIZE LT PUSH2 0xB1 JUMPI PUSH0 CALLDATALOAD PUSH1 0xE0 SHR DUP1 PUSH4 0x8381F58A GT PUSH2 0x6E JUMPI DUP1 PUSH4 0x8381F58A EQ PUSH2 0x127 JUMPI DUP1 PUSH4 0x8DA5CB5B EQ PUSH2 0x130 JUMPI DUP1 PUSH4 0x938B5F32 EQ PUSH2 0x15A JUMPI DUP1 PUSH4 0xB80777EA EQ PUSH2 0x16D JUMPI DUP1 PUSH4 0xE976F0BC EQ PUSH2 0x176 JUMPI DUP1 PUSH4 0xF68016B7 EQ PUSH2 0x189 JUMPI PUSH0 DUP1 REVERT JUMPDEST DUP1 PUSH4 0x19CAE462 EQ PUSH2 0xB5 JUMPI DUP1 PUSH4 0x22B22CE8 EQ PUSH2 0xD1 JUMPI DUP1 PUSH4 0x3FA4F245 EQ PUSH2 0xDA JUMPI DUP1 PUSH4 0x4E417A98 EQ PUSH2 0xE3 JUMPI DUP1 PUSH4 0x621A38E5 EQ PUSH2 0xF8 JUMPI DUP1 PUSH4 0x6EC232D3 EQ PUSH2 0x11E JUMPI JUMPDEST PUSH0 DUP1 REVERT JUMPDEST PUSH2 0xBE PUSH1 0x2 SLOAD DUP2 JUMP JUMPDEST PUSH1 0x40 MLOAD SWAP1 DUP2 MSTORE PUSH1 0x20 ADD JUMPDEST PUSH1 0x40 MLOAD DUP1 SWAP2 SUB SWAP1 RETURN JUMPDEST PUSH2 0xBE PUSH1 0x7 SLOAD DUP2 JUMP JUMPDEST PUSH2 0xBE PUSH1 0x6 SLOAD DUP2 JUMP JUMPDEST PUSH2 0xEB PUSH2 0x192 JUMP JUMPDEST PUSH1 0x40 MLOAD PUSH2 0xC8 SWAP2 SWAP1 PUSH2 0x21E JUMP JUMPDEST PUSH1 0xB SLOAD PUSH2 0x105 SWAP1 PUSH1 0xE0 SHL DUP2 JUMP JUMPDEST PUSH1 0x40 MLOAD PUSH1 0x1 PUSH1 0x1 PUSH1 0xE0 SHL SUB NOT SWAP1 SWAP2 AND DUP2 MSTORE PUSH1 0x20 ADD PUSH2 0xC8 JUMP JUMPDEST PUSH2 0xBE PUSH1 0x9 SLOAD DUP2 JUMP JUMPDEST PUSH2 0xBE PUSH1 0x4 SLOAD DUP2 JUMP JUMPDEST PUSH0 SLOAD PUSH2 0x142 SWAP1 PUSH1 0x1 PUSH1 0x1 PUSH1 0xA0 SHL SUB AND DUP2 JUMP JUMPDEST PUSH1 0x40 MLOAD PUSH1 0x1 PUSH1 0x1 PUSH1 0xA0 SHL SUB SWAP1 SWAP2 AND DUP2 MSTORE PUSH1 0x20 ADD PUSH2 0xC8 JUMP JUMPDEST PUSH1 0x8 SLOAD PUSH2 0x142 SWAP1 PUSH1 0x1 PUSH1 0x1 PUSH1 0xA0 SHL SUB AND DUP2 JUMP JUMPDEST PUSH2 0xBE PUSH1 0x5 SLOAD DUP2 JUMP JUMPDEST PUSH1 0x1 SLOAD PUSH2 0x142 SWAP1 PUSH1 0x1 PUSH1 0x1 PUSH1 0xA0 SHL SUB AND DUP2 JUMP JUMPDEST PUSH2 0xBE PUSH1 0x3 SLOAD DUP2 JUMP JUMPDEST PUSH1 0xA DUP1 SLOAD PUSH2 0x19F SWAP1 PUSH2 0x253 JUMP JUMPDEST DUP1 PUSH1 0x1F ADD PUSH1 0x20 DUP1 SWAP2 DIV MUL PUSH1 0x20 ADD PUSH1 0x40 MLOAD SWAP1 DUP2 ADD PUSH1 0x40 MSTORE DUP1 SWAP3 SWAP2 SWAP1 DUP2 DUP2 MSTORE PUSH1 0x20 ADD DUP3 DUP1 SLOAD PUSH2 0x1CB SWAP1 PUSH2 0x253 JUMP JUMPDEST DUP1 ISZERO PUSH2 0x216 JUMPI DUP1 PUSH1 0x1F LT PUSH2 0x1ED JUMPI PUSH2 0x100 DUP1 DUP4 SLOAD DIV MUL DUP4 MSTORE SWAP2 PUSH1 0x20 ADD SWAP2 PUSH2 0x216 JUMP JUMPDEST DUP3 ADD SWAP2 SWAP1 PUSH0 MSTORE PUSH1 0x20 PUSH0 KECCAK256 SWAP1 JUMPDEST DUP2 SLOAD DUP2 MSTORE SWAP1 PUSH1 0x1 ADD SWAP1 PUSH1 0x20 ADD DUP1 DUP4 GT PUSH2 0x1F9 JUMPI DUP3 SWAP1 SUB PUSH1 0x1F AND DUP3 ADD SWAP2 JUMPDEST POP POP POP POP POP DUP2 JUMP JUMPDEST PUSH1 0x20 DUP2 MSTORE PUSH0 DUP3 MLOAD DUP1 PUSH1 0x20 DUP5 ADD MSTORE DUP1 PUSH1 0x20 DUP6 ADD PUSH1 0x40 DUP6 ADD MCOPY PUSH0 PUSH1 0x40 DUP3 DUP6 ADD ADD MSTORE PUSH1 0x40 PUSH1 0x1F NOT PUSH1 0x1F DUP4 ADD AND DUP5 ADD ADD SWAP2 POP POP SWAP3 SWAP2 POP POP JUMP JUMPDEST PUSH1 0x1 DUP2 DUP2 SHR SWAP1 DUP3 AND DUP1 PUSH2 0x267 JUMPI PUSH1 0x7F DUP3 AND SWAP2 POP JUMPDEST PUSH1 0x20 DUP3 LT DUP2 SUB PUSH2 0x285 JUMPI PUSH4 0x4E487B71 PUSH1 0xE0 SHL PUSH0 MSTORE PUSH1 0x22 PUSH1 0x4 MSTORE PUSH1 0x24 PUSH0 REVERT JUMPDEST POP SWAP2 SWAP1 POP JUMP INVALID LOG2 PUSH5 0x6970667358 0x22 SLT KECCAK256 SWAP1 SGT PUSH31 0xF6A1E175B24E6351053CAC78C74BD3F13AA190E53565C6EBA652177DF36473 PUSH16 0x6C634300081900330000000000000000 "
		},
		"gasEstimates": {
			"creation": {
				"codeDepositCost": "141000",
				"executionCost": "infinite",
				"totalCost": "infinite"
			},
			"external": {
				"Firstfour()": "2416",
				"Myblockhash()": "2424",
				"callData()": "infinite",
				"difficulty()": "2284",
				"gasLimit()": "2393",
				"gasprice()": "2394",
				"nowOn()": "2306",
				"number()": "2283",
				"origin()": "2380",
				"owner()": "2357",
				"timestamp()": "2349",
				"value()": "2328"
			}
		},
		"methodIdentifiers": {
			"Firstfour()": "621a38e5",
			"Myblockhash()": "e976f0bc",
			"callData()": "4e417a98",
			"difficulty()": "19cae462",
			"gasLimit()": "f68016b7",
			"gasprice()": "6ec232d3",
			"nowOn()": "22b22ce8",
			"number()": "8381f58a",
			"origin()": "938b5f32",
			"owner()": "8da5cb5b",
			"timestamp()": "b80777ea",
			"value()": "3fa4f245"
		}
	},
	"abi": [
		{
			"inputs": [],
			"stateMutability": "nonpayable",
			"type": "constructor"
		},
		{
			"inputs": [],
			"name": "Firstfour",
			"outputs": [
				{
					"internalType": "bytes4",
					"name": "",
					"type": "bytes4"
				}
			],
			"stateMutability": "view",
			"type": "function"
		},
		{
			"inputs": [],
			"name": "Myblockhash",
			"outputs": [
				{
					"internalType": "address",
					"name": "",
					"type": "address"
				}
			],
			"stateMutability": "view",
			"type": "function"
		},
		{
			"inputs": [],
			"name": "callData",
			"outputs": [
				{
					"internalType": "bytes",
					"name": "",
					"type": "bytes"
				}
			],
			"stateMutability": "view",
			"type": "function"
		},
		{
			"inputs": [],
			"name": "difficulty",
			"outputs": [
				{
					"internalType": "uint256",
					"name": "",
					"type": "uint256"
				}
			],
			"stateMutability": "view",
			"type": "function"
		},
		{
			"inputs": [],
			"name": "gasLimit",
			"outputs": [
				{
					"internalType": "uint256",
					"name": "",
					"type": "uint256"
				}
			],
			"stateMutability": "view",
			"type": "function"
		},
		{
			"inputs": [],
			"name": "gasprice",
			"outputs": [
				{
					"internalType": "uint256",
					"name": "",
					"type": "uint256"
				}
			],
			"stateMutability": "view",
			"type": "function"
		},
		{
			"inputs": [],
			"name": "nowOn",
			"outputs": [
				{
					"internalType": "uint256",
					"name": "",
					"type": "uint256"
				}
			],
			"stateMutability": "view",
			"type": "function"
		},
		{
			"inputs": [],
			"name": "number",
			"outputs": [
				{
					"internalType": "uint256",
					"name": "",
					"type": "uint256"
				}
			],
			"stateMutability": "view",
			"type": "function"
		},
		{
			"inputs": [],
			"name": "origin",
			"outputs": [
				{
					"internalType": "address",
					"name": "",
					"type": "address"
				}
			],
			"stateMutability": "view",
			"type": "function"
		},
		{
			"inputs": [],
			"name": "owner",
			"outputs": [
				{
					"internalType": "address",
					"name": "",
					"type": "address"
				}
			],
			"stateMutability": "view",
			"type": "function"
		},
		{
			"inputs": [],
			"name": "timestamp",
			"outputs": [
				{
					"internalType": "uint256",
					"name": "",
					"type": "uint256"
				}
			],
			"stateMutability": "view",
			"type": "function"
		},
		{
			"inputs": [],
			"name": "value",
			"outputs": [
				{
					"internalType": "uint256",
					"name": "",
					"type": "uint256"
				}
			],
			"stateMutability": "view",
			"type": "function"
		}
	]
}