{
	"data": {
		"bytecode": {
			"linkReferences": {},
			"object": "6080604052348015600e575f80fd5b5061010c8061001c5f395ff3fe6080604052348015600e575f80fd5b5060043610603a575f3560e01c806309e9600814603e5780635a9b0b8914604f578063669e48aa146064575b5f80fd5b604d60493660046083565b5f55565b005b5f545b60405190815260200160405180910390f35b6052606f3660046099565b5f806079838560b8565b9150505b92915050565b5f602082840312156092575f80fd5b5035919050565b5f806040838503121560a9575f80fd5b50508035926020909101359150565b80820180821115607d57634e487b7160e01b5f52601160045260245ffdfea2646970667358221220601c8940bed390dfcce2f9020e1d821d3656b1a7154120f1e90bac1e95a344fc64736f6c63430008190033",
			"opcodes": "PUSH1 0x80 PUSH1 0x40 MSTORE CALLVALUE DUP1 ISZERO PUSH1 0xE JUMPI PUSH0 DUP1 REVERT JUMPDEST POP PUSH2 0x10C DUP1 PUSH2 0x1C PUSH0 CODECOPY PUSH0 RETURN INVALID PUSH1 0x80 PUSH1 0x40 MSTORE CALLVALUE DUP1 ISZERO PUSH1 0xE JUMPI PUSH0 DUP1 REVERT JUMPDEST POP PUSH1 0x4 CALLDATASIZE LT PUSH1 0x3A JUMPI PUSH0 CALLDATALOAD PUSH1 0xE0 SHR DUP1 PUSH4 0x9E96008 EQ PUSH1 0x3E JUMPI DUP1 PUSH4 0x5A9B0B89 EQ PUSH1 0x4F JUMPI DUP1 PUSH4 0x669E48AA EQ PUSH1 0x64 JUMPI JUMPDEST PUSH0 DUP1 REVERT JUMPDEST PUSH1 0x4D PUSH1 0x49 CALLDATASIZE PUSH1 0x4 PUSH1 0x83 JUMP JUMPDEST PUSH0 SSTORE JUMP JUMPDEST STOP JUMPDEST PUSH0 SLOAD JUMPDEST PUSH1 0x40 MLOAD SWAP1 DUP2 MSTORE PUSH1 0x20 ADD PUSH1 0x40 MLOAD DUP1 SWAP2 SUB SWAP1 RETURN JUMPDEST PUSH1 0x52 PUSH1 0x6F CALLDATASIZE PUSH1 0x4 PUSH1 0x99 JUMP JUMPDEST PUSH0 DUP1 PUSH1 0x79 DUP4 DUP6 PUSH1 0xB8 JUMP JUMPDEST SWAP2 POP POP JUMPDEST SWAP3 SWAP2 POP POP JUMP JUMPDEST PUSH0 PUSH1 0x20 DUP3 DUP5 SUB SLT ISZERO PUSH1 0x92 JUMPI PUSH0 DUP1 REVERT JUMPDEST POP CALLDATALOAD SWAP2 SWAP1 POP JUMP JUMPDEST PUSH0 DUP1 PUSH1 0x40 DUP4 DUP6 SUB SLT ISZERO PUSH1 0xA9 JUMPI PUSH0 DUP1 REVERT JUMPDEST POP POP DUP1 CALLDATALOAD SWAP3 PUSH1 0x20 SWAP1 SWAP2 ADD CALLDATALOAD SWAP2 POP JUMP JUMPDEST DUP1 DUP3 ADD DUP1 DUP3 GT ISZERO PUSH1 0x7D JUMPI PUSH4 0x4E487B71 PUSH1 0xE0 SHL PUSH0 MSTORE PUSH1 0x11 PUSH1 0x4 MSTORE PUSH1 0x24 PUSH0 REVERT INVALID LOG2 PUSH5 0x6970667358 0x22 SLT KECCAK256 PUSH1 0x1C DUP10 BLOCKHASH 0xBE 0xD3 SWAP1 0xDF 0xCC 0xE2 0xF9 MUL 0xE SAR DUP3 SAR CALLDATASIZE JUMP 0xB1 0xA7 ISZERO COINBASE KECCAK256 CALL 0xE9 SIGNEXTEND 0xAC 0x1E SWAP6 LOG3 PREVRANDAO 0xFC PUSH5 0x736F6C6343 STOP ADDMOD NOT STOP CALLER "
		},
		"gasEstimates": {
			"creation": {
				"codeDepositCost": "53600",
				"executionCost": "103",
				"totalCost": "53703"
			},
			"external": {
				"get(uint256,uint256)": "infinite",
				"getInfo()": "2267",
				"updateData(uint256)": "22287"
			}
		},
		"methodIdentifiers": {
			"get(uint256,uint256)": "669e48aa",
			"getInfo()": "5a9b0b89",
			"updateData(uint256)": "09e96008"
		}
	},
	"abi": [
		{
			"inputs": [
				{
					"internalType": "uint256",
					"name": "_a",
					"type": "uint256"
				},
				{
					"internalType": "uint256",
					"name": "_b",
					"type": "uint256"
				}
			],
			"name": "get",
			"outputs": [
				{
					"internalType": "uint256",
					"name": "",
					"type": "uint256"
				}
			],
			"stateMutability": "view",
			"type": "function"
		},
		{
			"inputs": [],
			"name": "getInfo",
			"outputs": [
				{
					"internalType": "uint256",
					"name": "",
					"type": "uint256"
				}
			],
			"stateMutability": "view",
			"type": "function"
		},
		{
			"inputs": [
				{
					"internalType": "uint256",
					"name": "_hey",
					"type": "uint256"
				}
			],
			"name": "updateData",
			"outputs": [],
			"stateMutability": "nonpayable",
			"type": "function"
		}
	]
}