{
	"data": {
		"bytecode": {
			"linkReferences": {},
			"object": "6080604052348015600e575f80fd5b50608b80601a5f395ff3fe6080604052348015600e575f80fd5b50600436106030575f3560e01c80630f166ad414603457806323fd0e4014604e575b5f80fd5b6101595f8190555b60405190815260200160405180910390f35b603c5f548156fea2646970667358221220d58bae4fd88240e4c06d58f6e49f4d3f39256dff18c4406f1947646a3e3937d564736f6c63430008190033",
			"opcodes": "PUSH1 0x80 PUSH1 0x40 MSTORE CALLVALUE DUP1 ISZERO PUSH1 0xE JUMPI PUSH0 DUP1 REVERT JUMPDEST POP PUSH1 0x8B DUP1 PUSH1 0x1A PUSH0 CODECOPY PUSH0 RETURN INVALID PUSH1 0x80 PUSH1 0x40 MSTORE CALLVALUE DUP1 ISZERO PUSH1 0xE JUMPI PUSH0 DUP1 REVERT JUMPDEST POP PUSH1 0x4 CALLDATASIZE LT PUSH1 0x30 JUMPI PUSH0 CALLDATALOAD PUSH1 0xE0 SHR DUP1 PUSH4 0xF166AD4 EQ PUSH1 0x34 JUMPI DUP1 PUSH4 0x23FD0E40 EQ PUSH1 0x4E JUMPI JUMPDEST PUSH0 DUP1 REVERT JUMPDEST PUSH2 0x159 PUSH0 DUP2 SWAP1 SSTORE JUMPDEST PUSH1 0x40 MLOAD SWAP1 DUP2 MSTORE PUSH1 0x20 ADD PUSH1 0x40 MLOAD DUP1 SWAP2 SUB SWAP1 RETURN JUMPDEST PUSH1 0x3C PUSH0 SLOAD DUP2 JUMP INVALID LOG2 PUSH5 0x6970667358 0x22 SLT KECCAK256 0xD5 DUP12 0xAE 0x4F 0xD8 DUP3 BLOCKHASH 0xE4 0xC0 PUSH14 0x58F6E49F4D3F39256DFF18C4406F NOT SELFBALANCE PUSH5 0x6A3E3937D5 PUSH5 0x736F6C6343 STOP ADDMOD NOT STOP CALLER "
		},
		"gasEstimates": {
			"creation": {
				"codeDepositCost": "27800",
				"executionCost": "79",
				"totalCost": "27879"
			},
			"external": {
				"local()": "22254",
				"myNumber()": "2281"
			}
		},
		"methodIdentifiers": {
			"local()": "0f166ad4",
			"myNumber()": "23fd0e40"
		}
	},
	"abi": [
		{
			"inputs": [],
			"name": "local",
			"outputs": [
				{
					"internalType": "uint256",
					"name": "",
					"type": "uint256"
				}
			],
			"stateMutability": "nonpayable",
			"type": "function"
		},
		{
			"inputs": [],
			"name": "myNumber",
			"outputs": [
				{
					"internalType": "uint256",
					"name": "",
					"type": "uint256"
				}
			],
			"stateMutability": "view",
			"type": "function"
		}
	]
}