{
	"data": {
		"bytecode": {
			"linkReferences": {},
			"object": "6080604052348015600e575f80fd5b50608580601a5f395ff3fe6080604052348015600e575f80fd5b50600436106030575f3560e01c80633748a5c21460345780638acc7b4714604d575b5f80fd5b603b5f5481565b60405190815260200160405180910390f35b00fea2646970667358221220eedcdd3280f8ba6acfd29136fbc8f652e7d3fd70efc74b884d89fae24752cb0164736f6c63430008190033",
			"opcodes": "PUSH1 0x80 PUSH1 0x40 MSTORE CALLVALUE DUP1 ISZERO PUSH1 0xE JUMPI PUSH0 DUP1 REVERT JUMPDEST POP PUSH1 0x85 DUP1 PUSH1 0x1A PUSH0 CODECOPY PUSH0 RETURN INVALID PUSH1 0x80 PUSH1 0x40 MSTORE CALLVALUE DUP1 ISZERO PUSH1 0xE JUMPI PUSH0 DUP1 REVERT JUMPDEST POP PUSH1 0x4 CALLDATASIZE LT PUSH1 0x30 JUMPI PUSH0 CALLDATALOAD PUSH1 0xE0 SHR DUP1 PUSH4 0x3748A5C2 EQ PUSH1 0x34 JUMPI DUP1 PUSH4 0x8ACC7B47 EQ PUSH1 0x4D JUMPI JUMPDEST PUSH0 DUP1 REVERT JUMPDEST PUSH1 0x3B PUSH0 SLOAD DUP2 JUMP JUMPDEST PUSH1 0x40 MLOAD SWAP1 DUP2 MSTORE PUSH1 0x20 ADD PUSH1 0x40 MLOAD DUP1 SWAP2 SUB SWAP1 RETURN JUMPDEST STOP INVALID LOG2 PUSH5 0x6970667358 0x22 SLT KECCAK256 0xEE 0xDC 0xDD ORIGIN DUP1 0xF8 0xBA PUSH11 0xCFD29136FBC8F652E7D3FD PUSH17 0xEFC74B884D89FAE24752CB0164736F6C63 NUMBER STOP ADDMOD NOT STOP CALLER "
		},
		"gasEstimates": {
			"creation": {
				"codeDepositCost": "26600",
				"executionCost": "79",
				"totalCost": "26679"
			},
			"external": {
				"addNFT()": "119",
				"numberOfNFT()": "2259"
			}
		},
		"methodIdentifiers": {
			"addNFT()": "8acc7b47",
			"numberOfNFT()": "3748a5c2"
		}
	},
	"abi": [
		{
			"inputs": [],
			"name": "addNFT",
			"outputs": [],
			"stateMutability": "nonpayable",
			"type": "function"
		},
		{
			"inputs": [],
			"name": "numberOfNFT",
			"outputs": [
				{
					"internalType": "uint256",
					"name": "",
					"type": "uint256"
				}
			],
			"stateMutability": "view",
			"type": "function"
		}
	]
}