{
	"data": {
		"bytecode": {
			"linkReferences": {},
			"object": "6080604052348015600e575f80fd5b506101078061001c5f395ff3fe6080604052348015600e575f80fd5b50600436106044575f3560e01c80631237d1bc1460485780632baeceb714605d5780635508d8e11460655780635d6da25714606c575b5f80fd5b5f545b60405190815260200160405180910390f35b60636072565b005b604b5f5481565b60636088565b60015f808282546081919060ab565b9091555050565b60015f808282546081919060c1565b634e487b7160e01b5f52601160045260245ffd5b8181038181111560bb5760bb6097565b92915050565b8082018082111560bb5760bb609756fea2646970667358221220cf0d8410b1396498089bd9615abadba5e6d364eee88ea7df9577a0a992e05bea64736f6c63430008190033",
			"opcodes": "PUSH1 0x80 PUSH1 0x40 MSTORE CALLVALUE DUP1 ISZERO PUSH1 0xE JUMPI PUSH0 DUP1 REVERT JUMPDEST POP PUSH2 0x107 DUP1 PUSH2 0x1C PUSH0 CODECOPY PUSH0 RETURN INVALID PUSH1 0x80 PUSH1 0x40 MSTORE CALLVALUE DUP1 ISZERO PUSH1 0xE JUMPI PUSH0 DUP1 REVERT JUMPDEST POP PUSH1 0x4 CALLDATASIZE LT PUSH1 0x44 JUMPI PUSH0 CALLDATALOAD PUSH1 0xE0 SHR DUP1 PUSH4 0x1237D1BC EQ PUSH1 0x48 JUMPI DUP1 PUSH4 0x2BAECEB7 EQ PUSH1 0x5D JUMPI DUP1 PUSH4 0x5508D8E1 EQ PUSH1 0x65 JUMPI DUP1 PUSH4 0x5D6DA257 EQ PUSH1 0x6C JUMPI JUMPDEST PUSH0 DUP1 REVERT JUMPDEST PUSH0 SLOAD JUMPDEST PUSH1 0x40 MLOAD SWAP1 DUP2 MSTORE PUSH1 0x20 ADD PUSH1 0x40 MLOAD DUP1 SWAP2 SUB SWAP1 RETURN JUMPDEST PUSH1 0x63 PUSH1 0x72 JUMP JUMPDEST STOP JUMPDEST PUSH1 0x4B PUSH0 SLOAD DUP2 JUMP JUMPDEST PUSH1 0x63 PUSH1 0x88 JUMP JUMPDEST PUSH1 0x1 PUSH0 DUP1 DUP3 DUP3 SLOAD PUSH1 0x81 SWAP2 SWAP1 PUSH1 0xAB JUMP JUMPDEST SWAP1 SWAP2 SSTORE POP POP JUMP JUMPDEST PUSH1 0x1 PUSH0 DUP1 DUP3 DUP3 SLOAD PUSH1 0x81 SWAP2 SWAP1 PUSH1 0xC1 JUMP JUMPDEST PUSH4 0x4E487B71 PUSH1 0xE0 SHL PUSH0 MSTORE PUSH1 0x11 PUSH1 0x4 MSTORE PUSH1 0x24 PUSH0 REVERT JUMPDEST DUP2 DUP2 SUB DUP2 DUP2 GT ISZERO PUSH1 0xBB JUMPI PUSH1 0xBB PUSH1 0x97 JUMP JUMPDEST SWAP3 SWAP2 POP POP JUMP JUMPDEST DUP1 DUP3 ADD DUP1 DUP3 GT ISZERO PUSH1 0xBB JUMPI PUSH1 0xBB PUSH1 0x97 JUMP INVALID LOG2 PUSH5 0x6970667358 0x22 SLT KECCAK256 0xCF 0xD DUP5 LT 0xB1 CODECOPY PUSH5 0x98089BD961 GAS 0xBA 0xDB 0xA5 0xE6 0xD3 PUSH5 0xEEE88EA7DF SWAP6 PUSH24 0xA0A992E05BEA64736F6C6343000819003300000000000000 "
		},
		"gasEstimates": {
			"creation": {
				"codeDepositCost": "52600",
				"executionCost": "103",
				"totalCost": "52703"
			},
			"external": {
				"IncreaseNFT()": "24486",
				"NFTCounter()": "2303",
				"ToAllUsSeeTheTotalNFT()": "2245",
				"decrement()": "24442"
			}
		},
		"methodIdentifiers": {
			"IncreaseNFT()": "5d6da257",
			"NFTCounter()": "5508d8e1",
			"ToAllUsSeeTheTotalNFT()": "1237d1bc",
			"decrement()": "2baeceb7"
		}
	},
	"abi": [
		{
			"inputs": [],
			"name": "IncreaseNFT",
			"outputs": [],
			"stateMutability": "nonpayable",
			"type": "function"
		},
		{
			"inputs": [],
			"name": "NFTCounter",
			"outputs": [
				{
					"internalType": "uint256",
					"name": "",
					"type": "uint256"
				}
			],
			"stateMutability": "view",
			"type": "function"
		},
		{
			"inputs": [],
			"name": "ToAllUsSeeTheTotalNFT",
			"outputs": [
				{
					"internalType": "uint256",
					"name": "",
					"type": "uint256"
				}
			],
			"stateMutability": "view",
			"type": "function"
		},
		{
			"inputs": [],
			"name": "decrement",
			"outputs": [],
			"stateMutability": "nonpayable",
			"type": "function"
		}
	]
}