{
	"data": {
		"bytecode": {
			"linkReferences": {},
			"object": "608060405260025f5560076001553480156017575f80fd5b506101bb806100255f395ff3fe608060405234801561000f575f80fd5b5060043610610029575f3560e01c80634717f97c1461002d575b5f80fd5b61003561004c565b6040516100439291906100bd565b60405180910390f35b5f8060055f8082825461005f9190610111565b92505081905550600760015f8282546100789190610111565b925050819055506001545f5461008e9190610144565b91506001545f5461009f9190610111565b90509091565b5f819050919050565b6100b7816100a5565b82525050565b5f6040820190506100d05f8301856100ae565b6100dd60208301846100ae565b9392505050565b7f4e487b71000000000000000000000000000000000000000000000000000000005f52601160045260245ffd5b5f61011b826100a5565b9150610126836100a5565b925082820190508082111561013e5761013d6100e4565b5b92915050565b5f61014e826100a5565b9150610159836100a5565b9250828202610167816100a5565b9150828204841483151761017e5761017d6100e4565b5b509291505056fea2646970667358221220e9cc3544abc180f22f0ca64c4da0022065f30603ffab6b2dc07c33a770feb9ff64736f6c63430008190033",
			"opcodes": "PUSH1 0x80 PUSH1 0x40 MSTORE PUSH1 0x2 PUSH0 SSTORE PUSH1 0x7 PUSH1 0x1 SSTORE CALLVALUE DUP1 ISZERO PUSH1 0x17 JUMPI PUSH0 DUP1 REVERT JUMPDEST POP PUSH2 0x1BB DUP1 PUSH2 0x25 PUSH0 CODECOPY PUSH0 RETURN INVALID PUSH1 0x80 PUSH1 0x40 MSTORE CALLVALUE DUP1 ISZERO PUSH2 0xF JUMPI PUSH0 DUP1 REVERT JUMPDEST POP PUSH1 0x4 CALLDATASIZE LT PUSH2 0x29 JUMPI PUSH0 CALLDATALOAD PUSH1 0xE0 SHR DUP1 PUSH4 0x4717F97C EQ PUSH2 0x2D JUMPI JUMPDEST PUSH0 DUP1 REVERT JUMPDEST PUSH2 0x35 PUSH2 0x4C JUMP JUMPDEST PUSH1 0x40 MLOAD PUSH2 0x43 SWAP3 SWAP2 SWAP1 PUSH2 0xBD JUMP JUMPDEST PUSH1 0x40 MLOAD DUP1 SWAP2 SUB SWAP1 RETURN JUMPDEST PUSH0 DUP1 PUSH1 0x5 PUSH0 DUP1 DUP3 DUP3 SLOAD PUSH2 0x5F SWAP2 SWAP1 PUSH2 0x111 JUMP JUMPDEST SWAP3 POP POP DUP2 SWAP1 SSTORE POP PUSH1 0x7 PUSH1 0x1 PUSH0 DUP3 DUP3 SLOAD PUSH2 0x78 SWAP2 SWAP1 PUSH2 0x111 JUMP JUMPDEST SWAP3 POP POP DUP2 SWAP1 SSTORE POP PUSH1 0x1 SLOAD PUSH0 SLOAD PUSH2 0x8E SWAP2 SWAP1 PUSH2 0x144 JUMP JUMPDEST SWAP2 POP PUSH1 0x1 SLOAD PUSH0 SLOAD PUSH2 0x9F SWAP2 SWAP1 PUSH2 0x111 JUMP JUMPDEST SWAP1 POP SWAP1 SWAP2 JUMP JUMPDEST PUSH0 DUP2 SWAP1 POP SWAP2 SWAP1 POP JUMP JUMPDEST PUSH2 0xB7 DUP2 PUSH2 0xA5 JUMP JUMPDEST DUP3 MSTORE POP POP JUMP JUMPDEST PUSH0 PUSH1 0x40 DUP3 ADD SWAP1 POP PUSH2 0xD0 PUSH0 DUP4 ADD DUP6 PUSH2 0xAE JUMP JUMPDEST PUSH2 0xDD PUSH1 0x20 DUP4 ADD DUP5 PUSH2 0xAE JUMP JUMPDEST SWAP4 SWAP3 POP POP POP JUMP JUMPDEST PUSH32 0x4E487B7100000000000000000000000000000000000000000000000000000000 PUSH0 MSTORE PUSH1 0x11 PUSH1 0x4 MSTORE PUSH1 0x24 PUSH0 REVERT JUMPDEST PUSH0 PUSH2 0x11B DUP3 PUSH2 0xA5 JUMP JUMPDEST SWAP2 POP PUSH2 0x126 DUP4 PUSH2 0xA5 JUMP JUMPDEST SWAP3 POP DUP3 DUP3 ADD SWAP1 POP DUP1 DUP3 GT ISZERO PUSH2 0x13E JUMPI PUSH2 0x13D PUSH2 0xE4 JUMP JUMPDEST JUMPDEST SWAP3 SWAP2 POP POP JUMP JUMPDEST PUSH0 PUSH2 0x14E DUP3 PUSH2 0xA5 JUMP JUMPDEST SWAP2 POP PUSH2 0x159 DUP4 PUSH2 0xA5 JUMP JUMPDEST SWAP3 POP DUP3 DUP3 MUL PUSH2 0x167 DUP2 PUSH2 0xA5 JUMP JUMPDEST SWAP2 POP DUP3 DUP3 DIV DUP5 EQ DUP4 ISZERO OR PUSH2 0x17E JUMPI PUSH2 0x17D PUSH2 0xE4 JUMP JUMPDEST JUMPDEST POP SWAP3 SWAP2 POP POP JUMP INVALID LOG2 PUSH5 0x6970667358 0x22 SLT KECCAK256 0xE9 0xCC CALLDATALOAD PREVRANDAO 0xAB 0xC1 DUP1 CALLCODE 0x2F 0xC 0xA6 0x4C 0x4D LOG0 MUL KECCAK256 PUSH6 0xF30603FFAB6B 0x2D 0xC0 PUSH29 0x33A770FEB9FF64736F6C63430008190033000000000000000000000000 "
		},
		"gasEstimates": {
			"creation": {
				"codeDepositCost": "88600",
				"executionCost": "44344",
				"totalCost": "132944"
			},
			"external": {
				"getResults()": "infinite"
			}
		},
		"methodIdentifiers": {
			"getResults()": "4717f97c"
		}
	},
	"abi": [
		{
			"inputs": [],
			"name": "getResults",
			"outputs": [
				{
					"internalType": "uint256",
					"name": "product",
					"type": "uint256"
				},
				{
					"internalType": "uint256",
					"name": "total",
					"type": "uint256"
				}
			],
			"stateMutability": "nonpayable",
			"type": "function"
		}
	]
}