{
	"tests/stateVariables.sol": {
		"StateVariable": {
			"abi": [
				{
					"inputs": [
						{
							"internalType": "string",
							"name": "_text",
							"type": "string"
						},
						{
							"internalType": "uint256",
							"name": "_no",
							"type": "uint256"
						}
					],
					"stateMutability": "nonpayable",
					"type": "constructor"
				},
				{
					"inputs": [],
					"name": "myNum",
					"outputs": [
						{
							"internalType": "uint256",
							"name": "",
							"type": "uint256"
						}
					],
					"stateMutability": "view",
					"type": "function"
				},
				{
					"inputs": [],
					"name": "myState",
					"outputs": [
						{
							"internalType": "string",
							"name": "",
							"type": "string"
						}
					],
					"stateMutability": "view",
					"type": "function"
				}
			],
			"devdoc": {
				"kind": "dev",
				"methods": {},
				"version": 1
			},
			"evm": {
				"assembly": "    /* \"tests/stateVariables.sol\":61:717  contract StateVariable {... */\n  mstore(0x40, 0x80)\n    /* \"tests/stateVariables.sol\":607:712  constructor(string memory _text, uint _no) {... */\n  callvalue\n  dup1\n  iszero\n  tag_1\n  jumpi\n  0x00\n  dup1\n  revert\ntag_1:\n  pop\n  mload(0x40)\n  sub(codesize, bytecodeSize)\n  dup1\n  bytecodeSize\n  dup4\n  codecopy\n  dup2\n  add\n  0x40\n  dup2\n  swap1\n  mstore\n  tag_2\n  swap2\n  tag_3\n  jump\t// in\ntag_2:\n    /* \"tests/stateVariables.sol\":663:670  myState */\n  0x00\n    /* \"tests/stateVariables.sol\":663:678  myState = _text */\n  tag_6\n    /* \"tests/stateVariables.sol\":673:678  _text */\n  dup4\n    /* \"tests/stateVariables.sol\":663:670  myState */\n  dup3\n    /* \"tests/stateVariables.sol\":663:678  myState = _text */\n  tag_7\n  jump\t// in\ntag_6:\n  pop\n    /* \"tests/stateVariables.sol\":693:698  myNum */\n  0x01\n    /* \"tests/stateVariables.sol\":693:704  myNum = _no */\n  sstore\n  pop\n    /* \"tests/stateVariables.sol\":61:717  contract StateVariable {... */\n  jump(tag_14)\n    /* \"#utility.yul\":14:141   */\ntag_9:\n    /* \"#utility.yul\":75:85   */\n  0x4e487b71\n    /* \"#utility.yul\":70:73   */\n  0xe0\n    /* \"#utility.yul\":66:86   */\n  shl\n    /* \"#utility.yul\":63:64   */\n  0x00\n    /* \"#utility.yul\":56:87   */\n  mstore\n    /* \"#utility.yul\":106:110   */\n  0x41\n    /* \"#utility.yul\":103:104   */\n  0x04\n    /* \"#utility.yul\":96:111   */\n  mstore\n    /* \"#utility.yul\":130:134   */\n  0x24\n    /* \"#utility.yul\":127:128   */\n  0x00\n    /* \"#utility.yul\":120:135   */\n  revert\n    /* \"#utility.yul\":146:1129   */\ntag_3:\n    /* \"#utility.yul\":235:241   */\n  0x00\n    /* \"#utility.yul\":243:249   */\n  dup1\n    /* \"#utility.yul\":296:298   */\n  0x40\n    /* \"#utility.yul\":284:293   */\n  dup4\n    /* \"#utility.yul\":275:282   */\n  dup6\n    /* \"#utility.yul\":271:294   */\n  sub\n    /* \"#utility.yul\":267:299   */\n  slt\n    /* \"#utility.yul\":264:316   */\n  iszero\n  tag_17\n  jumpi\n    /* \"#utility.yul\":312:313   */\n  0x00\n    /* \"#utility.yul\":309:310   */\n  dup1\n    /* \"#utility.yul\":302:314   */\n  revert\n    /* \"#utility.yul\":264:316   */\ntag_17:\n    /* \"#utility.yul\":339:355   */\n  dup3\n  mload\n  sub(shl(0x40, 0x01), 0x01)\n    /* \"#utility.yul\":404:418   */\n  dup1\n  dup3\n  gt\n    /* \"#utility.yul\":401:435   */\n  iszero\n  tag_18\n  jumpi\n    /* \"#utility.yul\":431:432   */\n  0x00\n    /* \"#utility.yul\":428:429   */\n  dup1\n    /* \"#utility.yul\":421:433   */\n  revert\n    /* \"#utility.yul\":401:435   */\ntag_18:\n    /* \"#utility.yul\":469:475   */\n  dup2\n    /* \"#utility.yul\":458:467   */\n  dup6\n    /* \"#utility.yul\":454:476   */\n  add\n    /* \"#utility.yul\":444:476   */\n  swap2\n  pop\n    /* \"#utility.yul\":514:521   */\n  dup6\n    /* \"#utility.yul\":507:511   */\n  0x1f\n    /* \"#utility.yul\":503:505   */\n  dup4\n    /* \"#utility.yul\":499:512   */\n  add\n    /* \"#utility.yul\":495:522   */\n  slt\n    /* \"#utility.yul\":485:540   */\n  tag_19\n  jumpi\n    /* \"#utility.yul\":536:537   */\n  0x00\n    /* \"#utility.yul\":533:534   */\n  dup1\n    /* \"#utility.yul\":526:538   */\n  revert\n    /* \"#utility.yul\":485:540   */\ntag_19:\n    /* \"#utility.yul\":565:567   */\n  dup2\n    /* \"#utility.yul\":559:568   */\n  mload\n    /* \"#utility.yul\":587:589   */\n  dup2\n    /* \"#utility.yul\":583:585   */\n  dup2\n    /* \"#utility.yul\":580:590   */\n  gt\n    /* \"#utility.yul\":577:613   */\n  iszero\n  tag_21\n  jumpi\n    /* \"#utility.yul\":593:611   */\n  tag_21\n  tag_9\n  jump\t// in\ntag_21:\n    /* \"#utility.yul\":668:670   */\n  0x40\n    /* \"#utility.yul\":662:671   */\n  mload\n    /* \"#utility.yul\":636:638   */\n  0x1f\n    /* \"#utility.yul\":722:735   */\n  dup3\n  add\n  not(0x1f)\n    /* \"#utility.yul\":718:740   */\n  swap1\n  dup2\n  and\n    /* \"#utility.yul\":742:744   */\n  0x3f\n    /* \"#utility.yul\":714:745   */\n  add\n    /* \"#utility.yul\":710:750   */\n  and\n    /* \"#utility.yul\":698:751   */\n  dup2\n  add\n  swap1\n    /* \"#utility.yul\":766:784   */\n  dup4\n  dup3\n  gt\n    /* \"#utility.yul\":786:808   */\n  dup2\n  dup4\n  lt\n    /* \"#utility.yul\":763:809   */\n  or\n    /* \"#utility.yul\":760:832   */\n  iszero\n  tag_23\n  jumpi\n    /* \"#utility.yul\":812:830   */\n  tag_23\n  tag_9\n  jump\t// in\ntag_23:\n    /* \"#utility.yul\":852:862   */\n  dup2\n    /* \"#utility.yul\":848:850   */\n  0x40\n    /* \"#utility.yul\":841:863   */\n  mstore\n    /* \"#utility.yul\":887:889   */\n  dup3\n    /* \"#utility.yul\":879:885   */\n  dup2\n    /* \"#utility.yul\":872:890   */\n  mstore\n    /* \"#utility.yul\":929:936   */\n  dup9\n    /* \"#utility.yul\":922:926   */\n  0x20\n    /* \"#utility.yul\":917:919   */\n  dup5\n    /* \"#utility.yul\":913:915   */\n  dup8\n    /* \"#utility.yul\":909:920   */\n  add\n    /* \"#utility.yul\":905:927   */\n  add\n    /* \"#utility.yul\":902:937   */\n  gt\n    /* \"#utility.yul\":899:954   */\n  iszero\n  tag_24\n  jumpi\n    /* \"#utility.yul\":950:951   */\n  0x00\n    /* \"#utility.yul\":947:948   */\n  dup1\n    /* \"#utility.yul\":940:952   */\n  revert\n    /* \"#utility.yul\":899:954   */\ntag_24:\n    /* \"#utility.yul\":1003:1005   */\n  dup3\n    /* \"#utility.yul\":996:1000   */\n  0x20\n    /* \"#utility.yul\":992:994   */\n  dup7\n    /* \"#utility.yul\":988:1001   */\n  add\n    /* \"#utility.yul\":981:985   */\n  0x20\n    /* \"#utility.yul\":973:979   */\n  dup4\n    /* \"#utility.yul\":969:986   */\n  add\n    /* \"#utility.yul\":963:1006   */\n  mcopy\n    /* \"#utility.yul\":1050:1051   */\n  0x00\n    /* \"#utility.yul\":1043:1047   */\n  0x20\n    /* \"#utility.yul\":1038:1040   */\n  dup5\n    /* \"#utility.yul\":1030:1036   */\n  dup4\n    /* \"#utility.yul\":1026:1041   */\n  add\n    /* \"#utility.yul\":1022:1048   */\n  add\n    /* \"#utility.yul\":1015:1052   */\n  mstore\n    /* \"#utility.yul\":1071:1077   */\n  dup1\n    /* \"#utility.yul\":1061:1077   */\n  swap7\n  pop\n  pop\n  pop\n  pop\n  pop\n  pop\n    /* \"#utility.yul\":1117:1121   */\n  0x20\n    /* \"#utility.yul\":1106:1115   */\n  dup4\n    /* \"#utility.yul\":1102:1122   */\n  add\n    /* \"#utility.yul\":1096:1123   */\n  mload\n    /* \"#utility.yul\":1086:1123   */\n  swap1\n  pop\n    /* \"#utility.yul\":146:1129   */\n  swap3\n  pop\n  swap3\n  swap1\n  pop\n  jump\t// out\n    /* \"#utility.yul\":1134:1514   */\ntag_10:\n    /* \"#utility.yul\":1213:1214   */\n  0x01\n    /* \"#utility.yul\":1209:1221   */\n  dup2\n  dup2\n  shr\n  swap1\n    /* \"#utility.yul\":1256:1268   */\n  dup3\n  and\n  dup1\n    /* \"#utility.yul\":1277:1338   */\n  tag_26\n  jumpi\n    /* \"#utility.yul\":1331:1335   */\n  0x7f\n    /* \"#utility.yul\":1323:1329   */\n  dup3\n    /* \"#utility.yul\":1319:1336   */\n  and\n    /* \"#utility.yul\":1309:1336   */\n  swap2\n  pop\n    /* \"#utility.yul\":1277:1338   */\ntag_26:\n    /* \"#utility.yul\":1384:1386   */\n  0x20\n    /* \"#utility.yul\":1376:1382   */\n  dup3\n    /* \"#utility.yul\":1373:1387   */\n  lt\n    /* \"#utility.yul\":1353:1371   */\n  dup2\n    /* \"#utility.yul\":1350:1388   */\n  sub\n    /* \"#utility.yul\":1347:1508   */\n  tag_27\n  jumpi\n    /* \"#utility.yul\":1430:1440   */\n  0x4e487b71\n    /* \"#utility.yul\":1425:1428   */\n  0xe0\n    /* \"#utility.yul\":1421:1441   */\n  shl\n    /* \"#utility.yul\":1418:1419   */\n  0x00\n    /* \"#utility.yul\":1411:1442   */\n  mstore\n    /* \"#utility.yul\":1465:1469   */\n  0x22\n    /* \"#utility.yul\":1462:1463   */\n  0x04\n    /* \"#utility.yul\":1455:1470   */\n  mstore\n    /* \"#utility.yul\":1493:1497   */\n  0x24\n    /* \"#utility.yul\":1490:1491   */\n  0x00\n    /* \"#utility.yul\":1483:1498   */\n  revert\n    /* \"#utility.yul\":1347:1508   */\ntag_27:\n  pop\n    /* \"#utility.yul\":1134:1514   */\n  swap2\n  swap1\n  pop\n  jump\t// out\n    /* \"#utility.yul\":1645:2163   */\ntag_12:\n    /* \"#utility.yul\":1747:1749   */\n  0x1f\n    /* \"#utility.yul\":1742:1745   */\n  dup3\n    /* \"#utility.yul\":1739:1750   */\n  gt\n    /* \"#utility.yul\":1736:2157   */\n  iszero\n  tag_30\n  jumpi\n    /* \"#utility.yul\":1783:1788   */\n  dup1\n    /* \"#utility.yul\":1780:1781   */\n  0x00\n    /* \"#utility.yul\":1773:1789   */\n  mstore\n    /* \"#utility.yul\":1827:1831   */\n  0x20\n    /* \"#utility.yul\":1824:1825   */\n  0x00\n    /* \"#utility.yul\":1814:1832   */\n  keccak256\n    /* \"#utility.yul\":1897:1899   */\n  0x1f\n    /* \"#utility.yul\":1885:1895   */\n  dup5\n    /* \"#utility.yul\":1881:1900   */\n  add\n    /* \"#utility.yul\":1878:1879   */\n  0x05\n    /* \"#utility.yul\":1874:1901   */\n  shr\n    /* \"#utility.yul\":1868:1872   */\n  dup2\n    /* \"#utility.yul\":1864:1902   */\n  add\n    /* \"#utility.yul\":1933:1937   */\n  0x20\n    /* \"#utility.yul\":1921:1931   */\n  dup6\n    /* \"#utility.yul\":1918:1938   */\n  lt\n    /* \"#utility.yul\":1915:1962   */\n  iszero\n  tag_31\n  jumpi\n  pop\n    /* \"#utility.yul\":1956:1960   */\n  dup1\n    /* \"#utility.yul\":1915:1962   */\ntag_31:\n    /* \"#utility.yul\":2011:2013   */\n  0x1f\n    /* \"#utility.yul\":2006:2009   */\n  dup5\n    /* \"#utility.yul\":2002:2014   */\n  add\n    /* \"#utility.yul\":1999:2000   */\n  0x05\n    /* \"#utility.yul\":1995:2015   */\n  shr\n    /* \"#utility.yul\":1989:1993   */\n  dup3\n    /* \"#utility.yul\":1985:2016   */\n  add\n    /* \"#utility.yul\":1975:2016   */\n  swap2\n  pop\n    /* \"#utility.yul\":2066:2147   */\ntag_32:\n    /* \"#utility.yul\":2084:2086   */\n  dup2\n    /* \"#utility.yul\":2077:2082   */\n  dup2\n    /* \"#utility.yul\":2074:2087   */\n  lt\n    /* \"#utility.yul\":2066:2147   */\n  iszero\n  tag_34\n  jumpi\n    /* \"#utility.yul\":2143:2144   */\n  0x00\n    /* \"#utility.yul\":2129:2145   */\n  dup2\n  sstore\n    /* \"#utility.yul\":2110:2111   */\n  0x01\n    /* \"#utility.yul\":2099:2112   */\n  add\n    /* \"#utility.yul\":2066:2147   */\n  jump(tag_32)\ntag_34:\n    /* \"#utility.yul\":2070:2073   */\n  pop\n  pop\n    /* \"#utility.yul\":1736:2157   */\ntag_30:\n    /* \"#utility.yul\":1645:2163   */\n  pop\n  pop\n  pop\n  jump\t// out\n    /* \"#utility.yul\":2339:3684   */\ntag_7:\n    /* \"#utility.yul\":2459:2469   */\n  dup2\n  mload\n  sub(shl(0x40, 0x01), 0x01)\n    /* \"#utility.yul\":2481:2511   */\n  dup2\n  gt\n    /* \"#utility.yul\":2478:2534   */\n  iszero\n  tag_38\n  jumpi\n    /* \"#utility.yul\":2514:2532   */\n  tag_38\n  tag_9\n  jump\t// in\ntag_38:\n    /* \"#utility.yul\":2543:2640   */\n  tag_39\n    /* \"#utility.yul\":2633:2639   */\n  dup2\n    /* \"#utility.yul\":2593:2631   */\n  tag_40\n    /* \"#utility.yul\":2625:2629   */\n  dup5\n    /* \"#utility.yul\":2619:2630   */\n  sload\n    /* \"#utility.yul\":2593:2631   */\n  tag_10\n  jump\t// in\ntag_40:\n    /* \"#utility.yul\":2587:2591   */\n  dup5\n    /* \"#utility.yul\":2543:2640   */\n  tag_12\n  jump\t// in\ntag_39:\n    /* \"#utility.yul\":2695:2699   */\n  0x20\n  dup1\n    /* \"#utility.yul\":2752:2754   */\n  0x1f\n    /* \"#utility.yul\":2741:2755   */\n  dup4\n  gt\n    /* \"#utility.yul\":2769:2770   */\n  0x01\n    /* \"#utility.yul\":2764:3427   */\n  dup2\n  eq\n  tag_42\n  jumpi\n    /* \"#utility.yul\":3471:3472   */\n  0x00\n    /* \"#utility.yul\":3488:3494   */\n  dup5\n    /* \"#utility.yul\":3485:3574   */\n  iszero\n  tag_43\n  jumpi\n  pop\n    /* \"#utility.yul\":3540:3559   */\n  dup6\n  dup4\n  add\n    /* \"#utility.yul\":3534:3560   */\n  mload\n    /* \"#utility.yul\":3485:3574   */\ntag_43:\n  not(0x00)\n    /* \"#utility.yul\":2296:2297   */\n  0x03\n    /* \"#utility.yul\":2292:2303   */\n  dup7\n  swap1\n  shl\n    /* \"#utility.yul\":2288:2312   */\n  shr\n    /* \"#utility.yul\":2284:2313   */\n  not\n    /* \"#utility.yul\":2274:2314   */\n  and\n    /* \"#utility.yul\":2320:2321   */\n  0x01\n    /* \"#utility.yul\":2316:2327   */\n  dup6\n  swap1\n  shl\n    /* \"#utility.yul\":2271:2328   */\n  or\n    /* \"#utility.yul\":3587:3668   */\n  dup6\n  sstore\n    /* \"#utility.yul\":2734:3678   */\n  jump(tag_41)\n    /* \"#utility.yul\":2764:3427   */\ntag_42:\n    /* \"#utility.yul\":1592:1593   */\n  0x00\n    /* \"#utility.yul\":1585:1599   */\n  dup6\n  dup2\n  mstore\n    /* \"#utility.yul\":1629:1633   */\n  0x20\n    /* \"#utility.yul\":1616:1634   */\n  dup2\n  keccak256\n  not(0x1f)\n    /* \"#utility.yul\":2800:2820   */\n  dup7\n  and\n  swap2\n    /* \"#utility.yul\":2918:3154   */\ntag_46:\n    /* \"#utility.yul\":2932:2939   */\n  dup3\n    /* \"#utility.yul\":2929:2930   */\n  dup2\n    /* \"#utility.yul\":2926:2940   */\n  lt\n    /* \"#utility.yul\":2918:3154   */\n  iszero\n  tag_48\n  jumpi\n    /* \"#utility.yul\":3021:3040   */\n  dup9\n  dup7\n  add\n    /* \"#utility.yul\":3015:3041   */\n  mload\n    /* \"#utility.yul\":3000:3042   */\n  dup3\n  sstore\n    /* \"#utility.yul\":3113:3140   */\n  swap5\n  dup5\n  add\n  swap5\n    /* \"#utility.yul\":3081:3082   */\n  0x01\n    /* \"#utility.yul\":3069:3083   */\n  swap1\n  swap2\n  add\n  swap1\n    /* \"#utility.yul\":2948:2967   */\n  dup5\n  add\n    /* \"#utility.yul\":2918:3154   */\n  jump(tag_46)\ntag_48:\n    /* \"#utility.yul\":2922:2925   */\n  pop\n    /* \"#utility.yul\":3182:3188   */\n  dup6\n    /* \"#utility.yul\":3173:3180   */\n  dup3\n    /* \"#utility.yul\":3170:3189   */\n  lt\n    /* \"#utility.yul\":3167:3368   */\n  iszero\n  tag_49\n  jumpi\n    /* \"#utility.yul\":3243:3262   */\n  dup8\n  dup6\n  add\n    /* \"#utility.yul\":3237:3263   */\n  mload\n  not(0x00)\n    /* \"#utility.yul\":3326:3327   */\n  0x03\n    /* \"#utility.yul\":3322:3336   */\n  dup9\n  swap1\n  shl\n    /* \"#utility.yul\":3338:3341   */\n  0xf8\n    /* \"#utility.yul\":3318:3342   */\n  and\n    /* \"#utility.yul\":3314:3351   */\n  shr\n    /* \"#utility.yul\":3310:3352   */\n  not\n    /* \"#utility.yul\":3295:3353   */\n  and\n    /* \"#utility.yul\":3280:3354   */\n  dup2\n  sstore\n    /* \"#utility.yul\":3167:3368   */\ntag_49:\n  pop\n  pop\n    /* \"#utility.yul\":3414:3415   */\n  0x01\n    /* \"#utility.yul\":3405:3411   */\n  dup5\n    /* \"#utility.yul\":3402:3403   */\n  0x01\n    /* \"#utility.yul\":3398:3412   */\n  shl\n    /* \"#utility.yul\":3394:3416   */\n  add\n    /* \"#utility.yul\":3388:3392   */\n  dup6\n    /* \"#utility.yul\":3381:3417   */\n  sstore\n    /* \"#utility.yul\":2734:3678   */\ntag_41:\n  pop\n  pop\n  pop\n  pop\n    /* \"#utility.yul\":2339:3684   */\n  pop\n  pop\n  jump\t// out\ntag_14:\n    /* \"tests/stateVariables.sol\":61:717  contract StateVariable {... */\n  dataSize(sub_0)\n  dup1\n  dataOffset(sub_0)\n  0x00\n  codecopy\n  0x00\n  return\nstop\n\nsub_0: assembly {\n        /* \"tests/stateVariables.sol\":61:717  contract StateVariable {... */\n      mstore(0x40, 0x80)\n      callvalue\n      dup1\n      iszero\n      tag_1\n      jumpi\n      0x00\n      dup1\n      revert\n    tag_1:\n      pop\n      jumpi(tag_2, lt(calldatasize, 0x04))\n      shr(0xe0, calldataload(0x00))\n      dup1\n      0x8bf1799f\n      eq\n      tag_3\n      jumpi\n      dup1\n      0xd4da005a\n      eq\n      tag_4\n      jumpi\n    tag_2:\n      0x00\n      dup1\n      revert\n        /* \"tests/stateVariables.sol\":550:571  string public myState */\n    tag_3:\n      tag_5\n      tag_6\n      jump\t// in\n    tag_5:\n      mload(0x40)\n      tag_7\n      swap2\n      swap1\n      tag_8\n      jump\t// in\n    tag_7:\n      mload(0x40)\n      dup1\n      swap2\n      sub\n      swap1\n      return\n        /* \"tests/stateVariables.sol\":578:598  uint256 public myNum */\n    tag_4:\n      tag_9\n      sload(0x01)\n      dup2\n      jump\n    tag_9:\n      mload(0x40)\n        /* \"#utility.yul\":583:608   */\n      swap1\n      dup2\n      mstore\n        /* \"#utility.yul\":571:573   */\n      0x20\n        /* \"#utility.yul\":556:574   */\n      add\n        /* \"tests/stateVariables.sol\":578:598  uint256 public myNum */\n      tag_7\n        /* \"#utility.yul\":437:614   */\n      jump\n        /* \"tests/stateVariables.sol\":550:571  string public myState */\n    tag_6:\n      0x00\n      dup1\n      sload\n      tag_13\n      swap1\n      tag_14\n      jump\t// in\n    tag_13:\n      dup1\n      0x1f\n      add\n      0x20\n      dup1\n      swap2\n      div\n      mul\n      0x20\n      add\n      mload(0x40)\n      swap1\n      dup2\n      add\n      0x40\n      mstore\n      dup1\n      swap3\n      swap2\n      swap1\n      dup2\n      dup2\n      mstore\n      0x20\n      add\n      dup3\n      dup1\n      sload\n      tag_15\n      swap1\n      tag_14\n      jump\t// in\n    tag_15:\n      dup1\n      iszero\n      tag_16\n      jumpi\n      dup1\n      0x1f\n      lt\n      tag_17\n      jumpi\n      0x0100\n      dup1\n      dup4\n      sload\n      div\n      mul\n      dup4\n      mstore\n      swap2\n      0x20\n      add\n      swap2\n      jump(tag_16)\n    tag_17:\n      dup3\n      add\n      swap2\n      swap1\n      0x00\n      mstore\n      keccak256(0x00, 0x20)\n      swap1\n    tag_18:\n      dup2\n      sload\n      dup2\n      mstore\n      swap1\n      0x01\n      add\n      swap1\n      0x20\n      add\n      dup1\n      dup4\n      gt\n      tag_18\n      jumpi\n      dup3\n      swap1\n      sub\n      0x1f\n      and\n      dup3\n      add\n      swap2\n    tag_16:\n      pop\n      pop\n      pop\n      pop\n      pop\n      dup2\n      jump\t// out\n        /* \"#utility.yul\":14:432   */\n    tag_8:\n        /* \"#utility.yul\":163:165   */\n      0x20\n        /* \"#utility.yul\":152:161   */\n      dup2\n        /* \"#utility.yul\":145:166   */\n      mstore\n        /* \"#utility.yul\":126:130   */\n      0x00\n        /* \"#utility.yul\":195:201   */\n      dup3\n        /* \"#utility.yul\":189:202   */\n      mload\n        /* \"#utility.yul\":238:244   */\n      dup1\n        /* \"#utility.yul\":233:235   */\n      0x20\n        /* \"#utility.yul\":222:231   */\n      dup5\n        /* \"#utility.yul\":218:236   */\n      add\n        /* \"#utility.yul\":211:245   */\n      mstore\n        /* \"#utility.yul\":297:303   */\n      dup1\n        /* \"#utility.yul\":292:294   */\n      0x20\n        /* \"#utility.yul\":284:290   */\n      dup6\n        /* \"#utility.yul\":280:295   */\n      add\n        /* \"#utility.yul\":275:277   */\n      0x40\n        /* \"#utility.yul\":264:273   */\n      dup6\n        /* \"#utility.yul\":260:278   */\n      add\n        /* \"#utility.yul\":254:304   */\n      mcopy\n        /* \"#utility.yul\":353:354   */\n      0x00\n        /* \"#utility.yul\":348:350   */\n      0x40\n        /* \"#utility.yul\":339:345   */\n      dup3\n        /* \"#utility.yul\":328:337   */\n      dup6\n        /* \"#utility.yul\":324:346   */\n      add\n        /* \"#utility.yul\":320:351   */\n      add\n        /* \"#utility.yul\":313:355   */\n      mstore\n        /* \"#utility.yul\":423:425   */\n      0x40\n        /* \"#utility.yul\":416:418   */\n      0x1f\n        /* \"#utility.yul\":412:419   */\n      not\n        /* \"#utility.yul\":407:409   */\n      0x1f\n        /* \"#utility.yul\":399:405   */\n      dup4\n        /* \"#utility.yul\":395:410   */\n      add\n        /* \"#utility.yul\":391:420   */\n      and\n        /* \"#utility.yul\":380:389   */\n      dup5\n        /* \"#utility.yul\":376:421   */\n      add\n        /* \"#utility.yul\":372:426   */\n      add\n        /* \"#utility.yul\":364:426   */\n      swap2\n      pop\n      pop\n        /* \"#utility.yul\":14:432   */\n      swap3\n      swap2\n      pop\n      pop\n      jump\t// out\n        /* \"#utility.yul\":619:999   */\n    tag_14:\n        /* \"#utility.yul\":698:699   */\n      0x01\n        /* \"#utility.yul\":694:706   */\n      dup2\n      dup2\n      shr\n      swap1\n        /* \"#utility.yul\":741:753   */\n      dup3\n      and\n      dup1\n        /* \"#utility.yul\":762:823   */\n      tag_23\n      jumpi\n        /* \"#utility.yul\":816:820   */\n      0x7f\n        /* \"#utility.yul\":808:814   */\n      dup3\n        /* \"#utility.yul\":804:821   */\n      and\n        /* \"#utility.yul\":794:821   */\n      swap2\n      pop\n        /* \"#utility.yul\":762:823   */\n    tag_23:\n        /* \"#utility.yul\":869:871   */\n      0x20\n        /* \"#utility.yul\":861:867   */\n      dup3\n        /* \"#utility.yul\":858:872   */\n      lt\n        /* \"#utility.yul\":838:856   */\n      dup2\n        /* \"#utility.yul\":835:873   */\n      sub\n        /* \"#utility.yul\":832:993   */\n      tag_24\n      jumpi\n        /* \"#utility.yul\":915:925   */\n      0x4e487b71\n        /* \"#utility.yul\":910:913   */\n      0xe0\n        /* \"#utility.yul\":906:926   */\n      shl\n        /* \"#utility.yul\":903:904   */\n      0x00\n        /* \"#utility.yul\":896:927   */\n      mstore\n        /* \"#utility.yul\":950:954   */\n      0x22\n        /* \"#utility.yul\":947:948   */\n      0x04\n        /* \"#utility.yul\":940:955   */\n      mstore\n        /* \"#utility.yul\":978:982   */\n      0x24\n        /* \"#utility.yul\":975:976   */\n      0x00\n        /* \"#utility.yul\":968:983   */\n      revert\n        /* \"#utility.yul\":832:993   */\n    tag_24:\n      pop\n        /* \"#utility.yul\":619:999   */\n      swap2\n      swap1\n      pop\n      jump\t// out\n\n    auxdata: 0xa2646970667358221220b3375df38dc34f4fedd70361685ed668f9106149616aa0633528a024687c78f464736f6c63430008190033\n}\n",
				"bytecode": {
					"linkReferences": {},
					"object": "608060405234801561000f575f80fd5b506040516103f63803806103f683398101604081905261002e91610057565b5f610039838261018f565b506001555061024e565b634e487b7160e01b5f52604160045260245ffd5b5f8060408385031215610068575f80fd5b82516001600160401b038082111561007e575f80fd5b818501915085601f830112610091575f80fd5b8151818111156100a3576100a3610043565b604051601f8201601f19908116603f011681019083821181831017156100cb576100cb610043565b816040528281528860208487010111156100e3575f80fd5b8260208601602083015e5f602084830101528096505050505050602083015190509250929050565b600181811c9082168061011f57607f821691505b60208210810361013d57634e487b7160e01b5f52602260045260245ffd5b50919050565b601f82111561018a57805f5260205f20601f840160051c810160208510156101685750805b601f840160051c820191505b81811015610187575f8155600101610174565b50505b505050565b81516001600160401b038111156101a8576101a8610043565b6101bc816101b6845461010b565b84610143565b602080601f8311600181146101ef575f84156101d85750858301515b5f19600386901b1c1916600185901b178555610246565b5f85815260208120601f198616915b8281101561021d578886015182559484019460019091019084016101fe565b508582101561023a57878501515f19600388901b60f8161c191681555b505060018460011b0185555b505050505050565b61019b8061025b5f395ff3fe608060405234801561000f575f80fd5b5060043610610034575f3560e01c80638bf1799f14610038578063d4da005a14610056575b5f80fd5b61004061006d565b60405161004d91906100f8565b60405180910390f35b61005f60015481565b60405190815260200161004d565b5f80546100799061012d565b80601f01602080910402602001604051908101604052809291908181526020018280546100a59061012d565b80156100f05780601f106100c7576101008083540402835291602001916100f0565b820191905f5260205f20905b8154815290600101906020018083116100d357829003601f168201915b505050505081565b602081525f82518060208401528060208501604085015e5f604082850101526040601f19601f83011684010191505092915050565b600181811c9082168061014157607f821691505b60208210810361015f57634e487b7160e01b5f52602260045260245ffd5b5091905056fea2646970667358221220b3375df38dc34f4fedd70361685ed668f9106149616aa0633528a024687c78f464736f6c63430008190033",
					"opcodes": "PUSH1 0x80 PUSH1 0x40 MSTORE CALLVALUE DUP1 ISZERO PUSH2 0xF JUMPI PUSH0 DUP1 REVERT JUMPDEST POP PUSH1 0x40 MLOAD PUSH2 0x3F6 CODESIZE SUB DUP1 PUSH2 0x3F6 DUP4 CODECOPY DUP2 ADD PUSH1 0x40 DUP2 SWAP1 MSTORE PUSH2 0x2E SWAP2 PUSH2 0x57 JUMP JUMPDEST PUSH0 PUSH2 0x39 DUP4 DUP3 PUSH2 0x18F JUMP JUMPDEST POP PUSH1 0x1 SSTORE POP PUSH2 0x24E JUMP JUMPDEST PUSH4 0x4E487B71 PUSH1 0xE0 SHL PUSH0 MSTORE PUSH1 0x41 PUSH1 0x4 MSTORE PUSH1 0x24 PUSH0 REVERT JUMPDEST PUSH0 DUP1 PUSH1 0x40 DUP4 DUP6 SUB SLT ISZERO PUSH2 0x68 JUMPI PUSH0 DUP1 REVERT JUMPDEST DUP3 MLOAD PUSH1 0x1 PUSH1 0x1 PUSH1 0x40 SHL SUB DUP1 DUP3 GT ISZERO PUSH2 0x7E JUMPI PUSH0 DUP1 REVERT JUMPDEST DUP2 DUP6 ADD SWAP2 POP DUP6 PUSH1 0x1F DUP4 ADD SLT PUSH2 0x91 JUMPI PUSH0 DUP1 REVERT JUMPDEST DUP2 MLOAD DUP2 DUP2 GT ISZERO PUSH2 0xA3 JUMPI PUSH2 0xA3 PUSH2 0x43 JUMP JUMPDEST PUSH1 0x40 MLOAD PUSH1 0x1F DUP3 ADD PUSH1 0x1F NOT SWAP1 DUP2 AND PUSH1 0x3F ADD AND DUP2 ADD SWAP1 DUP4 DUP3 GT DUP2 DUP4 LT OR ISZERO PUSH2 0xCB JUMPI PUSH2 0xCB PUSH2 0x43 JUMP JUMPDEST DUP2 PUSH1 0x40 MSTORE DUP3 DUP2 MSTORE DUP9 PUSH1 0x20 DUP5 DUP8 ADD ADD GT ISZERO PUSH2 0xE3 JUMPI PUSH0 DUP1 REVERT JUMPDEST DUP3 PUSH1 0x20 DUP7 ADD PUSH1 0x20 DUP4 ADD MCOPY PUSH0 PUSH1 0x20 DUP5 DUP4 ADD ADD MSTORE DUP1 SWAP7 POP POP POP POP POP POP PUSH1 0x20 DUP4 ADD MLOAD SWAP1 POP SWAP3 POP SWAP3 SWAP1 POP JUMP JUMPDEST PUSH1 0x1 DUP2 DUP2 SHR SWAP1 DUP3 AND DUP1 PUSH2 0x11F JUMPI PUSH1 0x7F DUP3 AND SWAP2 POP JUMPDEST PUSH1 0x20 DUP3 LT DUP2 SUB PUSH2 0x13D JUMPI PUSH4 0x4E487B71 PUSH1 0xE0 SHL PUSH0 MSTORE PUSH1 0x22 PUSH1 0x4 MSTORE PUSH1 0x24 PUSH0 REVERT JUMPDEST POP SWAP2 SWAP1 POP JUMP JUMPDEST PUSH1 0x1F DUP3 GT ISZERO PUSH2 0x18A JUMPI DUP1 PUSH0 MSTORE PUSH1 0x20 PUSH0 KECCAK256 PUSH1 0x1F DUP5 ADD PUSH1 0x5 SHR DUP2 ADD PUSH1 0x20 DUP6 LT ISZERO PUSH2 0x168 JUMPI POP DUP1 JUMPDEST PUSH1 0x1F DUP5 ADD PUSH1 0x5 SHR DUP3 ADD SWAP2 POP JUMPDEST DUP2 DUP2 LT ISZERO PUSH2 0x187 JUMPI PUSH0 DUP2 SSTORE PUSH1 0x1 ADD PUSH2 0x174 JUMP JUMPDEST POP POP JUMPDEST POP POP POP JUMP JUMPDEST DUP2 MLOAD PUSH1 0x1 PUSH1 0x1 PUSH1 0x40 SHL SUB DUP2 GT ISZERO PUSH2 0x1A8 JUMPI PUSH2 0x1A8 PUSH2 0x43 JUMP JUMPDEST PUSH2 0x1BC DUP2 PUSH2 0x1B6 DUP5 SLOAD PUSH2 0x10B JUMP JUMPDEST DUP5 PUSH2 0x143 JUMP JUMPDEST PUSH1 0x20 DUP1 PUSH1 0x1F DUP4 GT PUSH1 0x1 DUP2 EQ PUSH2 0x1EF JUMPI PUSH0 DUP5 ISZERO PUSH2 0x1D8 JUMPI POP DUP6 DUP4 ADD MLOAD JUMPDEST PUSH0 NOT PUSH1 0x3 DUP7 SWAP1 SHL SHR NOT AND PUSH1 0x1 DUP6 SWAP1 SHL OR DUP6 SSTORE PUSH2 0x246 JUMP JUMPDEST PUSH0 DUP6 DUP2 MSTORE PUSH1 0x20 DUP2 KECCAK256 PUSH1 0x1F NOT DUP7 AND SWAP2 JUMPDEST DUP3 DUP2 LT ISZERO PUSH2 0x21D JUMPI DUP9 DUP7 ADD MLOAD DUP3 SSTORE SWAP5 DUP5 ADD SWAP5 PUSH1 0x1 SWAP1 SWAP2 ADD SWAP1 DUP5 ADD PUSH2 0x1FE JUMP JUMPDEST POP DUP6 DUP3 LT ISZERO PUSH2 0x23A JUMPI DUP8 DUP6 ADD MLOAD PUSH0 NOT PUSH1 0x3 DUP9 SWAP1 SHL PUSH1 0xF8 AND SHR NOT AND DUP2 SSTORE JUMPDEST POP POP PUSH1 0x1 DUP5 PUSH1 0x1 SHL ADD DUP6 SSTORE JUMPDEST POP POP POP POP POP POP JUMP JUMPDEST PUSH2 0x19B DUP1 PUSH2 0x25B PUSH0 CODECOPY PUSH0 RETURN INVALID PUSH1 0x80 PUSH1 0x40 MSTORE CALLVALUE DUP1 ISZERO PUSH2 0xF JUMPI PUSH0 DUP1 REVERT JUMPDEST POP PUSH1 0x4 CALLDATASIZE LT PUSH2 0x34 JUMPI PUSH0 CALLDATALOAD PUSH1 0xE0 SHR DUP1 PUSH4 0x8BF1799F EQ PUSH2 0x38 JUMPI DUP1 PUSH4 0xD4DA005A EQ PUSH2 0x56 JUMPI JUMPDEST PUSH0 DUP1 REVERT JUMPDEST PUSH2 0x40 PUSH2 0x6D JUMP JUMPDEST PUSH1 0x40 MLOAD PUSH2 0x4D SWAP2 SWAP1 PUSH2 0xF8 JUMP JUMPDEST PUSH1 0x40 MLOAD DUP1 SWAP2 SUB SWAP1 RETURN JUMPDEST PUSH2 0x5F PUSH1 0x1 SLOAD DUP2 JUMP JUMPDEST PUSH1 0x40 MLOAD SWAP1 DUP2 MSTORE PUSH1 0x20 ADD PUSH2 0x4D JUMP JUMPDEST PUSH0 DUP1 SLOAD PUSH2 0x79 SWAP1 PUSH2 0x12D JUMP JUMPDEST DUP1 PUSH1 0x1F ADD PUSH1 0x20 DUP1 SWAP2 DIV MUL PUSH1 0x20 ADD PUSH1 0x40 MLOAD SWAP1 DUP2 ADD PUSH1 0x40 MSTORE DUP1 SWAP3 SWAP2 SWAP1 DUP2 DUP2 MSTORE PUSH1 0x20 ADD DUP3 DUP1 SLOAD PUSH2 0xA5 SWAP1 PUSH2 0x12D JUMP JUMPDEST DUP1 ISZERO PUSH2 0xF0 JUMPI DUP1 PUSH1 0x1F LT PUSH2 0xC7 JUMPI PUSH2 0x100 DUP1 DUP4 SLOAD DIV MUL DUP4 MSTORE SWAP2 PUSH1 0x20 ADD SWAP2 PUSH2 0xF0 JUMP JUMPDEST DUP3 ADD SWAP2 SWAP1 PUSH0 MSTORE PUSH1 0x20 PUSH0 KECCAK256 SWAP1 JUMPDEST DUP2 SLOAD DUP2 MSTORE SWAP1 PUSH1 0x1 ADD SWAP1 PUSH1 0x20 ADD DUP1 DUP4 GT PUSH2 0xD3 JUMPI DUP3 SWAP1 SUB PUSH1 0x1F AND DUP3 ADD SWAP2 JUMPDEST POP POP POP POP POP DUP2 JUMP JUMPDEST PUSH1 0x20 DUP2 MSTORE PUSH0 DUP3 MLOAD DUP1 PUSH1 0x20 DUP5 ADD MSTORE DUP1 PUSH1 0x20 DUP6 ADD PUSH1 0x40 DUP6 ADD MCOPY PUSH0 PUSH1 0x40 DUP3 DUP6 ADD ADD MSTORE PUSH1 0x40 PUSH1 0x1F NOT PUSH1 0x1F DUP4 ADD AND DUP5 ADD ADD SWAP2 POP POP SWAP3 SWAP2 POP POP JUMP JUMPDEST PUSH1 0x1 DUP2 DUP2 SHR SWAP1 DUP3 AND DUP1 PUSH2 0x141 JUMPI PUSH1 0x7F DUP3 AND SWAP2 POP JUMPDEST PUSH1 0x20 DUP3 LT DUP2 SUB PUSH2 0x15F JUMPI PUSH4 0x4E487B71 PUSH1 0xE0 SHL PUSH0 MSTORE PUSH1 0x22 PUSH1 0x4 MSTORE PUSH1 0x24 PUSH0 REVERT JUMPDEST POP SWAP2 SWAP1 POP JUMP INVALID LOG2 PUSH5 0x6970667358 0x22 SLT KECCAK256 0xB3 CALLDATACOPY TSTORE RETURN DUP14 0xC3 0x4F 0x4F 0xED 0xD7 SUB PUSH2 0x685E 0xD6 PUSH9 0xF9106149616AA06335 0x28 LOG0 0x24 PUSH9 0x7C78F464736F6C6343 STOP ADDMOD NOT STOP CALLER "
				},
				"gasEstimates": {
					"creation": {
						"codeDepositCost": "82200",
						"executionCost": "infinite",
						"totalCost": "infinite"
					},
					"external": {
						"myNum()": "2294",
						"myState()": "infinite"
					}
				},
				"methodIdentifiers": {
					"myNum()": "d4da005a",
					"myState()": "8bf1799f"
				}
			},
			"storageLayout": {
				"storage": [
					{
						"astId": 3,
						"contract": "tests/stateVariables.sol:StateVariable",
						"label": "myState",
						"offset": 0,
						"slot": "0",
						"type": "t_string_storage"
					},
					{
						"astId": 5,
						"contract": "tests/stateVariables.sol:StateVariable",
						"label": "myNum",
						"offset": 0,
						"slot": "1",
						"type": "t_uint256"
					}
				],
				"types": {
					"t_string_storage": {
						"encoding": "bytes",
						"label": "string",
						"numberOfBytes": "32"
					},
					"t_uint256": {
						"encoding": "inplace",
						"label": "uint256",
						"numberOfBytes": "32"
					}
				}
			},
			"userdoc": {
				"kind": "user",
				"methods": {},
				"version": 1
			}
		}
	}
}