{
	"tests/dataTypes.sol": {
		"DataTypes": {
			"abi": [
				{
					"inputs": [],
					"name": "a",
					"outputs": [
						{
							"internalType": "bytes1",
							"name": "",
							"type": "bytes1"
						}
					],
					"stateMutability": "view",
					"type": "function"
				},
				{
					"inputs": [],
					"name": "abu",
					"outputs": [
						{
							"internalType": "string",
							"name": "",
							"type": "string"
						}
					],
					"stateMutability": "view",
					"type": "function"
				},
				{
					"inputs": [],
					"name": "b",
					"outputs": [
						{
							"internalType": "bytes1",
							"name": "",
							"type": "bytes1"
						}
					],
					"stateMutability": "view",
					"type": "function"
				},
				{
					"inputs": [],
					"name": "defaultBool",
					"outputs": [
						{
							"internalType": "bool",
							"name": "",
							"type": "bool"
						}
					],
					"stateMutability": "view",
					"type": "function"
				},
				{
					"inputs": [],
					"name": "defaultInt",
					"outputs": [
						{
							"internalType": "int256",
							"name": "",
							"type": "int256"
						}
					],
					"stateMutability": "view",
					"type": "function"
				},
				{
					"inputs": [],
					"name": "hey",
					"outputs": [
						{
							"internalType": "address",
							"name": "",
							"type": "address"
						}
					],
					"stateMutability": "view",
					"type": "function"
				},
				{
					"inputs": [],
					"name": "number",
					"outputs": [
						{
							"internalType": "uint256",
							"name": "",
							"type": "uint256"
						}
					],
					"stateMutability": "view",
					"type": "function"
				}
			],
			"devdoc": {
				"kind": "dev",
				"methods": {},
				"version": 1
			},
			"evm": {
				"assembly": "    /* \"tests/dataTypes.sol\":59:1447  contract DataTypes {... */\n  mstore(0x40, 0x80)\n  callvalue\n  dup1\n  iszero\n  tag_1\n  jumpi\n  0x00\n  dup1\n  revert\ntag_1:\n  pop\n  dataSize(sub_0)\n  dup1\n  dataOffset(sub_0)\n  0x00\n  codecopy\n  0x00\n  return\nstop\n\nsub_0: assembly {\n        /* \"tests/dataTypes.sol\":59:1447  contract DataTypes {... */\n      mstore(0x40, 0x80)\n      callvalue\n      dup1\n      iszero\n      tag_1\n      jumpi\n      0x00\n      dup1\n      revert\n    tag_1:\n      pop\n      jumpi(tag_2, lt(calldatasize, 0x04))\n      shr(0xe0, calldataload(0x00))\n      dup1\n      0x8381f58a\n      gt\n      tag_10\n      jumpi\n      dup1\n      0x8381f58a\n      eq\n      tag_6\n      jumpi\n      dup1\n      0xbc2727b2\n      eq\n      tag_7\n      jumpi\n      dup1\n      0xbde2b573\n      eq\n      tag_8\n      jumpi\n      dup1\n      0xd668f5b5\n      eq\n      tag_9\n      jumpi\n      0x00\n      dup1\n      revert\n    tag_10:\n      dup1\n      0x0dbe671f\n      eq\n      tag_3\n      jumpi\n      dup1\n      0x4df7e3d0\n      eq\n      tag_4\n      jumpi\n      dup1\n      0x5abe622b\n      eq\n      tag_5\n      jumpi\n    tag_2:\n      0x00\n      dup1\n      revert\n        /* \"tests/dataTypes.sol\":1023:1039  bytes1 public  a */\n    tag_3:\n      sload(0x00)\n      tag_11\n      swap1\n      0xf8\n      shl\n      dup2\n      jump\n    tag_11:\n      mload(0x40)\n      not(sub(shl(0xf8, 0x01), 0x01))\n        /* \"#utility.yul\":176:202   */\n      swap1\n      swap2\n      and\n        /* \"#utility.yul\":158:203   */\n      dup2\n      mstore\n        /* \"#utility.yul\":146:148   */\n      0x20\n        /* \"#utility.yul\":131:149   */\n      add\n        /* \"tests/dataTypes.sol\":1023:1039  bytes1 public  a */\n    tag_13:\n      mload(0x40)\n      dup1\n      swap2\n      sub\n      swap1\n      return\n        /* \"tests/dataTypes.sol\":1045:1060  bytes1 public b */\n    tag_4:\n      sload(0x00)\n      tag_11\n      swap1\n      0x0100\n      swap1\n      div\n      0xf8\n      shl\n      dup2\n      jump\n        /* \"tests/dataTypes.sol\":1341:1362  int public defaultInt */\n    tag_5:\n      tag_18\n      sload(0x02)\n      dup2\n      jump\n    tag_18:\n      mload(0x40)\n        /* \"#utility.yul\":358:383   */\n      swap1\n      dup2\n      mstore\n        /* \"#utility.yul\":346:348   */\n      0x20\n        /* \"#utility.yul\":331:349   */\n      add\n        /* \"tests/dataTypes.sol\":1341:1362  int public defaultInt */\n      tag_13\n        /* \"#utility.yul\":214:389   */\n      jump\n        /* \"tests/dataTypes.sol\":1313:1331  uint public number */\n    tag_6:\n      tag_18\n      sload(0x01)\n      dup2\n      jump\n        /* \"tests/dataTypes.sol\":1423:1440  string public abu */\n    tag_7:\n      tag_26\n      tag_27\n      jump\t// in\n    tag_26:\n      mload(0x40)\n      tag_13\n      swap2\n      swap1\n      tag_29\n      jump\t// in\n        /* \"tests/dataTypes.sol\":1372:1390  address public hey */\n    tag_8:\n      sload(0x03)\n      tag_30\n      swap1\n      sub(shl(0xa0, 0x01), 0x01)\n      and\n      dup2\n      jump\n    tag_30:\n      mload(0x40)\n      sub(shl(0xa0, 0x01), 0x01)\n        /* \"#utility.yul\":1163:1195   */\n      swap1\n      swap2\n      and\n        /* \"#utility.yul\":1145:1196   */\n      dup2\n      mstore\n        /* \"#utility.yul\":1133:1135   */\n      0x20\n        /* \"#utility.yul\":1118:1136   */\n      add\n        /* \"tests/dataTypes.sol\":1372:1390  address public hey */\n      tag_13\n        /* \"#utility.yul\":999:1202   */\n      jump\n        /* \"tests/dataTypes.sol\":1275:1298  bool public defaultBool */\n    tag_9:\n      sload(0x00)\n      tag_34\n      swap1\n      0x010000\n      swap1\n      div\n      0xff\n      and\n      dup2\n      jump\n    tag_34:\n      mload(0x40)\n        /* \"#utility.yul\":1372:1386   */\n      swap1\n      iszero\n        /* \"#utility.yul\":1365:1387   */\n      iszero\n        /* \"#utility.yul\":1347:1388   */\n      dup2\n      mstore\n        /* \"#utility.yul\":1335:1337   */\n      0x20\n        /* \"#utility.yul\":1320:1338   */\n      add\n        /* \"tests/dataTypes.sol\":1275:1298  bool public defaultBool */\n      tag_13\n        /* \"#utility.yul\":1207:1394   */\n      jump\n        /* \"tests/dataTypes.sol\":1423:1440  string public abu */\n    tag_27:\n      0x04\n      dup1\n      sload\n      tag_38\n      swap1\n      tag_39\n      jump\t// in\n    tag_38:\n      dup1\n      0x1f\n      add\n      0x20\n      dup1\n      swap2\n      div\n      mul\n      0x20\n      add\n      mload(0x40)\n      swap1\n      dup2\n      add\n      0x40\n      mstore\n      dup1\n      swap3\n      swap2\n      swap1\n      dup2\n      dup2\n      mstore\n      0x20\n      add\n      dup3\n      dup1\n      sload\n      tag_40\n      swap1\n      tag_39\n      jump\t// in\n    tag_40:\n      dup1\n      iszero\n      tag_41\n      jumpi\n      dup1\n      0x1f\n      lt\n      tag_42\n      jumpi\n      0x0100\n      dup1\n      dup4\n      sload\n      div\n      mul\n      dup4\n      mstore\n      swap2\n      0x20\n      add\n      swap2\n      jump(tag_41)\n    tag_42:\n      dup3\n      add\n      swap2\n      swap1\n      0x00\n      mstore\n      keccak256(0x00, 0x20)\n      swap1\n    tag_43:\n      dup2\n      sload\n      dup2\n      mstore\n      swap1\n      0x01\n      add\n      swap1\n      0x20\n      add\n      dup1\n      dup4\n      gt\n      tag_43\n      jumpi\n      dup3\n      swap1\n      sub\n      0x1f\n      and\n      dup3\n      add\n      swap2\n    tag_41:\n      pop\n      pop\n      pop\n      pop\n      pop\n      dup2\n      jump\t// out\n        /* \"#utility.yul\":576:994   */\n    tag_29:\n        /* \"#utility.yul\":725:727   */\n      0x20\n        /* \"#utility.yul\":714:723   */\n      dup2\n        /* \"#utility.yul\":707:728   */\n      mstore\n        /* \"#utility.yul\":688:692   */\n      0x00\n        /* \"#utility.yul\":757:763   */\n      dup3\n        /* \"#utility.yul\":751:764   */\n      mload\n        /* \"#utility.yul\":800:806   */\n      dup1\n        /* \"#utility.yul\":795:797   */\n      0x20\n        /* \"#utility.yul\":784:793   */\n      dup5\n        /* \"#utility.yul\":780:798   */\n      add\n        /* \"#utility.yul\":773:807   */\n      mstore\n        /* \"#utility.yul\":859:865   */\n      dup1\n        /* \"#utility.yul\":854:856   */\n      0x20\n        /* \"#utility.yul\":846:852   */\n      dup6\n        /* \"#utility.yul\":842:857   */\n      add\n        /* \"#utility.yul\":837:839   */\n      0x40\n        /* \"#utility.yul\":826:835   */\n      dup6\n        /* \"#utility.yul\":822:840   */\n      add\n        /* \"#utility.yul\":816:866   */\n      mcopy\n        /* \"#utility.yul\":915:916   */\n      0x00\n        /* \"#utility.yul\":910:912   */\n      0x40\n        /* \"#utility.yul\":901:907   */\n      dup3\n        /* \"#utility.yul\":890:899   */\n      dup6\n        /* \"#utility.yul\":886:908   */\n      add\n        /* \"#utility.yul\":882:913   */\n      add\n        /* \"#utility.yul\":875:917   */\n      mstore\n        /* \"#utility.yul\":985:987   */\n      0x40\n        /* \"#utility.yul\":978:980   */\n      0x1f\n        /* \"#utility.yul\":974:981   */\n      not\n        /* \"#utility.yul\":969:971   */\n      0x1f\n        /* \"#utility.yul\":961:967   */\n      dup4\n        /* \"#utility.yul\":957:972   */\n      add\n        /* \"#utility.yul\":953:982   */\n      and\n        /* \"#utility.yul\":942:951   */\n      dup5\n        /* \"#utility.yul\":938:983   */\n      add\n        /* \"#utility.yul\":934:988   */\n      add\n        /* \"#utility.yul\":926:988   */\n      swap2\n      pop\n      pop\n        /* \"#utility.yul\":576:994   */\n      swap3\n      swap2\n      pop\n      pop\n      jump\t// out\n        /* \"#utility.yul\":1399:1779   */\n    tag_39:\n        /* \"#utility.yul\":1478:1479   */\n      0x01\n        /* \"#utility.yul\":1474:1486   */\n      dup2\n      dup2\n      shr\n      swap1\n        /* \"#utility.yul\":1521:1533   */\n      dup3\n      and\n      dup1\n        /* \"#utility.yul\":1542:1603   */\n      tag_52\n      jumpi\n        /* \"#utility.yul\":1596:1600   */\n      0x7f\n        /* \"#utility.yul\":1588:1594   */\n      dup3\n        /* \"#utility.yul\":1584:1601   */\n      and\n        /* \"#utility.yul\":1574:1601   */\n      swap2\n      pop\n        /* \"#utility.yul\":1542:1603   */\n    tag_52:\n        /* \"#utility.yul\":1649:1651   */\n      0x20\n        /* \"#utility.yul\":1641:1647   */\n      dup3\n        /* \"#utility.yul\":1638:1652   */\n      lt\n        /* \"#utility.yul\":1618:1636   */\n      dup2\n        /* \"#utility.yul\":1615:1653   */\n      sub\n        /* \"#utility.yul\":1612:1773   */\n      tag_53\n      jumpi\n        /* \"#utility.yul\":1695:1705   */\n      0x4e487b71\n        /* \"#utility.yul\":1690:1693   */\n      0xe0\n        /* \"#utility.yul\":1686:1706   */\n      shl\n        /* \"#utility.yul\":1683:1684   */\n      0x00\n        /* \"#utility.yul\":1676:1707   */\n      mstore\n        /* \"#utility.yul\":1730:1734   */\n      0x22\n        /* \"#utility.yul\":1727:1728   */\n      0x04\n        /* \"#utility.yul\":1720:1735   */\n      mstore\n        /* \"#utility.yul\":1758:1762   */\n      0x24\n        /* \"#utility.yul\":1755:1756   */\n      0x00\n        /* \"#utility.yul\":1748:1763   */\n      revert\n        /* \"#utility.yul\":1612:1773   */\n    tag_53:\n      pop\n        /* \"#utility.yul\":1399:1779   */\n      swap2\n      swap1\n      pop\n      jump\t// out\n\n    auxdata: 0xa26469706673582212202f242269a1dd1d2e5ca8dcb764a0bcfdddbfad7e085c92ac5acd37edfb1dcdbb64736f6c63430008190033\n}\n",
				"bytecode": {
					"linkReferences": {},
					"object": "6080604052348015600e575f80fd5b5061026a8061001c5f395ff3fe608060405234801561000f575f80fd5b506004361061007a575f3560e01c80638381f58a116100585780638381f58a146100d0578063bc2727b2146100d9578063bde2b573146100ee578063d668f5b514610119575f80fd5b80630dbe671f1461007e5780634df7e3d0146100a85780635abe622b146100b9575b5f80fd5b5f5461008a9060f81b81565b6040516001600160f81b031990911681526020015b60405180910390f35b5f5461008a90610100900460f81b81565b6100c260025481565b60405190815260200161009f565b6100c260015481565b6100e161013b565b60405161009f91906101c7565b600354610101906001600160a01b031681565b6040516001600160a01b03909116815260200161009f565b5f5461012b9062010000900460ff1681565b604051901515815260200161009f565b60048054610148906101fc565b80601f0160208091040260200160405190810160405280929190818152602001828054610174906101fc565b80156101bf5780601f10610196576101008083540402835291602001916101bf565b820191905f5260205f20905b8154815290600101906020018083116101a257829003601f168201915b505050505081565b602081525f82518060208401528060208501604085015e5f604082850101526040601f19601f83011684010191505092915050565b600181811c9082168061021057607f821691505b60208210810361022e57634e487b7160e01b5f52602260045260245ffd5b5091905056fea26469706673582212202f242269a1dd1d2e5ca8dcb764a0bcfdddbfad7e085c92ac5acd37edfb1dcdbb64736f6c63430008190033",
					"opcodes": "PUSH1 0x80 PUSH1 0x40 MSTORE CALLVALUE DUP1 ISZERO PUSH1 0xE JUMPI PUSH0 DUP1 REVERT JUMPDEST POP PUSH2 0x26A DUP1 PUSH2 0x1C PUSH0 CODECOPY PUSH0 RETURN INVALID PUSH1 0x80 PUSH1 0x40 MSTORE CALLVALUE DUP1 ISZERO PUSH2 0xF JUMPI PUSH0 DUP1 REVERT JUMPDEST POP PUSH1 0x4 CALLDATASIZE LT PUSH2 0x7A JUMPI PUSH0 CALLDATALOAD PUSH1 0xE0 SHR DUP1 PUSH4 0x8381F58A GT PUSH2 0x58 JUMPI DUP1 PUSH4 0x8381F58A EQ PUSH2 0xD0 JUMPI DUP1 PUSH4 0xBC2727B2 EQ PUSH2 0xD9 JUMPI DUP1 PUSH4 0xBDE2B573 EQ PUSH2 0xEE JUMPI DUP1 PUSH4 0xD668F5B5 EQ PUSH2 0x119 JUMPI PUSH0 DUP1 REVERT JUMPDEST DUP1 PUSH4 0xDBE671F EQ PUSH2 0x7E JUMPI DUP1 PUSH4 0x4DF7E3D0 EQ PUSH2 0xA8 JUMPI DUP1 PUSH4 0x5ABE622B EQ PUSH2 0xB9 JUMPI JUMPDEST PUSH0 DUP1 REVERT JUMPDEST PUSH0 SLOAD PUSH2 0x8A SWAP1 PUSH1 0xF8 SHL DUP2 JUMP JUMPDEST PUSH1 0x40 MLOAD PUSH1 0x1 PUSH1 0x1 PUSH1 0xF8 SHL SUB NOT SWAP1 SWAP2 AND DUP2 MSTORE PUSH1 0x20 ADD JUMPDEST PUSH1 0x40 MLOAD DUP1 SWAP2 SUB SWAP1 RETURN JUMPDEST PUSH0 SLOAD PUSH2 0x8A SWAP1 PUSH2 0x100 SWAP1 DIV PUSH1 0xF8 SHL DUP2 JUMP JUMPDEST PUSH2 0xC2 PUSH1 0x2 SLOAD DUP2 JUMP JUMPDEST PUSH1 0x40 MLOAD SWAP1 DUP2 MSTORE PUSH1 0x20 ADD PUSH2 0x9F JUMP JUMPDEST PUSH2 0xC2 PUSH1 0x1 SLOAD DUP2 JUMP JUMPDEST PUSH2 0xE1 PUSH2 0x13B JUMP JUMPDEST PUSH1 0x40 MLOAD PUSH2 0x9F SWAP2 SWAP1 PUSH2 0x1C7 JUMP JUMPDEST PUSH1 0x3 SLOAD PUSH2 0x101 SWAP1 PUSH1 0x1 PUSH1 0x1 PUSH1 0xA0 SHL SUB AND DUP2 JUMP JUMPDEST PUSH1 0x40 MLOAD PUSH1 0x1 PUSH1 0x1 PUSH1 0xA0 SHL SUB SWAP1 SWAP2 AND DUP2 MSTORE PUSH1 0x20 ADD PUSH2 0x9F JUMP JUMPDEST PUSH0 SLOAD PUSH2 0x12B SWAP1 PUSH3 0x10000 SWAP1 DIV PUSH1 0xFF AND DUP2 JUMP JUMPDEST PUSH1 0x40 MLOAD SWAP1 ISZERO ISZERO DUP2 MSTORE PUSH1 0x20 ADD PUSH2 0x9F JUMP JUMPDEST PUSH1 0x4 DUP1 SLOAD PUSH2 0x148 SWAP1 PUSH2 0x1FC JUMP JUMPDEST DUP1 PUSH1 0x1F ADD PUSH1 0x20 DUP1 SWAP2 DIV MUL PUSH1 0x20 ADD PUSH1 0x40 MLOAD SWAP1 DUP2 ADD PUSH1 0x40 MSTORE DUP1 SWAP3 SWAP2 SWAP1 DUP2 DUP2 MSTORE PUSH1 0x20 ADD DUP3 DUP1 SLOAD PUSH2 0x174 SWAP1 PUSH2 0x1FC JUMP JUMPDEST DUP1 ISZERO PUSH2 0x1BF JUMPI DUP1 PUSH1 0x1F LT PUSH2 0x196 JUMPI PUSH2 0x100 DUP1 DUP4 SLOAD DIV MUL DUP4 MSTORE SWAP2 PUSH1 0x20 ADD SWAP2 PUSH2 0x1BF JUMP JUMPDEST DUP3 ADD SWAP2 SWAP1 PUSH0 MSTORE PUSH1 0x20 PUSH0 KECCAK256 SWAP1 JUMPDEST DUP2 SLOAD DUP2 MSTORE SWAP1 PUSH1 0x1 ADD SWAP1 PUSH1 0x20 ADD DUP1 DUP4 GT PUSH2 0x1A2 JUMPI DUP3 SWAP1 SUB PUSH1 0x1F AND DUP3 ADD SWAP2 JUMPDEST POP POP POP POP POP DUP2 JUMP JUMPDEST PUSH1 0x20 DUP2 MSTORE PUSH0 DUP3 MLOAD DUP1 PUSH1 0x20 DUP5 ADD MSTORE DUP1 PUSH1 0x20 DUP6 ADD PUSH1 0x40 DUP6 ADD MCOPY PUSH0 PUSH1 0x40 DUP3 DUP6 ADD ADD MSTORE PUSH1 0x40 PUSH1 0x1F NOT PUSH1 0x1F DUP4 ADD AND DUP5 ADD ADD SWAP2 POP POP SWAP3 SWAP2 POP POP JUMP JUMPDEST PUSH1 0x1 DUP2 DUP2 SHR SWAP1 DUP3 AND DUP1 PUSH2 0x210 JUMPI PUSH1 0x7F DUP3 AND SWAP2 POP JUMPDEST PUSH1 0x20 DUP3 LT DUP2 SUB PUSH2 0x22E JUMPI PUSH4 0x4E487B71 PUSH1 0xE0 SHL PUSH0 MSTORE PUSH1 0x22 PUSH1 0x4 MSTORE PUSH1 0x24 PUSH0 REVERT JUMPDEST POP SWAP2 SWAP1 POP JUMP INVALID LOG2 PUSH5 0x6970667358 0x22 SLT KECCAK256 0x2F 0x24 0x22 PUSH10 0xA1DD1D2E5CA8DCB764A0 0xBC REVERT 0xDD 0xBF 0xAD PUSH31 0x85C92AC5ACD37EDFB1DCDBB64736F6C634300081900330000000000000000 "
				},
				"gasEstimates": {
					"creation": {
						"codeDepositCost": "123600",
						"executionCost": "169",
						"totalCost": "123769"
					},
					"external": {
						"a()": "2316",
						"abu()": "infinite",
						"b()": "2349",
						"defaultBool()": "2385",
						"defaultInt()": "2339",
						"hey()": "2380",
						"number()": "2294"
					}
				},
				"methodIdentifiers": {
					"a()": "0dbe671f",
					"abu()": "bc2727b2",
					"b()": "4df7e3d0",
					"defaultBool()": "d668f5b5",
					"defaultInt()": "5abe622b",
					"hey()": "bde2b573",
					"number()": "8381f58a"
				}
			},
			"storageLayout": {
				"storage": [
					{
						"astId": 3,
						"contract": "tests/dataTypes.sol:DataTypes",
						"label": "a",
						"offset": 0,
						"slot": "0",
						"type": "t_bytes1"
					},
					{
						"astId": 5,
						"contract": "tests/dataTypes.sol:DataTypes",
						"label": "b",
						"offset": 1,
						"slot": "0",
						"type": "t_bytes1"
					},
					{
						"astId": 7,
						"contract": "tests/dataTypes.sol:DataTypes",
						"label": "defaultBool",
						"offset": 2,
						"slot": "0",
						"type": "t_bool"
					},
					{
						"astId": 9,
						"contract": "tests/dataTypes.sol:DataTypes",
						"label": "number",
						"offset": 0,
						"slot": "1",
						"type": "t_uint256"
					},
					{
						"astId": 11,
						"contract": "tests/dataTypes.sol:DataTypes",
						"label": "defaultInt",
						"offset": 0,
						"slot": "2",
						"type": "t_int256"
					},
					{
						"astId": 13,
						"contract": "tests/dataTypes.sol:DataTypes",
						"label": "hey",
						"offset": 0,
						"slot": "3",
						"type": "t_address"
					},
					{
						"astId": 15,
						"contract": "tests/dataTypes.sol:DataTypes",
						"label": "abu",
						"offset": 0,
						"slot": "4",
						"type": "t_string_storage"
					}
				],
				"types": {
					"t_address": {
						"encoding": "inplace",
						"label": "address",
						"numberOfBytes": "20"
					},
					"t_bool": {
						"encoding": "inplace",
						"label": "bool",
						"numberOfBytes": "1"
					},
					"t_bytes1": {
						"encoding": "inplace",
						"label": "bytes1",
						"numberOfBytes": "1"
					},
					"t_int256": {
						"encoding": "inplace",
						"label": "int256",
						"numberOfBytes": "32"
					},
					"t_string_storage": {
						"encoding": "bytes",
						"label": "string",
						"numberOfBytes": "32"
					},
					"t_uint256": {
						"encoding": "inplace",
						"label": "uint256",
						"numberOfBytes": "32"
					}
				}
			},
			"userdoc": {
				"kind": "user",
				"methods": {},
				"version": 1
			}
		}
	}
}