{
	"tests/dataTypes.sol": {
		"DataTypes": {
			"abi": [
				{
					"inputs": [],
					"name": "hey",
					"outputs": [
						{
							"internalType": "bool",
							"name": "",
							"type": "bool"
						}
					],
					"stateMutability": "view",
					"type": "function"
				},
				{
					"inputs": [],
					"name": "maxInt",
					"outputs": [
						{
							"internalType": "int256",
							"name": "",
							"type": "int256"
						}
					],
					"stateMutability": "view",
					"type": "function"
				},
				{
					"inputs": [],
					"name": "minInt",
					"outputs": [
						{
							"internalType": "int256",
							"name": "",
							"type": "int256"
						}
					],
					"stateMutability": "view",
					"type": "function"
				},
				{
					"inputs": [],
					"name": "no",
					"outputs": [
						{
							"internalType": "bool",
							"name": "",
							"type": "bool"
						}
					],
					"stateMutability": "view",
					"type": "function"
				}
			],
			"devdoc": {
				"kind": "dev",
				"methods": {},
				"version": 1
			},
			"evm": {
				"assembly": "    /* \"tests/dataTypes.sol\":59:995  contract DataTypes {... */\n  mstore(0x40, 0x80)\n    /* \"tests/dataTypes.sol\":105:126  bool public no = true */\n  0x00\n  dup1\n  sload\n  not(0xff00)\n  and\n  0x0100\n  or\n  swap1\n  sstore\n  shl(0xff, 0x01)\n    /* \"tests/dataTypes.sol\":122:126  true */\n  0x01\n    /* \"tests/dataTypes.sol\":918:951  int public minInt = type(int).min */\n  sstore\n  sub(shl(0xff, 0x01), 0x01)\n    /* \"tests/dataTypes.sol\":957:990  int public maxInt = type(int).max */\n  0x02\n  sstore\n    /* \"tests/dataTypes.sol\":59:995  contract DataTypes {... */\n  callvalue\n  dup1\n  iszero\n  tag_1\n  jumpi\n  0x00\n  dup1\n  revert\ntag_1:\n  pop\n  dataSize(sub_0)\n  dup1\n  dataOffset(sub_0)\n  0x00\n  codecopy\n  0x00\n  return\nstop\n\nsub_0: assembly {\n        /* \"tests/dataTypes.sol\":59:995  contract DataTypes {... */\n      mstore(0x40, 0x80)\n      callvalue\n      dup1\n      iszero\n      tag_1\n      jumpi\n      0x00\n      dup1\n      revert\n    tag_1:\n      pop\n      jumpi(tag_2, lt(calldatasize, 0x04))\n      shr(0xe0, calldataload(0x00))\n      dup1\n      0x7a4c2571\n      eq\n      tag_3\n      jumpi\n      dup1\n      0x7e4e14cc\n      eq\n      tag_4\n      jumpi\n      dup1\n      0xb6c52ae8\n      eq\n      tag_5\n      jumpi\n      dup1\n      0xbde2b573\n      eq\n      tag_6\n      jumpi\n    tag_2:\n      0x00\n      dup1\n      revert\n        /* \"tests/dataTypes.sol\":957:990  int public maxInt = type(int).max */\n    tag_3:\n      tag_7\n      sload(0x02)\n      dup2\n      jump\n    tag_7:\n      mload(0x40)\n        /* \"#utility.yul\":158:183   */\n      swap1\n      dup2\n      mstore\n        /* \"#utility.yul\":146:148   */\n      0x20\n        /* \"#utility.yul\":131:149   */\n      add\n        /* \"tests/dataTypes.sol\":957:990  int public maxInt = type(int).max */\n    tag_9:\n      mload(0x40)\n      dup1\n      swap2\n      sub\n      swap1\n      return\n        /* \"tests/dataTypes.sol\":918:951  int public minInt = type(int).min */\n    tag_4:\n      tag_7\n      sload(0x01)\n      dup2\n      jump\n        /* \"tests/dataTypes.sol\":105:126  bool public no = true */\n    tag_5:\n      sload(0x00)\n      tag_14\n      swap1\n      0x0100\n      swap1\n      div\n      0xff\n      and\n      dup2\n      jump\n    tag_14:\n      mload(0x40)\n        /* \"#utility.yul\":359:373   */\n      swap1\n      iszero\n        /* \"#utility.yul\":352:374   */\n      iszero\n        /* \"#utility.yul\":334:375   */\n      dup2\n      mstore\n        /* \"#utility.yul\":322:324   */\n      0x20\n        /* \"#utility.yul\":307:325   */\n      add\n        /* \"tests/dataTypes.sol\":105:126  bool public no = true */\n      tag_9\n        /* \"#utility.yul\":194:381   */\n      jump\n        /* \"tests/dataTypes.sol\":84:99  bool public hey */\n    tag_6:\n      sload(0x00)\n      tag_14\n      swap1\n      0xff\n      and\n      dup2\n      jump\n\n    auxdata: 0xa2646970667358221220ba2d13c53ee3081a6669a80a3cff9268f9e0d6571c7d17b5e008e0356583615864736f6c63430008190033\n}\n",
				"bytecode": {
					"linkReferences": {},
					"object": "60806040525f805461ff001916610100179055600160ff1b6001556001600160ff1b03600255348015602f575f80fd5b5060cb8061003c5f395ff3fe6080604052348015600e575f80fd5b50600436106044575f3560e01c80637a4c25711460485780637e4e14cc146063578063b6c52ae814606b578063bde2b57314608a575b5f80fd5b605060025481565b6040519081526020015b60405180910390f35b605060015481565b5f54607b90610100900460ff1681565b6040519015158152602001605a565b5f54607b9060ff168156fea2646970667358221220ba2d13c53ee3081a6669a80a3cff9268f9e0d6571c7d17b5e008e0356583615864736f6c63430008190033",
					"opcodes": "PUSH1 0x80 PUSH1 0x40 MSTORE PUSH0 DUP1 SLOAD PUSH2 0xFF00 NOT AND PUSH2 0x100 OR SWAP1 SSTORE PUSH1 0x1 PUSH1 0xFF SHL PUSH1 0x1 SSTORE PUSH1 0x1 PUSH1 0x1 PUSH1 0xFF SHL SUB PUSH1 0x2 SSTORE CALLVALUE DUP1 ISZERO PUSH1 0x2F JUMPI PUSH0 DUP1 REVERT JUMPDEST POP PUSH1 0xCB DUP1 PUSH2 0x3C PUSH0 CODECOPY PUSH0 RETURN INVALID PUSH1 0x80 PUSH1 0x40 MSTORE CALLVALUE DUP1 ISZERO PUSH1 0xE JUMPI PUSH0 DUP1 REVERT JUMPDEST POP PUSH1 0x4 CALLDATASIZE LT PUSH1 0x44 JUMPI PUSH0 CALLDATALOAD PUSH1 0xE0 SHR DUP1 PUSH4 0x7A4C2571 EQ PUSH1 0x48 JUMPI DUP1 PUSH4 0x7E4E14CC EQ PUSH1 0x63 JUMPI DUP1 PUSH4 0xB6C52AE8 EQ PUSH1 0x6B JUMPI DUP1 PUSH4 0xBDE2B573 EQ PUSH1 0x8A JUMPI JUMPDEST PUSH0 DUP1 REVERT JUMPDEST PUSH1 0x50 PUSH1 0x2 SLOAD DUP2 JUMP JUMPDEST PUSH1 0x40 MLOAD SWAP1 DUP2 MSTORE PUSH1 0x20 ADD JUMPDEST PUSH1 0x40 MLOAD DUP1 SWAP2 SUB SWAP1 RETURN JUMPDEST PUSH1 0x50 PUSH1 0x1 SLOAD DUP2 JUMP JUMPDEST PUSH0 SLOAD PUSH1 0x7B SWAP1 PUSH2 0x100 SWAP1 DIV PUSH1 0xFF AND DUP2 JUMP JUMPDEST PUSH1 0x40 MLOAD SWAP1 ISZERO ISZERO DUP2 MSTORE PUSH1 0x20 ADD PUSH1 0x5A JUMP JUMPDEST PUSH0 SLOAD PUSH1 0x7B SWAP1 PUSH1 0xFF AND DUP2 JUMP INVALID LOG2 PUSH5 0x6970667358 0x22 SLT KECCAK256 0xBA 0x2D SGT 0xC5 RETURNDATACOPY 0xE3 ADDMOD BYTE PUSH7 0x69A80A3CFF9268 0xF9 0xE0 0xD6 JUMPI SHR PUSH30 0x17B5E008E0356583615864736F6C63430008190033000000000000000000 "
				},
				"gasEstimates": {
					"creation": {
						"codeDepositCost": "40600",
						"executionCost": "68544",
						"totalCost": "109144"
					},
					"external": {
						"hey()": "2352",
						"maxInt()": "2261",
						"minInt()": "2283",
						"no()": "2341"
					}
				},
				"methodIdentifiers": {
					"hey()": "bde2b573",
					"maxInt()": "7a4c2571",
					"minInt()": "7e4e14cc",
					"no()": "b6c52ae8"
				}
			},
			"storageLayout": {
				"storage": [
					{
						"astId": 3,
						"contract": "tests/dataTypes.sol:DataTypes",
						"label": "hey",
						"offset": 0,
						"slot": "0",
						"type": "t_bool"
					},
					{
						"astId": 6,
						"contract": "tests/dataTypes.sol:DataTypes",
						"label": "no",
						"offset": 1,
						"slot": "0",
						"type": "t_bool"
					},
					{
						"astId": 13,
						"contract": "tests/dataTypes.sol:DataTypes",
						"label": "minInt",
						"offset": 0,
						"slot": "1",
						"type": "t_int256"
					},
					{
						"astId": 20,
						"contract": "tests/dataTypes.sol:DataTypes",
						"label": "maxInt",
						"offset": 0,
						"slot": "2",
						"type": "t_int256"
					}
				],
				"types": {
					"t_bool": {
						"encoding": "inplace",
						"label": "bool",
						"numberOfBytes": "1"
					},
					"t_int256": {
						"encoding": "inplace",
						"label": "int256",
						"numberOfBytes": "32"
					}
				}
			},
			"userdoc": {
				"kind": "user",
				"methods": {},
				"version": 1
			}
		}
	}
}