{
	"tests/dataTypes.sol": {
		"DataTypes": {
			"abi": [
				{
					"inputs": [],
					"name": "hey",
					"outputs": [
						{
							"internalType": "bool",
							"name": "",
							"type": "bool"
						}
					],
					"stateMutability": "view",
					"type": "function"
				},
				{
					"inputs": [],
					"name": "no",
					"outputs": [
						{
							"internalType": "bool",
							"name": "",
							"type": "bool"
						}
					],
					"stateMutability": "view",
					"type": "function"
				},
				{
					"inputs": [],
					"name": "u",
					"outputs": [
						{
							"internalType": "uint256",
							"name": "",
							"type": "uint256"
						}
					],
					"stateMutability": "view",
					"type": "function"
				},
				{
					"inputs": [],
					"name": "u256",
					"outputs": [
						{
							"internalType": "uint256",
							"name": "",
							"type": "uint256"
						}
					],
					"stateMutability": "view",
					"type": "function"
				},
				{
					"inputs": [],
					"name": "u8",
					"outputs": [
						{
							"internalType": "uint8",
							"name": "",
							"type": "uint8"
						}
					],
					"stateMutability": "view",
					"type": "function"
				}
			],
			"devdoc": {
				"kind": "dev",
				"methods": {},
				"version": 1
			},
			"evm": {
				"assembly": "    /* \"tests/dataTypes.sol\":59:527  contract DataTypes {... */\n  mstore(0x40, 0x80)\n    /* \"tests/dataTypes.sol\":105:126  bool public no = true */\n  0x00\n  dup1\n  sload\n  not(0xffff00)\n    /* \"tests/dataTypes.sol\":395:414  uint8 public u8 = 1 */\n  and\n  0x010100\n  or\n  swap1\n  sstore\n    /* \"tests/dataTypes.sol\":439:442  456 */\n  0x01c8\n  0x01\n    /* \"tests/dataTypes.sol\":420:442  uint public u256 = 456 */\n  sstore\n    /* \"tests/dataTypes.sol\":464:467  123 */\n  0x7b\n    /* \"tests/dataTypes.sol\":395:414  uint8 public u8 = 1 */\n  0x02\n    /* \"tests/dataTypes.sol\":448:467  uint public u = 123 */\n  sstore\n    /* \"tests/dataTypes.sol\":59:527  contract DataTypes {... */\n  callvalue\n  dup1\n  iszero\n  tag_1\n  jumpi\n  0x00\n  dup1\n  revert\ntag_1:\n  pop\n  dataSize(sub_0)\n  dup1\n  dataOffset(sub_0)\n  0x00\n  codecopy\n  0x00\n  return\nstop\n\nsub_0: assembly {\n        /* \"tests/dataTypes.sol\":59:527  contract DataTypes {... */\n      mstore(0x40, 0x80)\n      callvalue\n      dup1\n      iszero\n      tag_1\n      jumpi\n      0x00\n      dup1\n      revert\n    tag_1:\n      pop\n      jumpi(tag_2, lt(calldatasize, 0x04))\n      shr(0xe0, calldataload(0x00))\n      dup1\n      0x459b1acf\n      eq\n      tag_3\n      jumpi\n      dup1\n      0xab3a58a3\n      eq\n      tag_4\n      jumpi\n      dup1\n      0xb6c52ae8\n      eq\n      tag_5\n      jumpi\n      dup1\n      0xbde2b573\n      eq\n      tag_6\n      jumpi\n      dup1\n      0xc6a898c5\n      eq\n      tag_7\n      jumpi\n    tag_2:\n      0x00\n      dup1\n      revert\n        /* \"tests/dataTypes.sol\":420:442  uint public u256 = 456 */\n    tag_3:\n      tag_8\n      sload(0x01)\n      dup2\n      jump\n    tag_8:\n      mload(0x40)\n        /* \"#utility.yul\":160:185   */\n      swap1\n      dup2\n      mstore\n        /* \"#utility.yul\":148:150   */\n      0x20\n        /* \"#utility.yul\":133:151   */\n      add\n        /* \"tests/dataTypes.sol\":420:442  uint public u256 = 456 */\n    tag_10:\n      mload(0x40)\n      dup1\n      swap2\n      sub\n      swap1\n      return\n        /* \"tests/dataTypes.sol\":395:414  uint8 public u8 = 1 */\n    tag_4:\n      sload(0x00)\n      tag_12\n      swap1\n      0x010000\n      swap1\n      div\n      0xff\n      and\n      dup2\n      jump\n    tag_12:\n      mload(0x40)\n        /* \"#utility.yul\":368:372   */\n      0xff\n        /* \"#utility.yul\":356:373   */\n      swap1\n      swap2\n      and\n        /* \"#utility.yul\":338:374   */\n      dup2\n      mstore\n        /* \"#utility.yul\":326:328   */\n      0x20\n        /* \"#utility.yul\":311:329   */\n      add\n        /* \"tests/dataTypes.sol\":395:414  uint8 public u8 = 1 */\n      tag_10\n        /* \"#utility.yul\":196:380   */\n      jump\n        /* \"tests/dataTypes.sol\":105:126  bool public no = true */\n    tag_5:\n      sload(0x00)\n      tag_16\n      swap1\n      0x0100\n      swap1\n      div\n      0xff\n      and\n      dup2\n      jump\n    tag_16:\n      mload(0x40)\n        /* \"#utility.yul\":550:564   */\n      swap1\n      iszero\n        /* \"#utility.yul\":543:565   */\n      iszero\n        /* \"#utility.yul\":525:566   */\n      dup2\n      mstore\n        /* \"#utility.yul\":513:515   */\n      0x20\n        /* \"#utility.yul\":498:516   */\n      add\n        /* \"tests/dataTypes.sol\":105:126  bool public no = true */\n      tag_10\n        /* \"#utility.yul\":385:572   */\n      jump\n        /* \"tests/dataTypes.sol\":84:99  bool public hey */\n    tag_6:\n      sload(0x00)\n      tag_16\n      swap1\n      0xff\n      and\n      dup2\n      jump\n        /* \"tests/dataTypes.sol\":448:467  uint public u = 123 */\n    tag_7:\n      tag_8\n      sload(0x02)\n      dup2\n      jump\n\n    auxdata: 0xa26469706673582212208c6af7aeddbedfbe8430e55e3df2b4b2f7f6e78ef7e20e833881adad416dacc264736f6c63430008190033\n}\n",
				"bytecode": {
					"linkReferences": {},
					"object": "60806040525f805462ffff001916620101001790556101c8600155607b6002553480156029575f80fd5b5060f7806100365f395ff3fe6080604052348015600e575f80fd5b5060043610604e575f3560e01c8063459b1acf146052578063ab3a58a314606d578063b6c52ae814608f578063bde2b5731460ae578063c6a898c51460b9575b5f80fd5b605a60015481565b6040519081526020015b60405180910390f35b5f54607e9062010000900460ff1681565b60405160ff90911681526020016064565b5f54609f90610100900460ff1681565b60405190151581526020016064565b5f54609f9060ff1681565b605a6002548156fea26469706673582212208c6af7aeddbedfbe8430e55e3df2b4b2f7f6e78ef7e20e833881adad416dacc264736f6c63430008190033",
					"opcodes": "PUSH1 0x80 PUSH1 0x40 MSTORE PUSH0 DUP1 SLOAD PUSH3 0xFFFF00 NOT AND PUSH3 0x10100 OR SWAP1 SSTORE PUSH2 0x1C8 PUSH1 0x1 SSTORE PUSH1 0x7B PUSH1 0x2 SSTORE CALLVALUE DUP1 ISZERO PUSH1 0x29 JUMPI PUSH0 DUP1 REVERT JUMPDEST POP PUSH1 0xF7 DUP1 PUSH2 0x36 PUSH0 CODECOPY PUSH0 RETURN INVALID PUSH1 0x80 PUSH1 0x40 MSTORE CALLVALUE DUP1 ISZERO PUSH1 0xE JUMPI PUSH0 DUP1 REVERT JUMPDEST POP PUSH1 0x4 CALLDATASIZE LT PUSH1 0x4E JUMPI PUSH0 CALLDATALOAD PUSH1 0xE0 SHR DUP1 PUSH4 0x459B1ACF EQ PUSH1 0x52 JUMPI DUP1 PUSH4 0xAB3A58A3 EQ PUSH1 0x6D JUMPI DUP1 PUSH4 0xB6C52AE8 EQ PUSH1 0x8F JUMPI DUP1 PUSH4 0xBDE2B573 EQ PUSH1 0xAE JUMPI DUP1 PUSH4 0xC6A898C5 EQ PUSH1 0xB9 JUMPI JUMPDEST PUSH0 DUP1 REVERT JUMPDEST PUSH1 0x5A PUSH1 0x1 SLOAD DUP2 JUMP JUMPDEST PUSH1 0x40 MLOAD SWAP1 DUP2 MSTORE PUSH1 0x20 ADD JUMPDEST PUSH1 0x40 MLOAD DUP1 SWAP2 SUB SWAP1 RETURN JUMPDEST PUSH0 SLOAD PUSH1 0x7E SWAP1 PUSH3 0x10000 SWAP1 DIV PUSH1 0xFF AND DUP2 JUMP JUMPDEST PUSH1 0x40 MLOAD PUSH1 0xFF SWAP1 SWAP2 AND DUP2 MSTORE PUSH1 0x20 ADD PUSH1 0x64 JUMP JUMPDEST PUSH0 SLOAD PUSH1 0x9F SWAP1 PUSH2 0x100 SWAP1 DIV PUSH1 0xFF AND DUP2 JUMP JUMPDEST PUSH1 0x40 MLOAD SWAP1 ISZERO ISZERO DUP2 MSTORE PUSH1 0x20 ADD PUSH1 0x64 JUMP JUMPDEST PUSH0 SLOAD PUSH1 0x9F SWAP1 PUSH1 0xFF AND DUP2 JUMP JUMPDEST PUSH1 0x5A PUSH1 0x2 SLOAD DUP2 JUMP INVALID LOG2 PUSH5 0x6970667358 0x22 SLT KECCAK256 DUP13 PUSH11 0xF7AEDDBEDFBE8430E55E3D CALLCODE 0xB4 0xB2 0xF7 0xF6 0xE7 DUP15 0xF7 0xE2 0xE DUP4 CODESIZE DUP2 0xAD 0xAD COINBASE PUSH14 0xACC264736F6C6343000819003300 "
				},
				"gasEstimates": {
					"creation": {
						"codeDepositCost": "49400",
						"executionCost": "68532",
						"totalCost": "117932"
					},
					"external": {
						"hey()": "2352",
						"no()": "2341",
						"u()": "2349",
						"u256()": "2261",
						"u8()": "2322"
					}
				},
				"methodIdentifiers": {
					"hey()": "bde2b573",
					"no()": "b6c52ae8",
					"u()": "c6a898c5",
					"u256()": "459b1acf",
					"u8()": "ab3a58a3"
				}
			},
			"storageLayout": {
				"storage": [
					{
						"astId": 3,
						"contract": "tests/dataTypes.sol:DataTypes",
						"label": "hey",
						"offset": 0,
						"slot": "0",
						"type": "t_bool"
					},
					{
						"astId": 6,
						"contract": "tests/dataTypes.sol:DataTypes",
						"label": "no",
						"offset": 1,
						"slot": "0",
						"type": "t_bool"
					},
					{
						"astId": 9,
						"contract": "tests/dataTypes.sol:DataTypes",
						"label": "u8",
						"offset": 2,
						"slot": "0",
						"type": "t_uint8"
					},
					{
						"astId": 12,
						"contract": "tests/dataTypes.sol:DataTypes",
						"label": "u256",
						"offset": 0,
						"slot": "1",
						"type": "t_uint256"
					},
					{
						"astId": 15,
						"contract": "tests/dataTypes.sol:DataTypes",
						"label": "u",
						"offset": 0,
						"slot": "2",
						"type": "t_uint256"
					}
				],
				"types": {
					"t_bool": {
						"encoding": "inplace",
						"label": "bool",
						"numberOfBytes": "1"
					},
					"t_uint256": {
						"encoding": "inplace",
						"label": "uint256",
						"numberOfBytes": "32"
					},
					"t_uint8": {
						"encoding": "inplace",
						"label": "uint8",
						"numberOfBytes": "1"
					}
				}
			},
			"userdoc": {
				"kind": "user",
				"methods": {},
				"version": 1
			}
		}
	}
}