{
	"tests/Smallpro.sol": {
		"PracticeesterdayClass": {
			"abi": [
				{
					"inputs": [],
					"name": "IncreaseNFT",
					"outputs": [],
					"stateMutability": "nonpayable",
					"type": "function"
				},
				{
					"inputs": [],
					"name": "NFTCounter",
					"outputs": [
						{
							"internalType": "uint256",
							"name": "",
							"type": "uint256"
						}
					],
					"stateMutability": "view",
					"type": "function"
				},
				{
					"inputs": [],
					"name": "ToAllUsSeeTheTotalNFT",
					"outputs": [
						{
							"internalType": "uint256",
							"name": "",
							"type": "uint256"
						}
					],
					"stateMutability": "view",
					"type": "function"
				},
				{
					"inputs": [],
					"name": "decrement",
					"outputs": [],
					"stateMutability": "nonpayable",
					"type": "function"
				}
			],
			"devdoc": {
				"kind": "dev",
				"methods": {},
				"version": 1
			},
			"evm": {
				"assembly": "    /* \"tests/Smallpro.sol\":62:438  contract PracticeesterdayClass {... */\n  mstore(0x40, 0x80)\n  callvalue\n  dup1\n  iszero\n  tag_1\n  jumpi\n  0x00\n  dup1\n  revert\ntag_1:\n  pop\n  dataSize(sub_0)\n  dup1\n  dataOffset(sub_0)\n  0x00\n  codecopy\n  0x00\n  return\nstop\n\nsub_0: assembly {\n        /* \"tests/Smallpro.sol\":62:438  contract PracticeesterdayClass {... */\n      mstore(0x40, 0x80)\n      callvalue\n      dup1\n      iszero\n      tag_1\n      jumpi\n      0x00\n      dup1\n      revert\n    tag_1:\n      pop\n      jumpi(tag_2, lt(calldatasize, 0x04))\n      shr(0xe0, calldataload(0x00))\n      dup1\n      0x1237d1bc\n      eq\n      tag_3\n      jumpi\n      dup1\n      0x2baeceb7\n      eq\n      tag_4\n      jumpi\n      dup1\n      0x5508d8e1\n      eq\n      tag_5\n      jumpi\n      dup1\n      0x5d6da257\n      eq\n      tag_6\n      jumpi\n    tag_2:\n      0x00\n      dup1\n      revert\n        /* \"tests/Smallpro.sol\":335:435  function ToAllUsSeeTheTotalNFT () public view returns (uint256) {... */\n    tag_3:\n        /* \"tests/Smallpro.sol\":390:397  uint256 */\n      0x00\n        /* \"tests/Smallpro.sol\":417:427  NFTCounter */\n      sload\n        /* \"tests/Smallpro.sol\":335:435  function ToAllUsSeeTheTotalNFT () public view returns (uint256) {... */\n    tag_7:\n      mload(0x40)\n        /* \"#utility.yul\":160:185   */\n      swap1\n      dup2\n      mstore\n        /* \"#utility.yul\":148:150   */\n      0x20\n        /* \"#utility.yul\":133:151   */\n      add\n        /* \"tests/Smallpro.sol\":335:435  function ToAllUsSeeTheTotalNFT () public view returns (uint256) {... */\n      mload(0x40)\n      dup1\n      swap2\n      sub\n      swap1\n      return\n        /* \"tests/Smallpro.sol\":264:327  function decrement () public {... */\n    tag_4:\n      tag_11\n      tag_12\n      jump\t// in\n    tag_11:\n      stop\n        /* \"tests/Smallpro.sol\":100:125  uint256 public NFTCounter */\n    tag_5:\n      tag_7\n      sload(0x00)\n      dup2\n      jump\n        /* \"tests/Smallpro.sol\":164:230  function IncreaseNFT () public  {... */\n    tag_6:\n      tag_11\n      tag_17\n      jump\t// in\n        /* \"tests/Smallpro.sol\":264:327  function decrement () public {... */\n    tag_12:\n        /* \"tests/Smallpro.sol\":318:319  1 */\n      0x01\n        /* \"tests/Smallpro.sol\":304:314  NFTCounter */\n      0x00\n      dup1\n        /* \"tests/Smallpro.sol\":304:319  NFTCounter -= 1 */\n      dup3\n      dup3\n      sload\n      tag_20\n      swap2\n      swap1\n      tag_21\n      jump\t// in\n    tag_20:\n      swap1\n      swap2\n      sstore\n      pop\n      pop\n        /* \"tests/Smallpro.sol\":264:327  function decrement () public {... */\n      jump\t// out\n        /* \"tests/Smallpro.sol\":164:230  function IncreaseNFT () public  {... */\n    tag_17:\n        /* \"tests/Smallpro.sol\":221:222  1 */\n      0x01\n        /* \"tests/Smallpro.sol\":207:217  NFTCounter */\n      0x00\n      dup1\n        /* \"tests/Smallpro.sol\":207:222  NFTCounter += 1 */\n      dup3\n      dup3\n      sload\n      tag_20\n      swap2\n      swap1\n      tag_24\n      jump\t// in\n        /* \"#utility.yul\":196:323   */\n    tag_25:\n        /* \"#utility.yul\":257:267   */\n      0x4e487b71\n        /* \"#utility.yul\":252:255   */\n      0xe0\n        /* \"#utility.yul\":248:268   */\n      shl\n        /* \"#utility.yul\":245:246   */\n      0x00\n        /* \"#utility.yul\":238:269   */\n      mstore\n        /* \"#utility.yul\":288:292   */\n      0x11\n        /* \"#utility.yul\":285:286   */\n      0x04\n        /* \"#utility.yul\":278:293   */\n      mstore\n        /* \"#utility.yul\":312:316   */\n      0x24\n        /* \"#utility.yul\":309:310   */\n      0x00\n        /* \"#utility.yul\":302:317   */\n      revert\n        /* \"#utility.yul\":328:456   */\n    tag_21:\n        /* \"#utility.yul\":395:404   */\n      dup2\n      dup2\n      sub\n        /* \"#utility.yul\":416:427   */\n      dup2\n      dup2\n      gt\n        /* \"#utility.yul\":413:450   */\n      iszero\n      tag_31\n      jumpi\n        /* \"#utility.yul\":430:448   */\n      tag_31\n      tag_25\n      jump\t// in\n    tag_31:\n        /* \"#utility.yul\":328:456   */\n      swap3\n      swap2\n      pop\n      pop\n      jump\t// out\n        /* \"#utility.yul\":461:586   */\n    tag_24:\n        /* \"#utility.yul\":526:535   */\n      dup1\n      dup3\n      add\n        /* \"#utility.yul\":547:557   */\n      dup1\n      dup3\n      gt\n        /* \"#utility.yul\":544:580   */\n      iszero\n      tag_31\n      jumpi\n        /* \"#utility.yul\":560:578   */\n      tag_31\n      tag_25\n      jump\t// in\n\n    auxdata: 0xa2646970667358221220bbed5d2ce146f618aa640c67fa55a060e3056f1103760467f0732c675bfb4b0b64736f6c63430008190033\n}\n",
				"bytecode": {
					"linkReferences": {},
					"object": "6080604052348015600e575f80fd5b506101078061001c5f395ff3fe6080604052348015600e575f80fd5b50600436106044575f3560e01c80631237d1bc1460485780632baeceb714605d5780635508d8e11460655780635d6da25714606c575b5f80fd5b5f545b60405190815260200160405180910390f35b60636072565b005b604b5f5481565b60636088565b60015f808282546081919060ab565b9091555050565b60015f808282546081919060c1565b634e487b7160e01b5f52601160045260245ffd5b8181038181111560bb5760bb6097565b92915050565b8082018082111560bb5760bb609756fea2646970667358221220bbed5d2ce146f618aa640c67fa55a060e3056f1103760467f0732c675bfb4b0b64736f6c63430008190033",
					"opcodes": "PUSH1 0x80 PUSH1 0x40 MSTORE CALLVALUE DUP1 ISZERO PUSH1 0xE JUMPI PUSH0 DUP1 REVERT JUMPDEST POP PUSH2 0x107 DUP1 PUSH2 0x1C PUSH0 CODECOPY PUSH0 RETURN INVALID PUSH1 0x80 PUSH1 0x40 MSTORE CALLVALUE DUP1 ISZERO PUSH1 0xE JUMPI PUSH0 DUP1 REVERT JUMPDEST POP PUSH1 0x4 CALLDATASIZE LT PUSH1 0x44 JUMPI PUSH0 CALLDATALOAD PUSH1 0xE0 SHR DUP1 PUSH4 0x1237D1BC EQ PUSH1 0x48 JUMPI DUP1 PUSH4 0x2BAECEB7 EQ PUSH1 0x5D JUMPI DUP1 PUSH4 0x5508D8E1 EQ PUSH1 0x65 JUMPI DUP1 PUSH4 0x5D6DA257 EQ PUSH1 0x6C JUMPI JUMPDEST PUSH0 DUP1 REVERT JUMPDEST PUSH0 SLOAD JUMPDEST PUSH1 0x40 MLOAD SWAP1 DUP2 MSTORE PUSH1 0x20 ADD PUSH1 0x40 MLOAD DUP1 SWAP2 SUB SWAP1 RETURN JUMPDEST PUSH1 0x63 PUSH1 0x72 JUMP JUMPDEST STOP JUMPDEST PUSH1 0x4B PUSH0 SLOAD DUP2 JUMP JUMPDEST PUSH1 0x63 PUSH1 0x88 JUMP JUMPDEST PUSH1 0x1 PUSH0 DUP1 DUP3 DUP3 SLOAD PUSH1 0x81 SWAP2 SWAP1 PUSH1 0xAB JUMP JUMPDEST SWAP1 SWAP2 SSTORE POP POP JUMP JUMPDEST PUSH1 0x1 PUSH0 DUP1 DUP3 DUP3 SLOAD PUSH1 0x81 SWAP2 SWAP1 PUSH1 0xC1 JUMP JUMPDEST PUSH4 0x4E487B71 PUSH1 0xE0 SHL PUSH0 MSTORE PUSH1 0x11 PUSH1 0x4 MSTORE PUSH1 0x24 PUSH0 REVERT JUMPDEST DUP2 DUP2 SUB DUP2 DUP2 GT ISZERO PUSH1 0xBB JUMPI PUSH1 0xBB PUSH1 0x97 JUMP JUMPDEST SWAP3 SWAP2 POP POP JUMP JUMPDEST DUP1 DUP3 ADD DUP1 DUP3 GT ISZERO PUSH1 0xBB JUMPI PUSH1 0xBB PUSH1 0x97 JUMP INVALID LOG2 PUSH5 0x6970667358 0x22 SLT KECCAK256 0xBB 0xED TSTORE 0x2C 0xE1 CHAINID 0xF6 XOR 0xAA PUSH5 0xC67FA55A0 PUSH1 0xE3 SDIV PUSH16 0x1103760467F0732C675BFB4B0B64736F PUSH13 0x63430008190033000000000000 "
				},
				"gasEstimates": {
					"creation": {
						"codeDepositCost": "52600",
						"executionCost": "103",
						"totalCost": "52703"
					},
					"external": {
						"IncreaseNFT()": "24486",
						"NFTCounter()": "2303",
						"ToAllUsSeeTheTotalNFT()": "2245",
						"decrement()": "24442"
					}
				},
				"methodIdentifiers": {
					"IncreaseNFT()": "5d6da257",
					"NFTCounter()": "5508d8e1",
					"ToAllUsSeeTheTotalNFT()": "1237d1bc",
					"decrement()": "2baeceb7"
				}
			},
			"storageLayout": {
				"storage": [
					{
						"astId": 3,
						"contract": "tests/Smallpro.sol:PracticeesterdayClass",
						"label": "NFTCounter",
						"offset": 0,
						"slot": "0",
						"type": "t_uint256"
					}
				],
				"types": {
					"t_uint256": {
						"encoding": "inplace",
						"label": "uint256",
						"numberOfBytes": "32"
					}
				}
			},
			"userdoc": {
				"kind": "user",
				"methods": {},
				"version": 1
			}
		}
	}
}