{
	"tests/globalVariables.sol": {
		"GlobalVariables": {
			"abi": [
				{
					"inputs": [],
					"stateMutability": "nonpayable",
					"type": "constructor"
				},
				{
					"inputs": [],
					"name": "Firstfour",
					"outputs": [
						{
							"internalType": "bytes4",
							"name": "",
							"type": "bytes4"
						}
					],
					"stateMutability": "view",
					"type": "function"
				},
				{
					"inputs": [],
					"name": "Myblockhash",
					"outputs": [
						{
							"internalType": "uint256",
							"name": "",
							"type": "uint256"
						}
					],
					"stateMutability": "view",
					"type": "function"
				},
				{
					"inputs": [],
					"name": "callData",
					"outputs": [
						{
							"internalType": "bytes",
							"name": "",
							"type": "bytes"
						}
					],
					"stateMutability": "view",
					"type": "function"
				},
				{
					"inputs": [],
					"name": "difficulty",
					"outputs": [
						{
							"internalType": "uint256",
							"name": "",
							"type": "uint256"
						}
					],
					"stateMutability": "view",
					"type": "function"
				},
				{
					"inputs": [],
					"name": "gasLimit",
					"outputs": [
						{
							"internalType": "uint256",
							"name": "",
							"type": "uint256"
						}
					],
					"stateMutability": "view",
					"type": "function"
				},
				{
					"inputs": [],
					"name": "gasprice",
					"outputs": [
						{
							"internalType": "uint256",
							"name": "",
							"type": "uint256"
						}
					],
					"stateMutability": "view",
					"type": "function"
				},
				{
					"inputs": [],
					"name": "nowOn",
					"outputs": [
						{
							"internalType": "uint256",
							"name": "",
							"type": "uint256"
						}
					],
					"stateMutability": "view",
					"type": "function"
				},
				{
					"inputs": [],
					"name": "number",
					"outputs": [
						{
							"internalType": "uint256",
							"name": "",
							"type": "uint256"
						}
					],
					"stateMutability": "view",
					"type": "function"
				},
				{
					"inputs": [],
					"name": "origin",
					"outputs": [
						{
							"internalType": "address",
							"name": "",
							"type": "address"
						}
					],
					"stateMutability": "view",
					"type": "function"
				},
				{
					"inputs": [],
					"name": "owner",
					"outputs": [
						{
							"internalType": "address",
							"name": "",
							"type": "address"
						}
					],
					"stateMutability": "view",
					"type": "function"
				},
				{
					"inputs": [],
					"name": "timestamp",
					"outputs": [
						{
							"internalType": "uint256",
							"name": "",
							"type": "uint256"
						}
					],
					"stateMutability": "view",
					"type": "function"
				},
				{
					"inputs": [],
					"name": "value",
					"outputs": [
						{
							"internalType": "uint256",
							"name": "",
							"type": "uint256"
						}
					],
					"stateMutability": "view",
					"type": "function"
				}
			],
			"devdoc": {
				"kind": "dev",
				"methods": {},
				"version": 1
			},
			"evm": {
				"assembly": "    /* \"tests/globalVariables.sol\":83:640  contract GlobalVariables {... */\n  mstore(0x40, 0x80)\n    /* \"tests/globalVariables.sol\":474:637  constructor() {... */\n  callvalue\n  dup1\n  iszero\n  tag_1\n  jumpi\n  0x00\n  dup1\n  revert\ntag_1:\n  pop\n    /* \"tests/globalVariables.sol\":499:504  owner */\n  0x00\n    /* \"tests/globalVariables.sol\":499:517  owner = msg.sender */\n  dup1\n  sload\n  not(sub(shl(0xa0, 0x01), 0x01))\n  and\n    /* \"tests/globalVariables.sol\":507:517  msg.sender */\n  caller\n    /* \"tests/globalVariables.sol\":499:517  owner = msg.sender */\n  or\n  swap1\n  sstore\n    /* \"tests/globalVariables.sol\":83:640  contract GlobalVariables {... */\n  dataSize(sub_0)\n  dup1\n  dataOffset(sub_0)\n  0x00\n  codecopy\n  0x00\n  return\nstop\n\nsub_0: assembly {\n        /* \"tests/globalVariables.sol\":83:640  contract GlobalVariables {... */\n      mstore(0x40, 0x80)\n      callvalue\n      dup1\n      iszero\n      tag_1\n      jumpi\n      0x00\n      dup1\n      revert\n    tag_1:\n      pop\n      jumpi(tag_2, lt(calldatasize, 0x04))\n      shr(0xe0, calldataload(0x00))\n      dup1\n      0x8381f58a\n      gt\n      tag_15\n      jumpi\n      dup1\n      0x8381f58a\n      eq\n      tag_9\n      jumpi\n      dup1\n      0x8da5cb5b\n      eq\n      tag_10\n      jumpi\n      dup1\n      0x938b5f32\n      eq\n      tag_11\n      jumpi\n      dup1\n      0xb80777ea\n      eq\n      tag_12\n      jumpi\n      dup1\n      0xe976f0bc\n      eq\n      tag_13\n      jumpi\n      dup1\n      0xf68016b7\n      eq\n      tag_14\n      jumpi\n      0x00\n      dup1\n      revert\n    tag_15:\n      dup1\n      0x19cae462\n      eq\n      tag_3\n      jumpi\n      dup1\n      0x22b22ce8\n      eq\n      tag_4\n      jumpi\n      dup1\n      0x3fa4f245\n      eq\n      tag_5\n      jumpi\n      dup1\n      0x4e417a98\n      eq\n      tag_6\n      jumpi\n      dup1\n      0x621a38e5\n      eq\n      tag_7\n      jumpi\n      dup1\n      0x6ec232d3\n      eq\n      tag_8\n      jumpi\n    tag_2:\n      0x00\n      dup1\n      revert\n        /* \"tests/globalVariables.sol\":181:206  uint256 public difficulty */\n    tag_3:\n      tag_16\n      sload(0x02)\n      dup2\n      jump\n    tag_16:\n      mload(0x40)\n        /* \"#utility.yul\":160:185   */\n      swap1\n      dup2\n      mstore\n        /* \"#utility.yul\":148:150   */\n      0x20\n        /* \"#utility.yul\":133:151   */\n      add\n        /* \"tests/globalVariables.sol\":181:206  uint256 public difficulty */\n    tag_18:\n      mload(0x40)\n      dup1\n      swap2\n      sub\n      swap1\n      return\n        /* \"tests/globalVariables.sol\":329:349  uint256 public nowOn */\n    tag_4:\n      tag_16\n      sload(0x07)\n      dup2\n      jump\n        /* \"tests/globalVariables.sol\":302:322  uint256 public value */\n    tag_5:\n      tag_16\n      sload(0x06)\n      dup2\n      jump\n        /* \"tests/globalVariables.sol\":414:435  bytes public callData */\n    tag_6:\n      tag_26\n      tag_27\n      jump\t// in\n    tag_26:\n      mload(0x40)\n      tag_18\n      swap2\n      swap1\n      tag_29\n      jump\t// in\n        /* \"tests/globalVariables.sol\":442:465  bytes4 public Firstfour */\n    tag_7:\n      sload(0x0b)\n      tag_30\n      swap1\n      0xe0\n      shl\n      dup2\n      jump\n    tag_30:\n      mload(0x40)\n      not(sub(shl(0xe0, 0x01), 0x01))\n        /* \"#utility.yul\":779:812   */\n      swap1\n      swap2\n      and\n        /* \"#utility.yul\":761:813   */\n      dup2\n      mstore\n        /* \"#utility.yul\":749:751   */\n      0x20\n        /* \"#utility.yul\":734:752   */\n      add\n        /* \"tests/globalVariables.sol\":442:465  bytes4 public Firstfour */\n      tag_18\n        /* \"#utility.yul\":617:819   */\n      jump\n        /* \"tests/globalVariables.sol\":384:407  uint256 public gasprice */\n    tag_8:\n      tag_16\n      sload(0x09)\n      dup2\n      jump\n        /* \"tests/globalVariables.sol\":243:264  uint256 public number */\n    tag_9:\n      tag_16\n      sload(0x04)\n      dup2\n      jump\n        /* \"tests/globalVariables.sol\":121:141  address public owner */\n    tag_10:\n      sload(0x00)\n      tag_40\n      swap1\n      sub(shl(0xa0, 0x01), 0x01)\n      and\n      dup2\n      jump\n    tag_40:\n      mload(0x40)\n      sub(shl(0xa0, 0x01), 0x01)\n        /* \"#utility.yul\":988:1020   */\n      swap1\n      swap2\n      and\n        /* \"#utility.yul\":970:1021   */\n      dup2\n      mstore\n        /* \"#utility.yul\":958:960   */\n      0x20\n        /* \"#utility.yul\":943:961   */\n      add\n        /* \"tests/globalVariables.sol\":121:141  address public owner */\n      tag_18\n        /* \"#utility.yul\":824:1027   */\n      jump\n        /* \"tests/globalVariables.sol\":356:377  address public origin */\n    tag_11:\n      sload(0x08)\n      tag_40\n      swap1\n      sub(shl(0xa0, 0x01), 0x01)\n      and\n      dup2\n      jump\n        /* \"tests/globalVariables.sol\":271:295  uint256 public timestamp */\n    tag_12:\n      tag_16\n      sload(0x05)\n      dup2\n      jump\n        /* \"tests/globalVariables.sol\":148:174  uint256 public Myblockhash */\n    tag_13:\n      tag_16\n      sload(0x01)\n      dup2\n      jump\n        /* \"tests/globalVariables.sol\":213:236  uint256 public gasLimit */\n    tag_14:\n      tag_16\n      sload(0x03)\n      dup2\n      jump\n        /* \"tests/globalVariables.sol\":414:435  bytes public callData */\n    tag_27:\n      0x0a\n      dup1\n      sload\n      tag_56\n      swap1\n      tag_57\n      jump\t// in\n    tag_56:\n      dup1\n      0x1f\n      add\n      0x20\n      dup1\n      swap2\n      div\n      mul\n      0x20\n      add\n      mload(0x40)\n      swap1\n      dup2\n      add\n      0x40\n      mstore\n      dup1\n      swap3\n      swap2\n      swap1\n      dup2\n      dup2\n      mstore\n      0x20\n      add\n      dup3\n      dup1\n      sload\n      tag_58\n      swap1\n      tag_57\n      jump\t// in\n    tag_58:\n      dup1\n      iszero\n      tag_59\n      jumpi\n      dup1\n      0x1f\n      lt\n      tag_60\n      jumpi\n      0x0100\n      dup1\n      dup4\n      sload\n      div\n      mul\n      dup4\n      mstore\n      swap2\n      0x20\n      add\n      swap2\n      jump(tag_59)\n    tag_60:\n      dup3\n      add\n      swap2\n      swap1\n      0x00\n      mstore\n      keccak256(0x00, 0x20)\n      swap1\n    tag_61:\n      dup2\n      sload\n      dup2\n      mstore\n      swap1\n      0x01\n      add\n      swap1\n      0x20\n      add\n      dup1\n      dup4\n      gt\n      tag_61\n      jumpi\n      dup3\n      swap1\n      sub\n      0x1f\n      and\n      dup3\n      add\n      swap2\n    tag_59:\n      pop\n      pop\n      pop\n      pop\n      pop\n      dup2\n      jump\t// out\n        /* \"#utility.yul\":196:612   */\n    tag_29:\n        /* \"#utility.yul\":343:345   */\n      0x20\n        /* \"#utility.yul\":332:341   */\n      dup2\n        /* \"#utility.yul\":325:346   */\n      mstore\n        /* \"#utility.yul\":306:310   */\n      0x00\n        /* \"#utility.yul\":375:381   */\n      dup3\n        /* \"#utility.yul\":369:382   */\n      mload\n        /* \"#utility.yul\":418:424   */\n      dup1\n        /* \"#utility.yul\":413:415   */\n      0x20\n        /* \"#utility.yul\":402:411   */\n      dup5\n        /* \"#utility.yul\":398:416   */\n      add\n        /* \"#utility.yul\":391:425   */\n      mstore\n        /* \"#utility.yul\":477:483   */\n      dup1\n        /* \"#utility.yul\":472:474   */\n      0x20\n        /* \"#utility.yul\":464:470   */\n      dup6\n        /* \"#utility.yul\":460:475   */\n      add\n        /* \"#utility.yul\":455:457   */\n      0x40\n        /* \"#utility.yul\":444:453   */\n      dup6\n        /* \"#utility.yul\":440:458   */\n      add\n        /* \"#utility.yul\":434:484   */\n      mcopy\n        /* \"#utility.yul\":533:534   */\n      0x00\n        /* \"#utility.yul\":528:530   */\n      0x40\n        /* \"#utility.yul\":519:525   */\n      dup3\n        /* \"#utility.yul\":508:517   */\n      dup6\n        /* \"#utility.yul\":504:526   */\n      add\n        /* \"#utility.yul\":500:531   */\n      add\n        /* \"#utility.yul\":493:535   */\n      mstore\n        /* \"#utility.yul\":603:605   */\n      0x40\n        /* \"#utility.yul\":596:598   */\n      0x1f\n        /* \"#utility.yul\":592:599   */\n      not\n        /* \"#utility.yul\":587:589   */\n      0x1f\n        /* \"#utility.yul\":579:585   */\n      dup4\n        /* \"#utility.yul\":575:590   */\n      add\n        /* \"#utility.yul\":571:600   */\n      and\n        /* \"#utility.yul\":560:569   */\n      dup5\n        /* \"#utility.yul\":556:601   */\n      add\n        /* \"#utility.yul\":552:606   */\n      add\n        /* \"#utility.yul\":544:606   */\n      swap2\n      pop\n      pop\n        /* \"#utility.yul\":196:612   */\n      swap3\n      swap2\n      pop\n      pop\n      jump\t// out\n        /* \"#utility.yul\":1032:1412   */\n    tag_57:\n        /* \"#utility.yul\":1111:1112   */\n      0x01\n        /* \"#utility.yul\":1107:1119   */\n      dup2\n      dup2\n      shr\n      swap1\n        /* \"#utility.yul\":1154:1166   */\n      dup3\n      and\n      dup1\n        /* \"#utility.yul\":1175:1236   */\n      tag_68\n      jumpi\n        /* \"#utility.yul\":1229:1233   */\n      0x7f\n        /* \"#utility.yul\":1221:1227   */\n      dup3\n        /* \"#utility.yul\":1217:1234   */\n      and\n        /* \"#utility.yul\":1207:1234   */\n      swap2\n      pop\n        /* \"#utility.yul\":1175:1236   */\n    tag_68:\n        /* \"#utility.yul\":1282:1284   */\n      0x20\n        /* \"#utility.yul\":1274:1280   */\n      dup3\n        /* \"#utility.yul\":1271:1285   */\n      lt\n        /* \"#utility.yul\":1251:1269   */\n      dup2\n        /* \"#utility.yul\":1248:1286   */\n      sub\n        /* \"#utility.yul\":1245:1406   */\n      tag_69\n      jumpi\n        /* \"#utility.yul\":1328:1338   */\n      0x4e487b71\n        /* \"#utility.yul\":1323:1326   */\n      0xe0\n        /* \"#utility.yul\":1319:1339   */\n      shl\n        /* \"#utility.yul\":1316:1317   */\n      0x00\n        /* \"#utility.yul\":1309:1340   */\n      mstore\n        /* \"#utility.yul\":1363:1367   */\n      0x22\n        /* \"#utility.yul\":1360:1361   */\n      0x04\n        /* \"#utility.yul\":1353:1368   */\n      mstore\n        /* \"#utility.yul\":1391:1395   */\n      0x24\n        /* \"#utility.yul\":1388:1389   */\n      0x00\n        /* \"#utility.yul\":1381:1396   */\n      revert\n        /* \"#utility.yul\":1245:1406   */\n    tag_69:\n      pop\n        /* \"#utility.yul\":1032:1412   */\n      swap2\n      swap1\n      pop\n      jump\t// out\n\n    auxdata: 0xa264697066735822122001eccd385473b6340f70ca05a45ca9a3b3f824d6be8af5dd74a177d868cdca2264736f6c63430008190033\n}\n",
				"bytecode": {
					"linkReferences": {},
					"object": "6080604052348015600e575f80fd5b505f80546001600160a01b031916331790556102b78061002d5f395ff3fe608060405234801561000f575f80fd5b50600436106100b1575f3560e01c80638381f58a1161006e5780638381f58a146101275780638da5cb5b14610130578063938b5f321461015a578063b80777ea1461016d578063e976f0bc14610176578063f68016b71461017f575f80fd5b806319cae462146100b557806322b22ce8146100d15780633fa4f245146100da5780634e417a98146100e3578063621a38e5146100f85780636ec232d31461011e575b5f80fd5b6100be60025481565b6040519081526020015b60405180910390f35b6100be60075481565b6100be60065481565b6100eb610188565b6040516100c89190610214565b600b546101059060e01b81565b6040516001600160e01b031990911681526020016100c8565b6100be60095481565b6100be60045481565b5f54610142906001600160a01b031681565b6040516001600160a01b0390911681526020016100c8565b600854610142906001600160a01b031681565b6100be60055481565b6100be60015481565b6100be60035481565b600a805461019590610249565b80601f01602080910402602001604051908101604052809291908181526020018280546101c190610249565b801561020c5780601f106101e35761010080835404028352916020019161020c565b820191905f5260205f20905b8154815290600101906020018083116101ef57829003601f168201915b505050505081565b602081525f82518060208401528060208501604085015e5f604082850101526040601f19601f83011684010191505092915050565b600181811c9082168061025d57607f821691505b60208210810361027b57634e487b7160e01b5f52602260045260245ffd5b5091905056fea264697066735822122001eccd385473b6340f70ca05a45ca9a3b3f824d6be8af5dd74a177d868cdca2264736f6c63430008190033",
					"opcodes": "PUSH1 0x80 PUSH1 0x40 MSTORE CALLVALUE DUP1 ISZERO PUSH1 0xE JUMPI PUSH0 DUP1 REVERT JUMPDEST POP PUSH0 DUP1 SLOAD PUSH1 0x1 PUSH1 0x1 PUSH1 0xA0 SHL SUB NOT AND CALLER OR SWAP1 SSTORE PUSH2 0x2B7 DUP1 PUSH2 0x2D PUSH0 CODECOPY PUSH0 RETURN INVALID PUSH1 0x80 PUSH1 0x40 MSTORE CALLVALUE DUP1 ISZERO PUSH2 0xF JUMPI PUSH0 DUP1 REVERT JUMPDEST POP PUSH1 0x4 CALLDATASIZE LT PUSH2 0xB1 JUMPI PUSH0 CALLDATALOAD PUSH1 0xE0 SHR DUP1 PUSH4 0x8381F58A GT PUSH2 0x6E JUMPI DUP1 PUSH4 0x8381F58A EQ PUSH2 0x127 JUMPI DUP1 PUSH4 0x8DA5CB5B EQ PUSH2 0x130 JUMPI DUP1 PUSH4 0x938B5F32 EQ PUSH2 0x15A JUMPI DUP1 PUSH4 0xB80777EA EQ PUSH2 0x16D JUMPI DUP1 PUSH4 0xE976F0BC EQ PUSH2 0x176 JUMPI DUP1 PUSH4 0xF68016B7 EQ PUSH2 0x17F JUMPI PUSH0 DUP1 REVERT JUMPDEST DUP1 PUSH4 0x19CAE462 EQ PUSH2 0xB5 JUMPI DUP1 PUSH4 0x22B22CE8 EQ PUSH2 0xD1 JUMPI DUP1 PUSH4 0x3FA4F245 EQ PUSH2 0xDA JUMPI DUP1 PUSH4 0x4E417A98 EQ PUSH2 0xE3 JUMPI DUP1 PUSH4 0x621A38E5 EQ PUSH2 0xF8 JUMPI DUP1 PUSH4 0x6EC232D3 EQ PUSH2 0x11E JUMPI JUMPDEST PUSH0 DUP1 REVERT JUMPDEST PUSH2 0xBE PUSH1 0x2 SLOAD DUP2 JUMP JUMPDEST PUSH1 0x40 MLOAD SWAP1 DUP2 MSTORE PUSH1 0x20 ADD JUMPDEST PUSH1 0x40 MLOAD DUP1 SWAP2 SUB SWAP1 RETURN JUMPDEST PUSH2 0xBE PUSH1 0x7 SLOAD DUP2 JUMP JUMPDEST PUSH2 0xBE PUSH1 0x6 SLOAD DUP2 JUMP JUMPDEST PUSH2 0xEB PUSH2 0x188 JUMP JUMPDEST PUSH1 0x40 MLOAD PUSH2 0xC8 SWAP2 SWAP1 PUSH2 0x214 JUMP JUMPDEST PUSH1 0xB SLOAD PUSH2 0x105 SWAP1 PUSH1 0xE0 SHL DUP2 JUMP JUMPDEST PUSH1 0x40 MLOAD PUSH1 0x1 PUSH1 0x1 PUSH1 0xE0 SHL SUB NOT SWAP1 SWAP2 AND DUP2 MSTORE PUSH1 0x20 ADD PUSH2 0xC8 JUMP JUMPDEST PUSH2 0xBE PUSH1 0x9 SLOAD DUP2 JUMP JUMPDEST PUSH2 0xBE PUSH1 0x4 SLOAD DUP2 JUMP JUMPDEST PUSH0 SLOAD PUSH2 0x142 SWAP1 PUSH1 0x1 PUSH1 0x1 PUSH1 0xA0 SHL SUB AND DUP2 JUMP JUMPDEST PUSH1 0x40 MLOAD PUSH1 0x1 PUSH1 0x1 PUSH1 0xA0 SHL SUB SWAP1 SWAP2 AND DUP2 MSTORE PUSH1 0x20 ADD PUSH2 0xC8 JUMP JUMPDEST PUSH1 0x8 SLOAD PUSH2 0x142 SWAP1 PUSH1 0x1 PUSH1 0x1 PUSH1 0xA0 SHL SUB AND DUP2 JUMP JUMPDEST PUSH2 0xBE PUSH1 0x5 SLOAD DUP2 JUMP JUMPDEST PUSH2 0xBE PUSH1 0x1 SLOAD DUP2 JUMP JUMPDEST PUSH2 0xBE PUSH1 0x3 SLOAD DUP2 JUMP JUMPDEST PUSH1 0xA DUP1 SLOAD PUSH2 0x195 SWAP1 PUSH2 0x249 JUMP JUMPDEST DUP1 PUSH1 0x1F ADD PUSH1 0x20 DUP1 SWAP2 DIV MUL PUSH1 0x20 ADD PUSH1 0x40 MLOAD SWAP1 DUP2 ADD PUSH1 0x40 MSTORE DUP1 SWAP3 SWAP2 SWAP1 DUP2 DUP2 MSTORE PUSH1 0x20 ADD DUP3 DUP1 SLOAD PUSH2 0x1C1 SWAP1 PUSH2 0x249 JUMP JUMPDEST DUP1 ISZERO PUSH2 0x20C JUMPI DUP1 PUSH1 0x1F LT PUSH2 0x1E3 JUMPI PUSH2 0x100 DUP1 DUP4 SLOAD DIV MUL DUP4 MSTORE SWAP2 PUSH1 0x20 ADD SWAP2 PUSH2 0x20C JUMP JUMPDEST DUP3 ADD SWAP2 SWAP1 PUSH0 MSTORE PUSH1 0x20 PUSH0 KECCAK256 SWAP1 JUMPDEST DUP2 SLOAD DUP2 MSTORE SWAP1 PUSH1 0x1 ADD SWAP1 PUSH1 0x20 ADD DUP1 DUP4 GT PUSH2 0x1EF JUMPI DUP3 SWAP1 SUB PUSH1 0x1F AND DUP3 ADD SWAP2 JUMPDEST POP POP POP POP POP DUP2 JUMP JUMPDEST PUSH1 0x20 DUP2 MSTORE PUSH0 DUP3 MLOAD DUP1 PUSH1 0x20 DUP5 ADD MSTORE DUP1 PUSH1 0x20 DUP6 ADD PUSH1 0x40 DUP6 ADD MCOPY PUSH0 PUSH1 0x40 DUP3 DUP6 ADD ADD MSTORE PUSH1 0x40 PUSH1 0x1F NOT PUSH1 0x1F DUP4 ADD AND DUP5 ADD ADD SWAP2 POP POP SWAP3 SWAP2 POP POP JUMP JUMPDEST PUSH1 0x1 DUP2 DUP2 SHR SWAP1 DUP3 AND DUP1 PUSH2 0x25D JUMPI PUSH1 0x7F DUP3 AND SWAP2 POP JUMPDEST PUSH1 0x20 DUP3 LT DUP2 SUB PUSH2 0x27B JUMPI PUSH4 0x4E487B71 PUSH1 0xE0 SHL PUSH0 MSTORE PUSH1 0x22 PUSH1 0x4 MSTORE PUSH1 0x24 PUSH0 REVERT JUMPDEST POP SWAP2 SWAP1 POP JUMP INVALID LOG2 PUSH5 0x6970667358 0x22 SLT KECCAK256 ADD 0xEC 0xCD CODESIZE SLOAD PUSH20 0xB6340F70CA05A45CA9A3B3F824D6BE8AF5DD74A1 PUSH24 0xD868CDCA2264736F6C634300081900330000000000000000 "
				},
				"gasEstimates": {
					"creation": {
						"codeDepositCost": "139000",
						"executionCost": "24415",
						"totalCost": "163415"
					},
					"external": {
						"Firstfour()": "2416",
						"Myblockhash()": "2371",
						"callData()": "infinite",
						"difficulty()": "2284",
						"gasLimit()": "2393",
						"gasprice()": "2394",
						"nowOn()": "2306",
						"number()": "2283",
						"origin()": "2380",
						"owner()": "2357",
						"timestamp()": "2349",
						"value()": "2328"
					}
				},
				"methodIdentifiers": {
					"Firstfour()": "621a38e5",
					"Myblockhash()": "e976f0bc",
					"callData()": "4e417a98",
					"difficulty()": "19cae462",
					"gasLimit()": "f68016b7",
					"gasprice()": "6ec232d3",
					"nowOn()": "22b22ce8",
					"number()": "8381f58a",
					"origin()": "938b5f32",
					"owner()": "8da5cb5b",
					"timestamp()": "b80777ea",
					"value()": "3fa4f245"
				}
			},
			"storageLayout": {
				"storage": [
					{
						"astId": 3,
						"contract": "tests/globalVariables.sol:GlobalVariables",
						"label": "owner",
						"offset": 0,
						"slot": "0",
						"type": "t_address"
					},
					{
						"astId": 5,
						"contract": "tests/globalVariables.sol:GlobalVariables",
						"label": "Myblockhash",
						"offset": 0,
						"slot": "1",
						"type": "t_uint256"
					},
					{
						"astId": 7,
						"contract": "tests/globalVariables.sol:GlobalVariables",
						"label": "difficulty",
						"offset": 0,
						"slot": "2",
						"type": "t_uint256"
					},
					{
						"astId": 9,
						"contract": "tests/globalVariables.sol:GlobalVariables",
						"label": "gasLimit",
						"offset": 0,
						"slot": "3",
						"type": "t_uint256"
					},
					{
						"astId": 11,
						"contract": "tests/globalVariables.sol:GlobalVariables",
						"label": "number",
						"offset": 0,
						"slot": "4",
						"type": "t_uint256"
					},
					{
						"astId": 13,
						"contract": "tests/globalVariables.sol:GlobalVariables",
						"label": "timestamp",
						"offset": 0,
						"slot": "5",
						"type": "t_uint256"
					},
					{
						"astId": 15,
						"contract": "tests/globalVariables.sol:GlobalVariables",
						"label": "value",
						"offset": 0,
						"slot": "6",
						"type": "t_uint256"
					},
					{
						"astId": 17,
						"contract": "tests/globalVariables.sol:GlobalVariables",
						"label": "nowOn",
						"offset": 0,
						"slot": "7",
						"type": "t_uint256"
					},
					{
						"astId": 19,
						"contract": "tests/globalVariables.sol:GlobalVariables",
						"label": "origin",
						"offset": 0,
						"slot": "8",
						"type": "t_address"
					},
					{
						"astId": 21,
						"contract": "tests/globalVariables.sol:GlobalVariables",
						"label": "gasprice",
						"offset": 0,
						"slot": "9",
						"type": "t_uint256"
					},
					{
						"astId": 23,
						"contract": "tests/globalVariables.sol:GlobalVariables",
						"label": "callData",
						"offset": 0,
						"slot": "10",
						"type": "t_bytes_storage"
					},
					{
						"astId": 25,
						"contract": "tests/globalVariables.sol:GlobalVariables",
						"label": "Firstfour",
						"offset": 0,
						"slot": "11",
						"type": "t_bytes4"
					}
				],
				"types": {
					"t_address": {
						"encoding": "inplace",
						"label": "address",
						"numberOfBytes": "20"
					},
					"t_bytes4": {
						"encoding": "inplace",
						"label": "bytes4",
						"numberOfBytes": "4"
					},
					"t_bytes_storage": {
						"encoding": "bytes",
						"label": "bytes",
						"numberOfBytes": "32"
					},
					"t_uint256": {
						"encoding": "inplace",
						"label": "uint256",
						"numberOfBytes": "32"
					}
				}
			},
			"userdoc": {
				"kind": "user",
				"methods": {},
				"version": 1
			}
		}
	}
}