{
	"tests/function.sol": {
		"LearnFunction": {
			"abi": [
				{
					"inputs": [
						{
							"internalType": "uint256",
							"name": "_a",
							"type": "uint256"
						},
						{
							"internalType": "uint256",
							"name": "_b",
							"type": "uint256"
						}
					],
					"name": "get",
					"outputs": [
						{
							"internalType": "uint256",
							"name": "",
							"type": "uint256"
						}
					],
					"stateMutability": "view",
					"type": "function"
				},
				{
					"inputs": [],
					"name": "getInfo",
					"outputs": [
						{
							"internalType": "uint256",
							"name": "",
							"type": "uint256"
						}
					],
					"stateMutability": "view",
					"type": "function"
				},
				{
					"inputs": [
						{
							"internalType": "uint256",
							"name": "_hey",
							"type": "uint256"
						}
					],
					"name": "updateData",
					"outputs": [],
					"stateMutability": "nonpayable",
					"type": "function"
				}
			],
			"devdoc": {
				"kind": "dev",
				"methods": {},
				"version": 1
			},
			"evm": {
				"assembly": "    /* \"tests/function.sol\":60:481  contract LearnFunction {... */\n  mstore(0x40, 0x80)\n  callvalue\n  dup1\n  iszero\n  tag_1\n  jumpi\n  0x00\n  dup1\n  revert\ntag_1:\n  pop\n  dataSize(sub_0)\n  dup1\n  dataOffset(sub_0)\n  0x00\n  codecopy\n  0x00\n  return\nstop\n\nsub_0: assembly {\n        /* \"tests/function.sol\":60:481  contract LearnFunction {... */\n      mstore(0x40, 0x80)\n      callvalue\n      dup1\n      iszero\n      tag_1\n      jumpi\n      0x00\n      dup1\n      revert\n    tag_1:\n      pop\n      jumpi(tag_2, lt(calldatasize, 0x04))\n      shr(0xe0, calldataload(0x00))\n      dup1\n      0x09e96008\n      eq\n      tag_3\n      jumpi\n      dup1\n      0x5a9b0b89\n      eq\n      tag_4\n      jumpi\n      dup1\n      0x669e48aa\n      eq\n      tag_5\n      jumpi\n    tag_2:\n      0x00\n      dup1\n      revert\n        /* \"tests/function.sol\":266:335  function updateData(uint256 _hey) public{... */\n    tag_3:\n      tag_6\n      tag_7\n      calldatasize\n      0x04\n      tag_8\n      jump\t// in\n    tag_7:\n        /* \"tests/function.sol\":317:320  hey */\n      0x00\n        /* \"tests/function.sol\":317:327  hey = _hey */\n      sstore\n        /* \"tests/function.sol\":266:335  function updateData(uint256 _hey) public{... */\n      jump\n    tag_6:\n      stop\n        /* \"tests/function.sol\":181:258  function getInfo() public view returns(uint256) {... */\n    tag_4:\n        /* \"tests/function.sol\":220:227  uint256 */\n      0x00\n        /* \"tests/function.sol\":247:250  hey */\n      sload\n        /* \"tests/function.sol\":181:258  function getInfo() public view returns(uint256) {... */\n    tag_10:\n      mload(0x40)\n        /* \"#utility.yul\":345:370   */\n      swap1\n      dup2\n      mstore\n        /* \"#utility.yul\":333:335   */\n      0x20\n        /* \"#utility.yul\":318:336   */\n      add\n        /* \"tests/function.sol\":181:258  function getInfo() public view returns(uint256) {... */\n      mload(0x40)\n      dup1\n      swap2\n      sub\n      swap1\n      return\n        /* \"tests/function.sol\":343:478  function get(uint256 _a, uint256 _b) public view returns(uint){... */\n    tag_5:\n      tag_10\n      tag_15\n      calldatasize\n      0x04\n      tag_16\n      jump\t// in\n    tag_15:\n        /* \"tests/function.sol\":400:404  uint */\n      0x00\n      dup1\n        /* \"tests/function.sol\":436:443  _a + _b */\n      tag_22\n        /* \"tests/function.sol\":441:443  _b */\n      dup4\n        /* \"tests/function.sol\":436:438  _a */\n      dup6\n        /* \"tests/function.sol\":436:443  _a + _b */\n      tag_23\n      jump\t// in\n    tag_22:\n        /* \"tests/function.sol\":416:443  uint256 newNumber = _a + _b */\n      swap2\n      pop\n      pop\n        /* \"tests/function.sol\":343:478  function get(uint256 _a, uint256 _b) public view returns(uint){... */\n    tag_21:\n      swap3\n      swap2\n      pop\n      pop\n      jump\t// out\n        /* \"#utility.yul\":14:194   */\n    tag_8:\n        /* \"#utility.yul\":73:79   */\n      0x00\n        /* \"#utility.yul\":126:128   */\n      0x20\n        /* \"#utility.yul\":114:123   */\n      dup3\n        /* \"#utility.yul\":105:112   */\n      dup5\n        /* \"#utility.yul\":101:124   */\n      sub\n        /* \"#utility.yul\":97:129   */\n      slt\n        /* \"#utility.yul\":94:146   */\n      iszero\n      tag_26\n      jumpi\n        /* \"#utility.yul\":142:143   */\n      0x00\n        /* \"#utility.yul\":139:140   */\n      dup1\n        /* \"#utility.yul\":132:144   */\n      revert\n        /* \"#utility.yul\":94:146   */\n    tag_26:\n      pop\n        /* \"#utility.yul\":165:188   */\n      calldataload\n      swap2\n        /* \"#utility.yul\":14:194   */\n      swap1\n      pop\n      jump\t// out\n        /* \"#utility.yul\":381:629   */\n    tag_16:\n        /* \"#utility.yul\":449:455   */\n      0x00\n        /* \"#utility.yul\":457:463   */\n      dup1\n        /* \"#utility.yul\":510:512   */\n      0x40\n        /* \"#utility.yul\":498:507   */\n      dup4\n        /* \"#utility.yul\":489:496   */\n      dup6\n        /* \"#utility.yul\":485:508   */\n      sub\n        /* \"#utility.yul\":481:513   */\n      slt\n        /* \"#utility.yul\":478:530   */\n      iszero\n      tag_29\n      jumpi\n        /* \"#utility.yul\":526:527   */\n      0x00\n        /* \"#utility.yul\":523:524   */\n      dup1\n        /* \"#utility.yul\":516:528   */\n      revert\n        /* \"#utility.yul\":478:530   */\n    tag_29:\n      pop\n      pop\n        /* \"#utility.yul\":549:572   */\n      dup1\n      calldataload\n      swap3\n        /* \"#utility.yul\":619:621   */\n      0x20\n        /* \"#utility.yul\":604:622   */\n      swap1\n      swap2\n      add\n        /* \"#utility.yul\":591:623   */\n      calldataload\n      swap2\n      pop\n        /* \"#utility.yul\":381:629   */\n      jump\t// out\n        /* \"#utility.yul\":634:856   */\n    tag_23:\n        /* \"#utility.yul\":699:708   */\n      dup1\n      dup3\n      add\n        /* \"#utility.yul\":720:730   */\n      dup1\n      dup3\n      gt\n        /* \"#utility.yul\":717:850   */\n      iszero\n      tag_21\n      jumpi\n        /* \"#utility.yul\":772:782   */\n      0x4e487b71\n        /* \"#utility.yul\":767:770   */\n      0xe0\n        /* \"#utility.yul\":763:783   */\n      shl\n        /* \"#utility.yul\":760:761   */\n      0x00\n        /* \"#utility.yul\":753:784   */\n      mstore\n        /* \"#utility.yul\":807:811   */\n      0x11\n        /* \"#utility.yul\":804:805   */\n      0x04\n        /* \"#utility.yul\":797:812   */\n      mstore\n        /* \"#utility.yul\":835:839   */\n      0x24\n        /* \"#utility.yul\":832:833   */\n      0x00\n        /* \"#utility.yul\":825:840   */\n      revert\n\n    auxdata: 0xa2646970667358221220dc757bebb1b33b67f9b0811683a825585151f9f285c48b74507928a2e2a9435b64736f6c63430008190033\n}\n",
				"bytecode": {
					"linkReferences": {},
					"object": "6080604052348015600e575f80fd5b5061010c8061001c5f395ff3fe6080604052348015600e575f80fd5b5060043610603a575f3560e01c806309e9600814603e5780635a9b0b8914604f578063669e48aa146064575b5f80fd5b604d60493660046083565b5f55565b005b5f545b60405190815260200160405180910390f35b6052606f3660046099565b5f806079838560b8565b9150505b92915050565b5f602082840312156092575f80fd5b5035919050565b5f806040838503121560a9575f80fd5b50508035926020909101359150565b80820180821115607d57634e487b7160e01b5f52601160045260245ffdfea2646970667358221220dc757bebb1b33b67f9b0811683a825585151f9f285c48b74507928a2e2a9435b64736f6c63430008190033",
					"opcodes": "PUSH1 0x80 PUSH1 0x40 MSTORE CALLVALUE DUP1 ISZERO PUSH1 0xE JUMPI PUSH0 DUP1 REVERT JUMPDEST POP PUSH2 0x10C DUP1 PUSH2 0x1C PUSH0 CODECOPY PUSH0 RETURN INVALID PUSH1 0x80 PUSH1 0x40 MSTORE CALLVALUE DUP1 ISZERO PUSH1 0xE JUMPI PUSH0 DUP1 REVERT JUMPDEST POP PUSH1 0x4 CALLDATASIZE LT PUSH1 0x3A JUMPI PUSH0 CALLDATALOAD PUSH1 0xE0 SHR DUP1 PUSH4 0x9E96008 EQ PUSH1 0x3E JUMPI DUP1 PUSH4 0x5A9B0B89 EQ PUSH1 0x4F JUMPI DUP1 PUSH4 0x669E48AA EQ PUSH1 0x64 JUMPI JUMPDEST PUSH0 DUP1 REVERT JUMPDEST PUSH1 0x4D PUSH1 0x49 CALLDATASIZE PUSH1 0x4 PUSH1 0x83 JUMP JUMPDEST PUSH0 SSTORE JUMP JUMPDEST STOP JUMPDEST PUSH0 SLOAD JUMPDEST PUSH1 0x40 MLOAD SWAP1 DUP2 MSTORE PUSH1 0x20 ADD PUSH1 0x40 MLOAD DUP1 SWAP2 SUB SWAP1 RETURN JUMPDEST PUSH1 0x52 PUSH1 0x6F CALLDATASIZE PUSH1 0x4 PUSH1 0x99 JUMP JUMPDEST PUSH0 DUP1 PUSH1 0x79 DUP4 DUP6 PUSH1 0xB8 JUMP JUMPDEST SWAP2 POP POP JUMPDEST SWAP3 SWAP2 POP POP JUMP JUMPDEST PUSH0 PUSH1 0x20 DUP3 DUP5 SUB SLT ISZERO PUSH1 0x92 JUMPI PUSH0 DUP1 REVERT JUMPDEST POP CALLDATALOAD SWAP2 SWAP1 POP JUMP JUMPDEST PUSH0 DUP1 PUSH1 0x40 DUP4 DUP6 SUB SLT ISZERO PUSH1 0xA9 JUMPI PUSH0 DUP1 REVERT JUMPDEST POP POP DUP1 CALLDATALOAD SWAP3 PUSH1 0x20 SWAP1 SWAP2 ADD CALLDATALOAD SWAP2 POP JUMP JUMPDEST DUP1 DUP3 ADD DUP1 DUP3 GT ISZERO PUSH1 0x7D JUMPI PUSH4 0x4E487B71 PUSH1 0xE0 SHL PUSH0 MSTORE PUSH1 0x11 PUSH1 0x4 MSTORE PUSH1 0x24 PUSH0 REVERT INVALID LOG2 PUSH5 0x6970667358 0x22 SLT KECCAK256 0xDC PUSH22 0x7BEBB1B33B67F9B0811683A825585151F9F285C48B74 POP PUSH26 0x28A2E2A9435B64736F6C63430008190033000000000000000000 "
				},
				"gasEstimates": {
					"creation": {
						"codeDepositCost": "53600",
						"executionCost": "103",
						"totalCost": "53703"
					},
					"external": {
						"get(uint256,uint256)": "infinite",
						"getInfo()": "2267",
						"updateData(uint256)": "22287"
					}
				},
				"methodIdentifiers": {
					"get(uint256,uint256)": "669e48aa",
					"getInfo()": "5a9b0b89",
					"updateData(uint256)": "09e96008"
				}
			},
			"storageLayout": {
				"storage": [
					{
						"astId": 3,
						"contract": "tests/function.sol:LearnFunction",
						"label": "hey",
						"offset": 0,
						"slot": "0",
						"type": "t_uint256"
					}
				],
				"types": {
					"t_uint256": {
						"encoding": "inplace",
						"label": "uint256",
						"numberOfBytes": "32"
					}
				}
			},
			"userdoc": {
				"kind": "user",
				"methods": {},
				"version": 1
			}
		}
	}
}