{
	"tests/dataTypes.sol": {
		"DataTypes": {
			"abi": [
				{
					"inputs": [],
					"name": "hey",
					"outputs": [
						{
							"internalType": "bool",
							"name": "",
							"type": "bool"
						}
					],
					"stateMutability": "view",
					"type": "function"
				},
				{
					"inputs": [],
					"name": "i",
					"outputs": [
						{
							"internalType": "int256",
							"name": "",
							"type": "int256"
						}
					],
					"stateMutability": "view",
					"type": "function"
				},
				{
					"inputs": [],
					"name": "i256",
					"outputs": [
						{
							"internalType": "int256",
							"name": "",
							"type": "int256"
						}
					],
					"stateMutability": "view",
					"type": "function"
				},
				{
					"inputs": [],
					"name": "i8",
					"outputs": [
						{
							"internalType": "int8",
							"name": "",
							"type": "int8"
						}
					],
					"stateMutability": "view",
					"type": "function"
				},
				{
					"inputs": [],
					"name": "no",
					"outputs": [
						{
							"internalType": "bool",
							"name": "",
							"type": "bool"
						}
					],
					"stateMutability": "view",
					"type": "function"
				}
			],
			"devdoc": {
				"kind": "dev",
				"methods": {},
				"version": 1
			},
			"evm": {
				"assembly": "    /* \"tests/dataTypes.sol\":59:913  contract DataTypes {... */\n  mstore(0x40, 0x80)\n    /* \"tests/dataTypes.sol\":105:126  bool public no = true */\n  0x00\n  dup1\n  sload\n  not(0xffff00)\n    /* \"tests/dataTypes.sol\":790:809  int8 public i8 = -1 */\n  and\n  0xff0100\n  or\n  swap1\n  sstore\n    /* \"tests/dataTypes.sol\":833:836  456 */\n  0x01c8\n  0x01\n    /* \"tests/dataTypes.sol\":815:836  int public i256 = 456 */\n  sstore\n  not(0x04d1)\n    /* \"tests/dataTypes.sol\":790:809  int8 public i8 = -1 */\n  0x02\n    /* \"tests/dataTypes.sol\":842:862  int public i = -1234 */\n  sstore\n    /* \"tests/dataTypes.sol\":59:913  contract DataTypes {... */\n  callvalue\n  dup1\n  iszero\n  tag_1\n  jumpi\n  0x00\n  dup1\n  revert\ntag_1:\n  pop\n  dataSize(sub_0)\n  dup1\n  dataOffset(sub_0)\n  0x00\n  codecopy\n  0x00\n  return\nstop\n\nsub_0: assembly {\n        /* \"tests/dataTypes.sol\":59:913  contract DataTypes {... */\n      mstore(0x40, 0x80)\n      callvalue\n      dup1\n      iszero\n      tag_1\n      jumpi\n      0x00\n      dup1\n      revert\n    tag_1:\n      pop\n      jumpi(tag_2, lt(calldatasize, 0x04))\n      shr(0xe0, calldataload(0x00))\n      dup1\n      0x4c27fd62\n      eq\n      tag_3\n      jumpi\n      dup1\n      0x921cda74\n      eq\n      tag_4\n      jumpi\n      dup1\n      0xb6c52ae8\n      eq\n      tag_5\n      jumpi\n      dup1\n      0xbde2b573\n      eq\n      tag_6\n      jumpi\n      dup1\n      0xe5aa3d58\n      eq\n      tag_7\n      jumpi\n    tag_2:\n      0x00\n      dup1\n      revert\n        /* \"tests/dataTypes.sol\":815:836  int public i256 = 456 */\n    tag_3:\n      tag_8\n      sload(0x01)\n      dup2\n      jump\n    tag_8:\n      mload(0x40)\n        /* \"#utility.yul\":158:183   */\n      swap1\n      dup2\n      mstore\n        /* \"#utility.yul\":146:148   */\n      0x20\n        /* \"#utility.yul\":131:149   */\n      add\n        /* \"tests/dataTypes.sol\":815:836  int public i256 = 456 */\n    tag_10:\n      mload(0x40)\n      dup1\n      swap2\n      sub\n      swap1\n      return\n        /* \"tests/dataTypes.sol\":790:809  int8 public i8 = -1 */\n    tag_4:\n      0x00\n      dup1\n      sload\n      tag_12\n      swap2\n      0x010000\n      swap1\n      swap2\n      div\n      swap1\n      signextend\n      dup2\n      jump\n    tag_12:\n      mload(0x40)\n        /* \"#utility.yul\":280:284   */\n      0x00\n        /* \"#utility.yul\":352:373   */\n      swap2\n      swap1\n      swap2\n      signextend\n        /* \"#utility.yul\":334:374   */\n      dup2\n      mstore\n        /* \"#utility.yul\":322:324   */\n      0x20\n        /* \"#utility.yul\":307:325   */\n      add\n        /* \"tests/dataTypes.sol\":790:809  int8 public i8 = -1 */\n      tag_10\n        /* \"#utility.yul\":194:380   */\n      jump\n        /* \"tests/dataTypes.sol\":105:126  bool public no = true */\n    tag_5:\n      sload(0x00)\n      tag_16\n      swap1\n      0x0100\n      swap1\n      div\n      0xff\n      and\n      dup2\n      jump\n    tag_16:\n      mload(0x40)\n        /* \"#utility.yul\":550:564   */\n      swap1\n      iszero\n        /* \"#utility.yul\":543:565   */\n      iszero\n        /* \"#utility.yul\":525:566   */\n      dup2\n      mstore\n        /* \"#utility.yul\":513:515   */\n      0x20\n        /* \"#utility.yul\":498:516   */\n      add\n        /* \"tests/dataTypes.sol\":105:126  bool public no = true */\n      tag_10\n        /* \"#utility.yul\":385:572   */\n      jump\n        /* \"tests/dataTypes.sol\":84:99  bool public hey */\n    tag_6:\n      sload(0x00)\n      tag_16\n      swap1\n      0xff\n      and\n      dup2\n      jump\n        /* \"tests/dataTypes.sol\":842:862  int public i = -1234 */\n    tag_7:\n      tag_8\n      sload(0x02)\n      dup2\n      jump\n\n    auxdata: 0xa2646970667358221220ee55fc9136e35aa541755ae2bac7e10c8187b556c14eee5c54b4e9abcfe9d3d864736f6c63430008190033\n}\n",
				"bytecode": {
					"linkReferences": {},
					"object": "60806040525f805462ffff00191662ff01001790556101c86001556104d119600255348015602b575f80fd5b5060f8806100385f395ff3fe6080604052348015600e575f80fd5b5060043610604e575f3560e01c80634c27fd62146052578063921cda7414606d578063b6c52ae8146090578063bde2b5731460af578063e5aa3d581460ba575b5f80fd5b605a60015481565b6040519081526020015b60405180910390f35b5f8054607f9162010000909104900b81565b6040515f9190910b81526020016064565b5f5460a090610100900460ff1681565b60405190151581526020016064565b5f5460a09060ff1681565b605a6002548156fea2646970667358221220ee55fc9136e35aa541755ae2bac7e10c8187b556c14eee5c54b4e9abcfe9d3d864736f6c63430008190033",
					"opcodes": "PUSH1 0x80 PUSH1 0x40 MSTORE PUSH0 DUP1 SLOAD PUSH3 0xFFFF00 NOT AND PUSH3 0xFF0100 OR SWAP1 SSTORE PUSH2 0x1C8 PUSH1 0x1 SSTORE PUSH2 0x4D1 NOT PUSH1 0x2 SSTORE CALLVALUE DUP1 ISZERO PUSH1 0x2B JUMPI PUSH0 DUP1 REVERT JUMPDEST POP PUSH1 0xF8 DUP1 PUSH2 0x38 PUSH0 CODECOPY PUSH0 RETURN INVALID PUSH1 0x80 PUSH1 0x40 MSTORE CALLVALUE DUP1 ISZERO PUSH1 0xE JUMPI PUSH0 DUP1 REVERT JUMPDEST POP PUSH1 0x4 CALLDATASIZE LT PUSH1 0x4E JUMPI PUSH0 CALLDATALOAD PUSH1 0xE0 SHR DUP1 PUSH4 0x4C27FD62 EQ PUSH1 0x52 JUMPI DUP1 PUSH4 0x921CDA74 EQ PUSH1 0x6D JUMPI DUP1 PUSH4 0xB6C52AE8 EQ PUSH1 0x90 JUMPI DUP1 PUSH4 0xBDE2B573 EQ PUSH1 0xAF JUMPI DUP1 PUSH4 0xE5AA3D58 EQ PUSH1 0xBA JUMPI JUMPDEST PUSH0 DUP1 REVERT JUMPDEST PUSH1 0x5A PUSH1 0x1 SLOAD DUP2 JUMP JUMPDEST PUSH1 0x40 MLOAD SWAP1 DUP2 MSTORE PUSH1 0x20 ADD JUMPDEST PUSH1 0x40 MLOAD DUP1 SWAP2 SUB SWAP1 RETURN JUMPDEST PUSH0 DUP1 SLOAD PUSH1 0x7F SWAP2 PUSH3 0x10000 SWAP1 SWAP2 DIV SWAP1 SIGNEXTEND DUP2 JUMP JUMPDEST PUSH1 0x40 MLOAD PUSH0 SWAP2 SWAP1 SWAP2 SIGNEXTEND DUP2 MSTORE PUSH1 0x20 ADD PUSH1 0x64 JUMP JUMPDEST PUSH0 SLOAD PUSH1 0xA0 SWAP1 PUSH2 0x100 SWAP1 DIV PUSH1 0xFF AND DUP2 JUMP JUMPDEST PUSH1 0x40 MLOAD SWAP1 ISZERO ISZERO DUP2 MSTORE PUSH1 0x20 ADD PUSH1 0x64 JUMP JUMPDEST PUSH0 SLOAD PUSH1 0xA0 SWAP1 PUSH1 0xFF AND DUP2 JUMP JUMPDEST PUSH1 0x5A PUSH1 0x2 SLOAD DUP2 JUMP INVALID LOG2 PUSH5 0x6970667358 0x22 SLT KECCAK256 0xEE SSTORE 0xFC SWAP2 CALLDATASIZE 0xE3 GAS 0xA5 COINBASE PUSH22 0x5AE2BAC7E10C8187B556C14EEE5C54B4E9ABCFE9D3D8 PUSH5 0x736F6C6343 STOP ADDMOD NOT STOP CALLER "
				},
				"gasEstimates": {
					"creation": {
						"codeDepositCost": "49600",
						"executionCost": "68535",
						"totalCost": "118135"
					},
					"external": {
						"hey()": "2352",
						"i()": "2349",
						"i256()": "2261",
						"i8()": "2334",
						"no()": "2341"
					}
				},
				"methodIdentifiers": {
					"hey()": "bde2b573",
					"i()": "e5aa3d58",
					"i256()": "4c27fd62",
					"i8()": "921cda74",
					"no()": "b6c52ae8"
				}
			},
			"storageLayout": {
				"storage": [
					{
						"astId": 3,
						"contract": "tests/dataTypes.sol:DataTypes",
						"label": "hey",
						"offset": 0,
						"slot": "0",
						"type": "t_bool"
					},
					{
						"astId": 6,
						"contract": "tests/dataTypes.sol:DataTypes",
						"label": "no",
						"offset": 1,
						"slot": "0",
						"type": "t_bool"
					},
					{
						"astId": 10,
						"contract": "tests/dataTypes.sol:DataTypes",
						"label": "i8",
						"offset": 2,
						"slot": "0",
						"type": "t_int8"
					},
					{
						"astId": 13,
						"contract": "tests/dataTypes.sol:DataTypes",
						"label": "i256",
						"offset": 0,
						"slot": "1",
						"type": "t_int256"
					},
					{
						"astId": 17,
						"contract": "tests/dataTypes.sol:DataTypes",
						"label": "i",
						"offset": 0,
						"slot": "2",
						"type": "t_int256"
					}
				],
				"types": {
					"t_bool": {
						"encoding": "inplace",
						"label": "bool",
						"numberOfBytes": "1"
					},
					"t_int256": {
						"encoding": "inplace",
						"label": "int256",
						"numberOfBytes": "32"
					},
					"t_int8": {
						"encoding": "inplace",
						"label": "int8",
						"numberOfBytes": "1"
					}
				}
			},
			"userdoc": {
				"kind": "user",
				"methods": {},
				"version": 1
			}
		}
	}
}