{
	"tests/dataTypes.sol": {
		"DataTypes": {
			"abi": [
				{
					"inputs": [],
					"name": "hey",
					"outputs": [
						{
							"internalType": "bool",
							"name": "",
							"type": "bool"
						}
					],
					"stateMutability": "view",
					"type": "function"
				},
				{
					"inputs": [],
					"name": "i",
					"outputs": [
						{
							"internalType": "int256",
							"name": "",
							"type": "int256"
						}
					],
					"stateMutability": "view",
					"type": "function"
				},
				{
					"inputs": [],
					"name": "i256",
					"outputs": [
						{
							"internalType": "int256",
							"name": "",
							"type": "int256"
						}
					],
					"stateMutability": "view",
					"type": "function"
				},
				{
					"inputs": [],
					"name": "i8",
					"outputs": [
						{
							"internalType": "int8",
							"name": "",
							"type": "int8"
						}
					],
					"stateMutability": "view",
					"type": "function"
				},
				{
					"inputs": [],
					"name": "no",
					"outputs": [
						{
							"internalType": "bool",
							"name": "",
							"type": "bool"
						}
					],
					"stateMutability": "view",
					"type": "function"
				},
				{
					"inputs": [],
					"name": "u",
					"outputs": [
						{
							"internalType": "uint256",
							"name": "",
							"type": "uint256"
						}
					],
					"stateMutability": "view",
					"type": "function"
				},
				{
					"inputs": [],
					"name": "u256",
					"outputs": [
						{
							"internalType": "uint256",
							"name": "",
							"type": "uint256"
						}
					],
					"stateMutability": "view",
					"type": "function"
				},
				{
					"inputs": [],
					"name": "u8",
					"outputs": [
						{
							"internalType": "uint8",
							"name": "",
							"type": "uint8"
						}
					],
					"stateMutability": "view",
					"type": "function"
				}
			],
			"devdoc": {
				"kind": "dev",
				"methods": {},
				"version": 1
			},
			"evm": {
				"assembly": "    /* \"tests/dataTypes.sol\":59:859  contract DataTypes {... */\n  mstore(0x40, 0x80)\n    /* \"tests/dataTypes.sol\":105:126  bool public no = true */\n  0x00\n  dup1\n  sload\n    /* \"tests/dataTypes.sol\":395:414  uint8 public u8 = 1 */\n  0x010100\n  not(0xffff00)\n  swap1\n  swap2\n  and\n  or\n  swap1\n  sstore\n    /* \"tests/dataTypes.sol\":439:442  456 */\n  0x01c8\n    /* \"tests/dataTypes.sol\":122:126  true */\n  0x01\n    /* \"tests/dataTypes.sol\":420:442  uint public u256 = 456 */\n  dup2\n  swap1\n  sstore\n    /* \"tests/dataTypes.sol\":464:467  123 */\n  0x7b\n    /* \"tests/dataTypes.sol\":395:414  uint8 public u8 = 1 */\n  0x02\n    /* \"tests/dataTypes.sol\":448:467  uint public u = 123 */\n  sstore\n    /* \"tests/dataTypes.sol\":781:800  int8 public i8 = -1 */\n  0x03\n  dup1\n  sload\n  not(0xff)\n  and\n    /* \"tests/dataTypes.sol\":105:126  bool public no = true */\n  0xff\n    /* \"tests/dataTypes.sol\":781:800  int8 public i8 = -1 */\n  or\n  swap1\n  sstore\n    /* \"tests/dataTypes.sol\":806:827  int public i256 = 456 */\n  0x04\n  sstore\n  not(0x04d1)\n    /* \"tests/dataTypes.sol\":833:853  int public i = -1234 */\n  0x05\n  sstore\n    /* \"tests/dataTypes.sol\":59:859  contract DataTypes {... */\n  callvalue\n  dup1\n  iszero\n  tag_1\n  jumpi\n  0x00\n  dup1\n  revert\ntag_1:\n  pop\n  dataSize(sub_0)\n  dup1\n  dataOffset(sub_0)\n  0x00\n  codecopy\n  0x00\n  return\nstop\n\nsub_0: assembly {\n        /* \"tests/dataTypes.sol\":59:859  contract DataTypes {... */\n      mstore(0x40, 0x80)\n      callvalue\n      dup1\n      iszero\n      tag_1\n      jumpi\n      0x00\n      dup1\n      revert\n    tag_1:\n      pop\n      jumpi(tag_2, lt(calldatasize, 0x04))\n      shr(0xe0, calldataload(0x00))\n      dup1\n      0xb6c52ae8\n      gt\n      tag_11\n      jumpi\n      dup1\n      0xb6c52ae8\n      eq\n      tag_7\n      jumpi\n      dup1\n      0xbde2b573\n      eq\n      tag_8\n      jumpi\n      dup1\n      0xc6a898c5\n      eq\n      tag_9\n      jumpi\n      dup1\n      0xe5aa3d58\n      eq\n      tag_10\n      jumpi\n      0x00\n      dup1\n      revert\n    tag_11:\n      dup1\n      0x459b1acf\n      eq\n      tag_3\n      jumpi\n      dup1\n      0x4c27fd62\n      eq\n      tag_4\n      jumpi\n      dup1\n      0x921cda74\n      eq\n      tag_5\n      jumpi\n      dup1\n      0xab3a58a3\n      eq\n      tag_6\n      jumpi\n    tag_2:\n      0x00\n      dup1\n      revert\n        /* \"tests/dataTypes.sol\":420:442  uint public u256 = 456 */\n    tag_3:\n      tag_12\n      sload(0x01)\n      dup2\n      jump\n    tag_12:\n      mload(0x40)\n        /* \"#utility.yul\":160:185   */\n      swap1\n      dup2\n      mstore\n        /* \"#utility.yul\":148:150   */\n      0x20\n        /* \"#utility.yul\":133:151   */\n      add\n        /* \"tests/dataTypes.sol\":420:442  uint public u256 = 456 */\n    tag_14:\n      mload(0x40)\n      dup1\n      swap2\n      sub\n      swap1\n      return\n        /* \"tests/dataTypes.sol\":806:827  int public i256 = 456 */\n    tag_4:\n      tag_12\n      sload(0x04)\n      dup2\n      jump\n        /* \"tests/dataTypes.sol\":781:800  int8 public i8 = -1 */\n    tag_5:\n      sload(0x03)\n      tag_20\n      swap1\n      0x00\n      signextend\n      dup2\n      jump\n    tag_20:\n      mload(0x40)\n        /* \"#utility.yul\":462:466   */\n      0x00\n        /* \"#utility.yul\":534:555   */\n      swap2\n      swap1\n      swap2\n      signextend\n        /* \"#utility.yul\":516:556   */\n      dup2\n      mstore\n        /* \"#utility.yul\":504:506   */\n      0x20\n        /* \"#utility.yul\":489:507   */\n      add\n        /* \"tests/dataTypes.sol\":781:800  int8 public i8 = -1 */\n      tag_14\n        /* \"#utility.yul\":376:562   */\n      jump\n        /* \"tests/dataTypes.sol\":395:414  uint8 public u8 = 1 */\n    tag_6:\n      sload(0x00)\n      tag_24\n      swap1\n      0x010000\n      swap1\n      div\n      0xff\n      and\n      dup2\n      jump\n    tag_24:\n      mload(0x40)\n        /* \"#utility.yul\":739:743   */\n      0xff\n        /* \"#utility.yul\":727:744   */\n      swap1\n      swap2\n      and\n        /* \"#utility.yul\":709:745   */\n      dup2\n      mstore\n        /* \"#utility.yul\":697:699   */\n      0x20\n        /* \"#utility.yul\":682:700   */\n      add\n        /* \"tests/dataTypes.sol\":395:414  uint8 public u8 = 1 */\n      tag_14\n        /* \"#utility.yul\":567:751   */\n      jump\n        /* \"tests/dataTypes.sol\":105:126  bool public no = true */\n    tag_7:\n      sload(0x00)\n      tag_28\n      swap1\n      0x0100\n      swap1\n      div\n      0xff\n      and\n      dup2\n      jump\n    tag_28:\n      mload(0x40)\n        /* \"#utility.yul\":921:935   */\n      swap1\n      iszero\n        /* \"#utility.yul\":914:936   */\n      iszero\n        /* \"#utility.yul\":896:937   */\n      dup2\n      mstore\n        /* \"#utility.yul\":884:886   */\n      0x20\n        /* \"#utility.yul\":869:887   */\n      add\n        /* \"tests/dataTypes.sol\":105:126  bool public no = true */\n      tag_14\n        /* \"#utility.yul\":756:943   */\n      jump\n        /* \"tests/dataTypes.sol\":84:99  bool public hey */\n    tag_8:\n      sload(0x00)\n      tag_28\n      swap1\n      0xff\n      and\n      dup2\n      jump\n        /* \"tests/dataTypes.sol\":448:467  uint public u = 123 */\n    tag_9:\n      tag_12\n      sload(0x02)\n      dup2\n      jump\n        /* \"tests/dataTypes.sol\":833:853  int public i = -1234 */\n    tag_10:\n      tag_12\n      sload(0x05)\n      dup2\n      jump\n\n    auxdata: 0xa2646970667358221220bd0f833c6c56365f3842dd7b2db20619b690986d52b6f7f728bfe18756e0bef264736f6c63430008190033\n}\n",
				"bytecode": {
					"linkReferences": {},
					"object": "60806040525f80546201010062ffff00199091161790556101c86001819055607b6002556003805460ff191660ff1790556004556104d1196005553480156044575f80fd5b50610165806100525f395ff3fe608060405234801561000f575f80fd5b5060043610610085575f3560e01c8063b6c52ae811610058578063b6c52ae8146100f0578063bde2b57314610111578063c6a898c51461011d578063e5aa3d5814610126575f80fd5b8063459b1acf146100895780634c27fd62146100a5578063921cda74146100ae578063ab3a58a3146100cc575b5f80fd5b61009260015481565b6040519081526020015b60405180910390f35b61009260045481565b6003546100ba905f0b81565b6040515f9190910b815260200161009c565b5f546100de9062010000900460ff1681565b60405160ff909116815260200161009c565b5f5461010190610100900460ff1681565b604051901515815260200161009c565b5f546101019060ff1681565b61009260025481565b6100926005548156fea2646970667358221220bd0f833c6c56365f3842dd7b2db20619b690986d52b6f7f728bfe18756e0bef264736f6c63430008190033",
					"opcodes": "PUSH1 0x80 PUSH1 0x40 MSTORE PUSH0 DUP1 SLOAD PUSH3 0x10100 PUSH3 0xFFFF00 NOT SWAP1 SWAP2 AND OR SWAP1 SSTORE PUSH2 0x1C8 PUSH1 0x1 DUP2 SWAP1 SSTORE PUSH1 0x7B PUSH1 0x2 SSTORE PUSH1 0x3 DUP1 SLOAD PUSH1 0xFF NOT AND PUSH1 0xFF OR SWAP1 SSTORE PUSH1 0x4 SSTORE PUSH2 0x4D1 NOT PUSH1 0x5 SSTORE CALLVALUE DUP1 ISZERO PUSH1 0x44 JUMPI PUSH0 DUP1 REVERT JUMPDEST POP PUSH2 0x165 DUP1 PUSH2 0x52 PUSH0 CODECOPY PUSH0 RETURN INVALID PUSH1 0x80 PUSH1 0x40 MSTORE CALLVALUE DUP1 ISZERO PUSH2 0xF JUMPI PUSH0 DUP1 REVERT JUMPDEST POP PUSH1 0x4 CALLDATASIZE LT PUSH2 0x85 JUMPI PUSH0 CALLDATALOAD PUSH1 0xE0 SHR DUP1 PUSH4 0xB6C52AE8 GT PUSH2 0x58 JUMPI DUP1 PUSH4 0xB6C52AE8 EQ PUSH2 0xF0 JUMPI DUP1 PUSH4 0xBDE2B573 EQ PUSH2 0x111 JUMPI DUP1 PUSH4 0xC6A898C5 EQ PUSH2 0x11D JUMPI DUP1 PUSH4 0xE5AA3D58 EQ PUSH2 0x126 JUMPI PUSH0 DUP1 REVERT JUMPDEST DUP1 PUSH4 0x459B1ACF EQ PUSH2 0x89 JUMPI DUP1 PUSH4 0x4C27FD62 EQ PUSH2 0xA5 JUMPI DUP1 PUSH4 0x921CDA74 EQ PUSH2 0xAE JUMPI DUP1 PUSH4 0xAB3A58A3 EQ PUSH2 0xCC JUMPI JUMPDEST PUSH0 DUP1 REVERT JUMPDEST PUSH2 0x92 PUSH1 0x1 SLOAD DUP2 JUMP JUMPDEST PUSH1 0x40 MLOAD SWAP1 DUP2 MSTORE PUSH1 0x20 ADD JUMPDEST PUSH1 0x40 MLOAD DUP1 SWAP2 SUB SWAP1 RETURN JUMPDEST PUSH2 0x92 PUSH1 0x4 SLOAD DUP2 JUMP JUMPDEST PUSH1 0x3 SLOAD PUSH2 0xBA SWAP1 PUSH0 SIGNEXTEND DUP2 JUMP JUMPDEST PUSH1 0x40 MLOAD PUSH0 SWAP2 SWAP1 SWAP2 SIGNEXTEND DUP2 MSTORE PUSH1 0x20 ADD PUSH2 0x9C JUMP JUMPDEST PUSH0 SLOAD PUSH2 0xDE SWAP1 PUSH3 0x10000 SWAP1 DIV PUSH1 0xFF AND DUP2 JUMP JUMPDEST PUSH1 0x40 MLOAD PUSH1 0xFF SWAP1 SWAP2 AND DUP2 MSTORE PUSH1 0x20 ADD PUSH2 0x9C JUMP JUMPDEST PUSH0 SLOAD PUSH2 0x101 SWAP1 PUSH2 0x100 SWAP1 DIV PUSH1 0xFF AND DUP2 JUMP JUMPDEST PUSH1 0x40 MLOAD SWAP1 ISZERO ISZERO DUP2 MSTORE PUSH1 0x20 ADD PUSH2 0x9C JUMP JUMPDEST PUSH0 SLOAD PUSH2 0x101 SWAP1 PUSH1 0xFF AND DUP2 JUMP JUMPDEST PUSH2 0x92 PUSH1 0x2 SLOAD DUP2 JUMP JUMPDEST PUSH2 0x92 PUSH1 0x5 SLOAD DUP2 JUMP INVALID LOG2 PUSH5 0x6970667358 0x22 SLT KECCAK256 0xBD 0xF DUP4 EXTCODECOPY PUSH13 0x56365F3842DD7B2DB20619B690 SWAP9 PUSH14 0x52B6F7F728BFE18756E0BEF26473 PUSH16 0x6C634300081900330000000000000000 "
				},
				"gasEstimates": {
					"creation": {
						"codeDepositCost": "71400",
						"executionCost": "137004",
						"totalCost": "208404"
					},
					"external": {
						"hey()": "2330",
						"i()": "2349",
						"i256()": "2306",
						"i8()": "2362",
						"no()": "2319",
						"u()": "2327",
						"u256()": "2284",
						"u8()": "2389"
					}
				},
				"methodIdentifiers": {
					"hey()": "bde2b573",
					"i()": "e5aa3d58",
					"i256()": "4c27fd62",
					"i8()": "921cda74",
					"no()": "b6c52ae8",
					"u()": "c6a898c5",
					"u256()": "459b1acf",
					"u8()": "ab3a58a3"
				}
			},
			"storageLayout": {
				"storage": [
					{
						"astId": 3,
						"contract": "tests/dataTypes.sol:DataTypes",
						"label": "hey",
						"offset": 0,
						"slot": "0",
						"type": "t_bool"
					},
					{
						"astId": 6,
						"contract": "tests/dataTypes.sol:DataTypes",
						"label": "no",
						"offset": 1,
						"slot": "0",
						"type": "t_bool"
					},
					{
						"astId": 9,
						"contract": "tests/dataTypes.sol:DataTypes",
						"label": "u8",
						"offset": 2,
						"slot": "0",
						"type": "t_uint8"
					},
					{
						"astId": 12,
						"contract": "tests/dataTypes.sol:DataTypes",
						"label": "u256",
						"offset": 0,
						"slot": "1",
						"type": "t_uint256"
					},
					{
						"astId": 15,
						"contract": "tests/dataTypes.sol:DataTypes",
						"label": "u",
						"offset": 0,
						"slot": "2",
						"type": "t_uint256"
					},
					{
						"astId": 19,
						"contract": "tests/dataTypes.sol:DataTypes",
						"label": "i8",
						"offset": 0,
						"slot": "3",
						"type": "t_int8"
					},
					{
						"astId": 22,
						"contract": "tests/dataTypes.sol:DataTypes",
						"label": "i256",
						"offset": 0,
						"slot": "4",
						"type": "t_int256"
					},
					{
						"astId": 26,
						"contract": "tests/dataTypes.sol:DataTypes",
						"label": "i",
						"offset": 0,
						"slot": "5",
						"type": "t_int256"
					}
				],
				"types": {
					"t_bool": {
						"encoding": "inplace",
						"label": "bool",
						"numberOfBytes": "1"
					},
					"t_int256": {
						"encoding": "inplace",
						"label": "int256",
						"numberOfBytes": "32"
					},
					"t_int8": {
						"encoding": "inplace",
						"label": "int8",
						"numberOfBytes": "1"
					},
					"t_uint256": {
						"encoding": "inplace",
						"label": "uint256",
						"numberOfBytes": "32"
					},
					"t_uint8": {
						"encoding": "inplace",
						"label": "uint8",
						"numberOfBytes": "1"
					}
				}
			},
			"userdoc": {
				"kind": "user",
				"methods": {},
				"version": 1
			}
		}
	}
}