{
	"tests/stateVariables.sol": {
		"StateVariable": {
			"abi": [
				{
					"inputs": [],
					"name": "defaultBytes",
					"outputs": [
						{
							"internalType": "bytes",
							"name": "",
							"type": "bytes"
						}
					],
					"stateMutability": "view",
					"type": "function"
				},
				{
					"inputs": [],
					"name": "defaultBytesNo",
					"outputs": [
						{
							"internalType": "bytes",
							"name": "",
							"type": "bytes"
						}
					],
					"stateMutability": "view",
					"type": "function"
				},
				{
					"inputs": [],
					"name": "defaultNum",
					"outputs": [
						{
							"internalType": "uint256",
							"name": "",
							"type": "uint256"
						}
					],
					"stateMutability": "view",
					"type": "function"
				},
				{
					"inputs": [],
					"name": "defaultText",
					"outputs": [
						{
							"internalType": "string",
							"name": "",
							"type": "string"
						}
					],
					"stateMutability": "view",
					"type": "function"
				},
				{
					"inputs": [],
					"name": "myNum",
					"outputs": [
						{
							"internalType": "uint256",
							"name": "",
							"type": "uint256"
						}
					],
					"stateMutability": "view",
					"type": "function"
				},
				{
					"inputs": [],
					"name": "myState",
					"outputs": [
						{
							"internalType": "string",
							"name": "",
							"type": "string"
						}
					],
					"stateMutability": "view",
					"type": "function"
				}
			],
			"devdoc": {
				"kind": "dev",
				"methods": {},
				"version": 1
			},
			"evm": {
				"assembly": "    /* \"tests/stateVariables.sol\":215:261  string public defaultText = \"Hey Default text\" */\n  0xc0\n    /* \"tests/stateVariables.sol\":61:457  contract StateVariable {... */\n  0x40\n    /* \"tests/stateVariables.sol\":215:261  string public defaultText = \"Hey Default text\" */\n  mstore\n  0x10\n    /* \"tests/stateVariables.sol\":61:457  contract StateVariable {... */\n  0x80\n    /* \"tests/stateVariables.sol\":215:261  string public defaultText = \"Hey Default text\" */\n  swap1\n  dup2\n  mstore\n  mstore(0xa0, shl(0x82, 0x12195e48111959985d5b1d081d195e1d))\n  0x02\n  swap1\n  tag_1\n  swap1\n  dup3\n  tag_2\n  jump\t// in\ntag_1:\n  pop\n    /* \"tests/stateVariables.sol\":296:297  5 */\n  0x05\n    /* \"tests/stateVariables.sol\":268:297  uint256 public defaultNum = 5 */\n  0x03\n  sstore\n    /* \"tests/stateVariables.sol\":377:417  bytes public defaultBytes = \"Hey Legend\" */\n  0x40\n  dup1\n  mload\n  dup1\n  dup3\n  add\n  swap1\n  swap2\n  mstore\n  0x0a\n  dup2\n  mstore\n  shl(0xb2, 0x12195e48131959d95b99)\n  0x20\n  dup3\n  add\n  mstore\n  0x04\n  swap1\n  tag_3\n  swap1\n  dup3\n  tag_2\n  jump\t// in\ntag_3:\n  pop\n    /* \"tests/stateVariables.sol\":61:457  contract StateVariable {... */\n  callvalue\n  dup1\n  iszero\n  tag_5\n  jumpi\n  0x00\n  dup1\n  revert\ntag_5:\n  pop\n  jump(tag_12)\n    /* \"#utility.yul\":14:141   */\ntag_7:\n    /* \"#utility.yul\":75:85   */\n  0x4e487b71\n    /* \"#utility.yul\":70:73   */\n  0xe0\n    /* \"#utility.yul\":66:86   */\n  shl\n    /* \"#utility.yul\":63:64   */\n  0x00\n    /* \"#utility.yul\":56:87   */\n  mstore\n    /* \"#utility.yul\":106:110   */\n  0x41\n    /* \"#utility.yul\":103:104   */\n  0x04\n    /* \"#utility.yul\":96:111   */\n  mstore\n    /* \"#utility.yul\":130:134   */\n  0x24\n    /* \"#utility.yul\":127:128   */\n  0x00\n    /* \"#utility.yul\":120:135   */\n  revert\n    /* \"#utility.yul\":146:526   */\ntag_8:\n    /* \"#utility.yul\":225:226   */\n  0x01\n    /* \"#utility.yul\":221:233   */\n  dup2\n  dup2\n  shr\n  swap1\n    /* \"#utility.yul\":268:280   */\n  dup3\n  and\n  dup1\n    /* \"#utility.yul\":289:350   */\n  tag_15\n  jumpi\n    /* \"#utility.yul\":343:347   */\n  0x7f\n    /* \"#utility.yul\":335:341   */\n  dup3\n    /* \"#utility.yul\":331:348   */\n  and\n    /* \"#utility.yul\":321:348   */\n  swap2\n  pop\n    /* \"#utility.yul\":289:350   */\ntag_15:\n    /* \"#utility.yul\":396:398   */\n  0x20\n    /* \"#utility.yul\":388:394   */\n  dup3\n    /* \"#utility.yul\":385:399   */\n  lt\n    /* \"#utility.yul\":365:383   */\n  dup2\n    /* \"#utility.yul\":362:400   */\n  sub\n    /* \"#utility.yul\":359:520   */\n  tag_16\n  jumpi\n    /* \"#utility.yul\":442:452   */\n  0x4e487b71\n    /* \"#utility.yul\":437:440   */\n  0xe0\n    /* \"#utility.yul\":433:453   */\n  shl\n    /* \"#utility.yul\":430:431   */\n  0x00\n    /* \"#utility.yul\":423:454   */\n  mstore\n    /* \"#utility.yul\":477:481   */\n  0x22\n    /* \"#utility.yul\":474:475   */\n  0x04\n    /* \"#utility.yul\":467:482   */\n  mstore\n    /* \"#utility.yul\":505:509   */\n  0x24\n    /* \"#utility.yul\":502:503   */\n  0x00\n    /* \"#utility.yul\":495:510   */\n  revert\n    /* \"#utility.yul\":359:520   */\ntag_16:\n  pop\n    /* \"#utility.yul\":146:526   */\n  swap2\n  swap1\n  pop\n  jump\t// out\n    /* \"#utility.yul\":657:1175   */\ntag_10:\n    /* \"#utility.yul\":759:761   */\n  0x1f\n    /* \"#utility.yul\":754:757   */\n  dup3\n    /* \"#utility.yul\":751:762   */\n  gt\n    /* \"#utility.yul\":748:1169   */\n  iszero\n  tag_19\n  jumpi\n    /* \"#utility.yul\":795:800   */\n  dup1\n    /* \"#utility.yul\":792:793   */\n  0x00\n    /* \"#utility.yul\":785:801   */\n  mstore\n    /* \"#utility.yul\":839:843   */\n  0x20\n    /* \"#utility.yul\":836:837   */\n  0x00\n    /* \"#utility.yul\":826:844   */\n  keccak256\n    /* \"#utility.yul\":909:911   */\n  0x1f\n    /* \"#utility.yul\":897:907   */\n  dup5\n    /* \"#utility.yul\":893:912   */\n  add\n    /* \"#utility.yul\":890:891   */\n  0x05\n    /* \"#utility.yul\":886:913   */\n  shr\n    /* \"#utility.yul\":880:884   */\n  dup2\n    /* \"#utility.yul\":876:914   */\n  add\n    /* \"#utility.yul\":945:949   */\n  0x20\n    /* \"#utility.yul\":933:943   */\n  dup6\n    /* \"#utility.yul\":930:950   */\n  lt\n    /* \"#utility.yul\":927:974   */\n  iszero\n  tag_20\n  jumpi\n  pop\n    /* \"#utility.yul\":968:972   */\n  dup1\n    /* \"#utility.yul\":927:974   */\ntag_20:\n    /* \"#utility.yul\":1023:1025   */\n  0x1f\n    /* \"#utility.yul\":1018:1021   */\n  dup5\n    /* \"#utility.yul\":1014:1026   */\n  add\n    /* \"#utility.yul\":1011:1012   */\n  0x05\n    /* \"#utility.yul\":1007:1027   */\n  shr\n    /* \"#utility.yul\":1001:1005   */\n  dup3\n    /* \"#utility.yul\":997:1028   */\n  add\n    /* \"#utility.yul\":987:1028   */\n  swap2\n  pop\n    /* \"#utility.yul\":1078:1159   */\ntag_21:\n    /* \"#utility.yul\":1096:1098   */\n  dup2\n    /* \"#utility.yul\":1089:1094   */\n  dup2\n    /* \"#utility.yul\":1086:1099   */\n  lt\n    /* \"#utility.yul\":1078:1159   */\n  iszero\n  tag_23\n  jumpi\n    /* \"#utility.yul\":1155:1156   */\n  0x00\n    /* \"#utility.yul\":1141:1157   */\n  dup2\n  sstore\n    /* \"#utility.yul\":1122:1123   */\n  0x01\n    /* \"#utility.yul\":1111:1124   */\n  add\n    /* \"#utility.yul\":1078:1159   */\n  jump(tag_21)\ntag_23:\n    /* \"#utility.yul\":1082:1085   */\n  pop\n  pop\n    /* \"#utility.yul\":748:1169   */\ntag_19:\n    /* \"#utility.yul\":657:1175   */\n  pop\n  pop\n  pop\n  jump\t// out\n    /* \"#utility.yul\":1351:2696   */\ntag_2:\n    /* \"#utility.yul\":1471:1481   */\n  dup2\n  mload\n  sub(shl(0x40, 0x01), 0x01)\n    /* \"#utility.yul\":1493:1523   */\n  dup2\n  gt\n    /* \"#utility.yul\":1490:1546   */\n  iszero\n  tag_27\n  jumpi\n    /* \"#utility.yul\":1526:1544   */\n  tag_27\n  tag_7\n  jump\t// in\ntag_27:\n    /* \"#utility.yul\":1555:1652   */\n  tag_28\n    /* \"#utility.yul\":1645:1651   */\n  dup2\n    /* \"#utility.yul\":1605:1643   */\n  tag_29\n    /* \"#utility.yul\":1637:1641   */\n  dup5\n    /* \"#utility.yul\":1631:1642   */\n  sload\n    /* \"#utility.yul\":1605:1643   */\n  tag_8\n  jump\t// in\ntag_29:\n    /* \"#utility.yul\":1599:1603   */\n  dup5\n    /* \"#utility.yul\":1555:1652   */\n  tag_10\n  jump\t// in\ntag_28:\n    /* \"#utility.yul\":1707:1711   */\n  0x20\n  dup1\n    /* \"#utility.yul\":1764:1766   */\n  0x1f\n    /* \"#utility.yul\":1753:1767   */\n  dup4\n  gt\n    /* \"#utility.yul\":1781:1782   */\n  0x01\n    /* \"#utility.yul\":1776:2439   */\n  dup2\n  eq\n  tag_31\n  jumpi\n    /* \"#utility.yul\":2483:2484   */\n  0x00\n    /* \"#utility.yul\":2500:2506   */\n  dup5\n    /* \"#utility.yul\":2497:2586   */\n  iszero\n  tag_32\n  jumpi\n  pop\n    /* \"#utility.yul\":2552:2571   */\n  dup6\n  dup4\n  add\n    /* \"#utility.yul\":2546:2572   */\n  mload\n    /* \"#utility.yul\":2497:2586   */\ntag_32:\n  not(0x00)\n    /* \"#utility.yul\":1308:1309   */\n  0x03\n    /* \"#utility.yul\":1304:1315   */\n  dup7\n  swap1\n  shl\n    /* \"#utility.yul\":1300:1324   */\n  shr\n    /* \"#utility.yul\":1296:1325   */\n  not\n    /* \"#utility.yul\":1286:1326   */\n  and\n    /* \"#utility.yul\":1332:1333   */\n  0x01\n    /* \"#utility.yul\":1328:1339   */\n  dup6\n  swap1\n  shl\n    /* \"#utility.yul\":1283:1340   */\n  or\n    /* \"#utility.yul\":2599:2680   */\n  dup6\n  sstore\n    /* \"#utility.yul\":1746:2690   */\n  jump(tag_30)\n    /* \"#utility.yul\":1776:2439   */\ntag_31:\n    /* \"#utility.yul\":604:605   */\n  0x00\n    /* \"#utility.yul\":597:611   */\n  dup6\n  dup2\n  mstore\n    /* \"#utility.yul\":641:645   */\n  0x20\n    /* \"#utility.yul\":628:646   */\n  dup2\n  keccak256\n  not(0x1f)\n    /* \"#utility.yul\":1812:1832   */\n  dup7\n  and\n  swap2\n    /* \"#utility.yul\":1930:2166   */\ntag_35:\n    /* \"#utility.yul\":1944:1951   */\n  dup3\n    /* \"#utility.yul\":1941:1942   */\n  dup2\n    /* \"#utility.yul\":1938:1952   */\n  lt\n    /* \"#utility.yul\":1930:2166   */\n  iszero\n  tag_37\n  jumpi\n    /* \"#utility.yul\":2033:2052   */\n  dup9\n  dup7\n  add\n    /* \"#utility.yul\":2027:2053   */\n  mload\n    /* \"#utility.yul\":2012:2054   */\n  dup3\n  sstore\n    /* \"#utility.yul\":2125:2152   */\n  swap5\n  dup5\n  add\n  swap5\n    /* \"#utility.yul\":2093:2094   */\n  0x01\n    /* \"#utility.yul\":2081:2095   */\n  swap1\n  swap2\n  add\n  swap1\n    /* \"#utility.yul\":1960:1979   */\n  dup5\n  add\n    /* \"#utility.yul\":1930:2166   */\n  jump(tag_35)\ntag_37:\n    /* \"#utility.yul\":1934:1937   */\n  pop\n    /* \"#utility.yul\":2194:2200   */\n  dup6\n    /* \"#utility.yul\":2185:2192   */\n  dup3\n    /* \"#utility.yul\":2182:2201   */\n  lt\n    /* \"#utility.yul\":2179:2380   */\n  iszero\n  tag_38\n  jumpi\n    /* \"#utility.yul\":2255:2274   */\n  dup8\n  dup6\n  add\n    /* \"#utility.yul\":2249:2275   */\n  mload\n  not(0x00)\n    /* \"#utility.yul\":2338:2339   */\n  0x03\n    /* \"#utility.yul\":2334:2348   */\n  dup9\n  swap1\n  shl\n    /* \"#utility.yul\":2350:2353   */\n  0xf8\n    /* \"#utility.yul\":2330:2354   */\n  and\n    /* \"#utility.yul\":2326:2363   */\n  shr\n    /* \"#utility.yul\":2322:2364   */\n  not\n    /* \"#utility.yul\":2307:2365   */\n  and\n    /* \"#utility.yul\":2292:2366   */\n  dup2\n  sstore\n    /* \"#utility.yul\":2179:2380   */\ntag_38:\n  pop\n  pop\n    /* \"#utility.yul\":2426:2427   */\n  0x01\n    /* \"#utility.yul\":2417:2423   */\n  dup5\n    /* \"#utility.yul\":2414:2415   */\n  0x01\n    /* \"#utility.yul\":2410:2424   */\n  shl\n    /* \"#utility.yul\":2406:2428   */\n  add\n    /* \"#utility.yul\":2400:2404   */\n  dup6\n    /* \"#utility.yul\":2393:2429   */\n  sstore\n    /* \"#utility.yul\":1746:2690   */\ntag_30:\n  pop\n  pop\n  pop\n  pop\n    /* \"#utility.yul\":1351:2696   */\n  pop\n  pop\n  jump\t// out\n    /* \"#utility.yul\":2701:4045   */\ntag_12:\n    /* \"tests/stateVariables.sol\":61:457  contract StateVariable {... */\n  dataSize(sub_0)\n  dup1\n  dataOffset(sub_0)\n  0x00\n  codecopy\n  0x00\n  return\nstop\n\nsub_0: assembly {\n        /* \"tests/stateVariables.sol\":61:457  contract StateVariable {... */\n      mstore(0x40, 0x80)\n      callvalue\n      dup1\n      iszero\n      tag_1\n      jumpi\n      0x00\n      dup1\n      revert\n    tag_1:\n      pop\n      jumpi(tag_2, lt(calldatasize, 0x04))\n      shr(0xe0, calldataload(0x00))\n      dup1\n      0x0c8ae01f\n      eq\n      tag_3\n      jumpi\n      dup1\n      0x8bf1799f\n      eq\n      tag_4\n      jumpi\n      dup1\n      0xd4da005a\n      eq\n      tag_5\n      jumpi\n      dup1\n      0xde4b3a73\n      eq\n      tag_6\n      jumpi\n      dup1\n      0xe565ad8c\n      eq\n      tag_7\n      jumpi\n      dup1\n      0xe96b824a\n      eq\n      tag_8\n      jumpi\n    tag_2:\n      0x00\n      dup1\n      revert\n        /* \"tests/stateVariables.sol\":268:297  uint256 public defaultNum = 5 */\n    tag_3:\n      tag_9\n      sload(0x03)\n      dup2\n      jump\n    tag_9:\n      mload(0x40)\n        /* \"#utility.yul\":160:185   */\n      swap1\n      dup2\n      mstore\n        /* \"#utility.yul\":148:150   */\n      0x20\n        /* \"#utility.yul\":133:151   */\n      add\n        /* \"tests/stateVariables.sol\":268:297  uint256 public defaultNum = 5 */\n    tag_11:\n      mload(0x40)\n      dup1\n      swap2\n      sub\n      swap1\n      return\n        /* \"tests/stateVariables.sol\":158:179  string public myState */\n    tag_4:\n      tag_13\n      tag_14\n      jump\t// in\n    tag_13:\n      mload(0x40)\n      tag_11\n      swap2\n      swap1\n      tag_16\n      jump\t// in\n        /* \"tests/stateVariables.sol\":186:206  uint256 public myNum */\n    tag_5:\n      tag_9\n      sload(0x01)\n      dup2\n      jump\n        /* \"tests/stateVariables.sol\":215:261  string public defaultText = \"Hey Default text\" */\n    tag_6:\n      tag_13\n      tag_21\n      jump\t// in\n        /* \"tests/stateVariables.sol\":424:451  bytes public defaultBytesNo */\n    tag_7:\n      tag_13\n      tag_24\n      jump\t// in\n        /* \"tests/stateVariables.sol\":377:417  bytes public defaultBytes = \"Hey Legend\" */\n    tag_8:\n      tag_13\n      tag_28\n      jump\t// in\n        /* \"tests/stateVariables.sol\":158:179  string public myState */\n    tag_14:\n      0x00\n      dup1\n      sload\n      tag_30\n      swap1\n      tag_31\n      jump\t// in\n    tag_30:\n      dup1\n      0x1f\n      add\n      0x20\n      dup1\n      swap2\n      div\n      mul\n      0x20\n      add\n      mload(0x40)\n      swap1\n      dup2\n      add\n      0x40\n      mstore\n      dup1\n      swap3\n      swap2\n      swap1\n      dup2\n      dup2\n      mstore\n      0x20\n      add\n      dup3\n      dup1\n      sload\n      tag_32\n      swap1\n      tag_31\n      jump\t// in\n    tag_32:\n      dup1\n      iszero\n      tag_33\n      jumpi\n      dup1\n      0x1f\n      lt\n      tag_34\n      jumpi\n      0x0100\n      dup1\n      dup4\n      sload\n      div\n      mul\n      dup4\n      mstore\n      swap2\n      0x20\n      add\n      swap2\n      jump(tag_33)\n    tag_34:\n      dup3\n      add\n      swap2\n      swap1\n      0x00\n      mstore\n      keccak256(0x00, 0x20)\n      swap1\n    tag_35:\n      dup2\n      sload\n      dup2\n      mstore\n      swap1\n      0x01\n      add\n      swap1\n      0x20\n      add\n      dup1\n      dup4\n      gt\n      tag_35\n      jumpi\n      dup3\n      swap1\n      sub\n      0x1f\n      and\n      dup3\n      add\n      swap2\n    tag_33:\n      pop\n      pop\n      pop\n      pop\n      pop\n      dup2\n      jump\t// out\n        /* \"tests/stateVariables.sol\":215:261  string public defaultText = \"Hey Default text\" */\n    tag_21:\n      0x02\n      dup1\n      sload\n      tag_30\n      swap1\n      tag_31\n      jump\t// in\n        /* \"tests/stateVariables.sol\":424:451  bytes public defaultBytesNo */\n    tag_24:\n      0x05\n      dup1\n      sload\n      tag_30\n      swap1\n      tag_31\n      jump\t// in\n        /* \"tests/stateVariables.sol\":377:417  bytes public defaultBytes = \"Hey Legend\" */\n    tag_28:\n      0x04\n      dup1\n      sload\n      tag_30\n      swap1\n      tag_31\n      jump\t// in\n        /* \"#utility.yul\":196:485   */\n    tag_51:\n        /* \"#utility.yul\":238:241   */\n      0x00\n        /* \"#utility.yul\":276:281   */\n      dup2\n        /* \"#utility.yul\":270:282   */\n      mload\n        /* \"#utility.yul\":303:309   */\n      dup1\n        /* \"#utility.yul\":298:301   */\n      dup5\n        /* \"#utility.yul\":291:310   */\n      mstore\n        /* \"#utility.yul\":359:365   */\n      dup1\n        /* \"#utility.yul\":352:356   */\n      0x20\n        /* \"#utility.yul\":345:350   */\n      dup5\n        /* \"#utility.yul\":341:357   */\n      add\n        /* \"#utility.yul\":334:338   */\n      0x20\n        /* \"#utility.yul\":329:332   */\n      dup7\n        /* \"#utility.yul\":325:339   */\n      add\n        /* \"#utility.yul\":319:366   */\n      mcopy\n        /* \"#utility.yul\":411:412   */\n      0x00\n        /* \"#utility.yul\":404:408   */\n      0x20\n        /* \"#utility.yul\":395:401   */\n      dup3\n        /* \"#utility.yul\":390:393   */\n      dup7\n        /* \"#utility.yul\":386:402   */\n      add\n        /* \"#utility.yul\":382:409   */\n      add\n        /* \"#utility.yul\":375:413   */\n      mstore\n        /* \"#utility.yul\":474:478   */\n      0x20\n        /* \"#utility.yul\":467:469   */\n      0x1f\n        /* \"#utility.yul\":463:470   */\n      not\n        /* \"#utility.yul\":458:460   */\n      0x1f\n        /* \"#utility.yul\":450:456   */\n      dup4\n        /* \"#utility.yul\":446:461   */\n      add\n        /* \"#utility.yul\":442:471   */\n      and\n        /* \"#utility.yul\":437:440   */\n      dup6\n        /* \"#utility.yul\":433:472   */\n      add\n        /* \"#utility.yul\":429:479   */\n      add\n        /* \"#utility.yul\":422:479   */\n      swap2\n      pop\n      pop\n        /* \"#utility.yul\":196:485   */\n      swap3\n      swap2\n      pop\n      pop\n      jump\t// out\n        /* \"#utility.yul\":490:710   */\n    tag_16:\n        /* \"#utility.yul\":639:641   */\n      0x20\n        /* \"#utility.yul\":628:637   */\n      dup2\n        /* \"#utility.yul\":621:642   */\n      mstore\n        /* \"#utility.yul\":602:606   */\n      0x00\n        /* \"#utility.yul\":659:704   */\n      tag_56\n        /* \"#utility.yul\":700:702   */\n      0x20\n        /* \"#utility.yul\":689:698   */\n      dup4\n        /* \"#utility.yul\":685:703   */\n      add\n        /* \"#utility.yul\":677:683   */\n      dup5\n        /* \"#utility.yul\":659:704   */\n      tag_51\n      jump\t// in\n    tag_56:\n        /* \"#utility.yul\":651:704   */\n      swap4\n        /* \"#utility.yul\":490:710   */\n      swap3\n      pop\n      pop\n      pop\n      jump\t// out\n        /* \"#utility.yul\":938:1318   */\n    tag_31:\n        /* \"#utility.yul\":1017:1018   */\n      0x01\n        /* \"#utility.yul\":1013:1025   */\n      dup2\n      dup2\n      shr\n      swap1\n        /* \"#utility.yul\":1060:1072   */\n      dup3\n      and\n      dup1\n        /* \"#utility.yul\":1081:1142   */\n      tag_60\n      jumpi\n        /* \"#utility.yul\":1135:1139   */\n      0x7f\n        /* \"#utility.yul\":1127:1133   */\n      dup3\n        /* \"#utility.yul\":1123:1140   */\n      and\n        /* \"#utility.yul\":1113:1140   */\n      swap2\n      pop\n        /* \"#utility.yul\":1081:1142   */\n    tag_60:\n        /* \"#utility.yul\":1188:1190   */\n      0x20\n        /* \"#utility.yul\":1180:1186   */\n      dup3\n        /* \"#utility.yul\":1177:1191   */\n      lt\n        /* \"#utility.yul\":1157:1175   */\n      dup2\n        /* \"#utility.yul\":1154:1192   */\n      sub\n        /* \"#utility.yul\":1151:1312   */\n      tag_61\n      jumpi\n        /* \"#utility.yul\":1234:1244   */\n      0x4e487b71\n        /* \"#utility.yul\":1229:1232   */\n      0xe0\n        /* \"#utility.yul\":1225:1245   */\n      shl\n        /* \"#utility.yul\":1222:1223   */\n      0x00\n        /* \"#utility.yul\":1215:1246   */\n      mstore\n        /* \"#utility.yul\":1269:1273   */\n      0x22\n        /* \"#utility.yul\":1266:1267   */\n      0x04\n        /* \"#utility.yul\":1259:1274   */\n      mstore\n        /* \"#utility.yul\":1297:1301   */\n      0x24\n        /* \"#utility.yul\":1294:1295   */\n      0x00\n        /* \"#utility.yul\":1287:1302   */\n      revert\n        /* \"#utility.yul\":1151:1312   */\n    tag_61:\n      pop\n        /* \"#utility.yul\":938:1318   */\n      swap2\n      swap1\n      pop\n      jump\t// out\n\n    auxdata: 0xa26469706673582212204f99b4528a9ed97bbe8d158310e282bec318bf1866a0fed9c9711e354c42650964736f6c63430008190033\n}\n",
				"bytecode": {
					"linkReferences": {},
					"object": "60c0604052601060809081526f12195e48111959985d5b1d081d195e1d60821b60a05260029061002f908261010d565b50600560035560408051808201909152600a81526912195e48131959d95b9960b21b6020820152600490610063908261010d565b5034801561006f575f80fd5b506101cc565b634e487b7160e01b5f52604160045260245ffd5b600181811c9082168061009d57607f821691505b6020821081036100bb57634e487b7160e01b5f52602260045260245ffd5b50919050565b601f82111561010857805f5260205f20601f840160051c810160208510156100e65750805b601f840160051c820191505b81811015610105575f81556001016100f2565b50505b505050565b81516001600160401b0381111561012657610126610075565b61013a816101348454610089565b846100c1565b602080601f83116001811461016d575f84156101565750858301515b5f19600386901b1c1916600185901b1785556101c4565b5f85815260208120601f198616915b8281101561019b5788860151825594840194600190910190840161017c565b50858210156101b857878501515f19600388901b60f8161c191681555b505060018460011b0185555b505050505050565b61021d806101d95f395ff3fe608060405234801561000f575f80fd5b5060043610610060575f3560e01c80630c8ae01f146100645780638bf1799f14610080578063d4da005a14610095578063de4b3a731461009e578063e565ad8c146100a6578063e96b824a146100ae575b5f80fd5b61006d60035481565b6040519081526020015b60405180910390f35b6100886100b6565b6040516100779190610196565b61006d60015481565b610088610141565b61008861014e565b61008861015b565b5f80546100c2906101af565b80601f01602080910402602001604051908101604052809291908181526020018280546100ee906101af565b80156101395780601f1061011057610100808354040283529160200191610139565b820191905f5260205f20905b81548152906001019060200180831161011c57829003601f168201915b505050505081565b600280546100c2906101af565b600580546100c2906101af565b600480546100c2906101af565b5f81518084528060208401602086015e5f602082860101526020601f19601f83011685010191505092915050565b602081525f6101a86020830184610168565b9392505050565b600181811c908216806101c357607f821691505b6020821081036101e157634e487b7160e01b5f52602260045260245ffd5b5091905056fea26469706673582212204f99b4528a9ed97bbe8d158310e282bec318bf1866a0fed9c9711e354c42650964736f6c63430008190033",
					"opcodes": "PUSH1 0xC0 PUSH1 0x40 MSTORE PUSH1 0x10 PUSH1 0x80 SWAP1 DUP2 MSTORE PUSH16 0x12195E48111959985D5B1D081D195E1D PUSH1 0x82 SHL PUSH1 0xA0 MSTORE PUSH1 0x2 SWAP1 PUSH2 0x2F SWAP1 DUP3 PUSH2 0x10D JUMP JUMPDEST POP PUSH1 0x5 PUSH1 0x3 SSTORE PUSH1 0x40 DUP1 MLOAD DUP1 DUP3 ADD SWAP1 SWAP2 MSTORE PUSH1 0xA DUP2 MSTORE PUSH10 0x12195E48131959D95B99 PUSH1 0xB2 SHL PUSH1 0x20 DUP3 ADD MSTORE PUSH1 0x4 SWAP1 PUSH2 0x63 SWAP1 DUP3 PUSH2 0x10D JUMP JUMPDEST POP CALLVALUE DUP1 ISZERO PUSH2 0x6F JUMPI PUSH0 DUP1 REVERT JUMPDEST POP PUSH2 0x1CC JUMP JUMPDEST PUSH4 0x4E487B71 PUSH1 0xE0 SHL PUSH0 MSTORE PUSH1 0x41 PUSH1 0x4 MSTORE PUSH1 0x24 PUSH0 REVERT JUMPDEST PUSH1 0x1 DUP2 DUP2 SHR SWAP1 DUP3 AND DUP1 PUSH2 0x9D JUMPI PUSH1 0x7F DUP3 AND SWAP2 POP JUMPDEST PUSH1 0x20 DUP3 LT DUP2 SUB PUSH2 0xBB JUMPI PUSH4 0x4E487B71 PUSH1 0xE0 SHL PUSH0 MSTORE PUSH1 0x22 PUSH1 0x4 MSTORE PUSH1 0x24 PUSH0 REVERT JUMPDEST POP SWAP2 SWAP1 POP JUMP JUMPDEST PUSH1 0x1F DUP3 GT ISZERO PUSH2 0x108 JUMPI DUP1 PUSH0 MSTORE PUSH1 0x20 PUSH0 KECCAK256 PUSH1 0x1F DUP5 ADD PUSH1 0x5 SHR DUP2 ADD PUSH1 0x20 DUP6 LT ISZERO PUSH2 0xE6 JUMPI POP DUP1 JUMPDEST PUSH1 0x1F DUP5 ADD PUSH1 0x5 SHR DUP3 ADD SWAP2 POP JUMPDEST DUP2 DUP2 LT ISZERO PUSH2 0x105 JUMPI PUSH0 DUP2 SSTORE PUSH1 0x1 ADD PUSH2 0xF2 JUMP JUMPDEST POP POP JUMPDEST POP POP POP JUMP JUMPDEST DUP2 MLOAD PUSH1 0x1 PUSH1 0x1 PUSH1 0x40 SHL SUB DUP2 GT ISZERO PUSH2 0x126 JUMPI PUSH2 0x126 PUSH2 0x75 JUMP JUMPDEST PUSH2 0x13A DUP2 PUSH2 0x134 DUP5 SLOAD PUSH2 0x89 JUMP JUMPDEST DUP5 PUSH2 0xC1 JUMP JUMPDEST PUSH1 0x20 DUP1 PUSH1 0x1F DUP4 GT PUSH1 0x1 DUP2 EQ PUSH2 0x16D JUMPI PUSH0 DUP5 ISZERO PUSH2 0x156 JUMPI POP DUP6 DUP4 ADD MLOAD JUMPDEST PUSH0 NOT PUSH1 0x3 DUP7 SWAP1 SHL SHR NOT AND PUSH1 0x1 DUP6 SWAP1 SHL OR DUP6 SSTORE PUSH2 0x1C4 JUMP JUMPDEST PUSH0 DUP6 DUP2 MSTORE PUSH1 0x20 DUP2 KECCAK256 PUSH1 0x1F NOT DUP7 AND SWAP2 JUMPDEST DUP3 DUP2 LT ISZERO PUSH2 0x19B JUMPI DUP9 DUP7 ADD MLOAD DUP3 SSTORE SWAP5 DUP5 ADD SWAP5 PUSH1 0x1 SWAP1 SWAP2 ADD SWAP1 DUP5 ADD PUSH2 0x17C JUMP JUMPDEST POP DUP6 DUP3 LT ISZERO PUSH2 0x1B8 JUMPI DUP8 DUP6 ADD MLOAD PUSH0 NOT PUSH1 0x3 DUP9 SWAP1 SHL PUSH1 0xF8 AND SHR NOT AND DUP2 SSTORE JUMPDEST POP POP PUSH1 0x1 DUP5 PUSH1 0x1 SHL ADD DUP6 SSTORE JUMPDEST POP POP POP POP POP POP JUMP JUMPDEST PUSH2 0x21D DUP1 PUSH2 0x1D9 PUSH0 CODECOPY PUSH0 RETURN INVALID PUSH1 0x80 PUSH1 0x40 MSTORE CALLVALUE DUP1 ISZERO PUSH2 0xF JUMPI PUSH0 DUP1 REVERT JUMPDEST POP PUSH1 0x4 CALLDATASIZE LT PUSH2 0x60 JUMPI PUSH0 CALLDATALOAD PUSH1 0xE0 SHR DUP1 PUSH4 0xC8AE01F EQ PUSH2 0x64 JUMPI DUP1 PUSH4 0x8BF1799F EQ PUSH2 0x80 JUMPI DUP1 PUSH4 0xD4DA005A EQ PUSH2 0x95 JUMPI DUP1 PUSH4 0xDE4B3A73 EQ PUSH2 0x9E JUMPI DUP1 PUSH4 0xE565AD8C EQ PUSH2 0xA6 JUMPI DUP1 PUSH4 0xE96B824A EQ PUSH2 0xAE JUMPI JUMPDEST PUSH0 DUP1 REVERT JUMPDEST PUSH2 0x6D PUSH1 0x3 SLOAD DUP2 JUMP JUMPDEST PUSH1 0x40 MLOAD SWAP1 DUP2 MSTORE PUSH1 0x20 ADD JUMPDEST PUSH1 0x40 MLOAD DUP1 SWAP2 SUB SWAP1 RETURN JUMPDEST PUSH2 0x88 PUSH2 0xB6 JUMP JUMPDEST PUSH1 0x40 MLOAD PUSH2 0x77 SWAP2 SWAP1 PUSH2 0x196 JUMP JUMPDEST PUSH2 0x6D PUSH1 0x1 SLOAD DUP2 JUMP JUMPDEST PUSH2 0x88 PUSH2 0x141 JUMP JUMPDEST PUSH2 0x88 PUSH2 0x14E JUMP JUMPDEST PUSH2 0x88 PUSH2 0x15B JUMP JUMPDEST PUSH0 DUP1 SLOAD PUSH2 0xC2 SWAP1 PUSH2 0x1AF JUMP JUMPDEST DUP1 PUSH1 0x1F ADD PUSH1 0x20 DUP1 SWAP2 DIV MUL PUSH1 0x20 ADD PUSH1 0x40 MLOAD SWAP1 DUP2 ADD PUSH1 0x40 MSTORE DUP1 SWAP3 SWAP2 SWAP1 DUP2 DUP2 MSTORE PUSH1 0x20 ADD DUP3 DUP1 SLOAD PUSH2 0xEE SWAP1 PUSH2 0x1AF JUMP JUMPDEST DUP1 ISZERO PUSH2 0x139 JUMPI DUP1 PUSH1 0x1F LT PUSH2 0x110 JUMPI PUSH2 0x100 DUP1 DUP4 SLOAD DIV MUL DUP4 MSTORE SWAP2 PUSH1 0x20 ADD SWAP2 PUSH2 0x139 JUMP JUMPDEST DUP3 ADD SWAP2 SWAP1 PUSH0 MSTORE PUSH1 0x20 PUSH0 KECCAK256 SWAP1 JUMPDEST DUP2 SLOAD DUP2 MSTORE SWAP1 PUSH1 0x1 ADD SWAP1 PUSH1 0x20 ADD DUP1 DUP4 GT PUSH2 0x11C JUMPI DUP3 SWAP1 SUB PUSH1 0x1F AND DUP3 ADD SWAP2 JUMPDEST POP POP POP POP POP DUP2 JUMP JUMPDEST PUSH1 0x2 DUP1 SLOAD PUSH2 0xC2 SWAP1 PUSH2 0x1AF JUMP JUMPDEST PUSH1 0x5 DUP1 SLOAD PUSH2 0xC2 SWAP1 PUSH2 0x1AF JUMP JUMPDEST PUSH1 0x4 DUP1 SLOAD PUSH2 0xC2 SWAP1 PUSH2 0x1AF JUMP JUMPDEST PUSH0 DUP2 MLOAD DUP1 DUP5 MSTORE DUP1 PUSH1 0x20 DUP5 ADD PUSH1 0x20 DUP7 ADD MCOPY PUSH0 PUSH1 0x20 DUP3 DUP7 ADD ADD MSTORE PUSH1 0x20 PUSH1 0x1F NOT PUSH1 0x1F DUP4 ADD AND DUP6 ADD ADD SWAP2 POP POP SWAP3 SWAP2 POP POP JUMP JUMPDEST PUSH1 0x20 DUP2 MSTORE PUSH0 PUSH2 0x1A8 PUSH1 0x20 DUP4 ADD DUP5 PUSH2 0x168 JUMP JUMPDEST SWAP4 SWAP3 POP POP POP JUMP JUMPDEST PUSH1 0x1 DUP2 DUP2 SHR SWAP1 DUP3 AND DUP1 PUSH2 0x1C3 JUMPI PUSH1 0x7F DUP3 AND SWAP2 POP JUMPDEST PUSH1 0x20 DUP3 LT DUP2 SUB PUSH2 0x1E1 JUMPI PUSH4 0x4E487B71 PUSH1 0xE0 SHL PUSH0 MSTORE PUSH1 0x22 PUSH1 0x4 MSTORE PUSH1 0x24 PUSH0 REVERT JUMPDEST POP SWAP2 SWAP1 POP JUMP INVALID LOG2 PUSH5 0x6970667358 0x22 SLT KECCAK256 0x4F SWAP10 0xB4 MSTORE DUP11 SWAP15 0xD9 PUSH28 0xBE8D158310E282BEC318BF1866A0FED9C9711E354C42650964736F6C PUSH4 0x43000819 STOP CALLER "
				},
				"gasEstimates": {
					"creation": {
						"codeDepositCost": "108200",
						"executionCost": "infinite",
						"totalCost": "infinite"
					},
					"external": {
						"defaultBytes()": "infinite",
						"defaultBytesNo()": "infinite",
						"defaultNum()": "2261",
						"defaultText()": "infinite",
						"myNum()": "2305",
						"myState()": "infinite"
					}
				},
				"methodIdentifiers": {
					"defaultBytes()": "e96b824a",
					"defaultBytesNo()": "e565ad8c",
					"defaultNum()": "0c8ae01f",
					"defaultText()": "de4b3a73",
					"myNum()": "d4da005a",
					"myState()": "8bf1799f"
				}
			},
			"storageLayout": {
				"storage": [
					{
						"astId": 3,
						"contract": "tests/stateVariables.sol:StateVariable",
						"label": "myState",
						"offset": 0,
						"slot": "0",
						"type": "t_string_storage"
					},
					{
						"astId": 5,
						"contract": "tests/stateVariables.sol:StateVariable",
						"label": "myNum",
						"offset": 0,
						"slot": "1",
						"type": "t_uint256"
					},
					{
						"astId": 8,
						"contract": "tests/stateVariables.sol:StateVariable",
						"label": "defaultText",
						"offset": 0,
						"slot": "2",
						"type": "t_string_storage"
					},
					{
						"astId": 11,
						"contract": "tests/stateVariables.sol:StateVariable",
						"label": "defaultNum",
						"offset": 0,
						"slot": "3",
						"type": "t_uint256"
					},
					{
						"astId": 14,
						"contract": "tests/stateVariables.sol:StateVariable",
						"label": "defaultBytes",
						"offset": 0,
						"slot": "4",
						"type": "t_bytes_storage"
					},
					{
						"astId": 16,
						"contract": "tests/stateVariables.sol:StateVariable",
						"label": "defaultBytesNo",
						"offset": 0,
						"slot": "5",
						"type": "t_bytes_storage"
					}
				],
				"types": {
					"t_bytes_storage": {
						"encoding": "bytes",
						"label": "bytes",
						"numberOfBytes": "32"
					},
					"t_string_storage": {
						"encoding": "bytes",
						"label": "string",
						"numberOfBytes": "32"
					},
					"t_uint256": {
						"encoding": "inplace",
						"label": "uint256",
						"numberOfBytes": "32"
					}
				}
			},
			"userdoc": {
				"kind": "user",
				"methods": {},
				"version": 1
			}
		}
	}
}