{
	"tests/Practice.sol": {
		"PracticeesterdayClass": {
			"abi": [
				{
					"inputs": [],
					"name": "IncreaseNFT",
					"outputs": [],
					"stateMutability": "nonpayable",
					"type": "function"
				},
				{
					"inputs": [],
					"name": "NFTCounter",
					"outputs": [
						{
							"internalType": "uint256",
							"name": "",
							"type": "uint256"
						}
					],
					"stateMutability": "view",
					"type": "function"
				}
			],
			"devdoc": {
				"kind": "dev",
				"methods": {},
				"version": 1
			},
			"evm": {
				"assembly": "    /* \"tests/Practice.sol\":62:264  contract PracticeesterdayClass {... */\n  mstore(0x40, 0x80)\n  callvalue\n  dup1\n  iszero\n  tag_1\n  jumpi\n  0x00\n  dup1\n  revert\ntag_1:\n  pop\n  dataSize(sub_0)\n  dup1\n  dataOffset(sub_0)\n  0x00\n  codecopy\n  0x00\n  return\nstop\n\nsub_0: assembly {\n        /* \"tests/Practice.sol\":62:264  contract PracticeesterdayClass {... */\n      mstore(0x40, 0x80)\n      callvalue\n      dup1\n      iszero\n      tag_1\n      jumpi\n      0x00\n      dup1\n      revert\n    tag_1:\n      pop\n      jumpi(tag_2, lt(calldatasize, 0x04))\n      shr(0xe0, calldataload(0x00))\n      dup1\n      0x5508d8e1\n      eq\n      tag_3\n      jumpi\n      dup1\n      0x5d6da257\n      eq\n      tag_4\n      jumpi\n    tag_2:\n      0x00\n      dup1\n      revert\n        /* \"tests/Practice.sol\":100:125  uint256 public NFTCounter */\n    tag_3:\n      tag_5\n      sload(0x00)\n      dup2\n      jump\n    tag_5:\n      mload(0x40)\n        /* \"#utility.yul\":160:185   */\n      swap1\n      dup2\n      mstore\n        /* \"#utility.yul\":148:150   */\n      0x20\n        /* \"#utility.yul\":133:151   */\n      add\n        /* \"tests/Practice.sol\":100:125  uint256 public NFTCounter */\n      mload(0x40)\n      dup1\n      swap2\n      sub\n      swap1\n      return\n        /* \"tests/Practice.sol\":161:227  function IncreaseNFT () public  {... */\n    tag_4:\n      tag_9\n      tag_10\n      jump\t// in\n    tag_9:\n      stop\n    tag_10:\n        /* \"tests/Practice.sol\":218:219  1 */\n      0x01\n        /* \"tests/Practice.sol\":204:214  NFTCounter */\n      0x00\n      dup1\n        /* \"tests/Practice.sol\":204:219  NFTCounter += 1 */\n      dup3\n      dup3\n      sload\n      tag_12\n      swap2\n      swap1\n      tag_13\n      jump\t// in\n    tag_12:\n      swap1\n      swap2\n      sstore\n      pop\n      pop\n        /* \"tests/Practice.sol\":161:227  function IncreaseNFT () public  {... */\n      jump\t// out\n        /* \"#utility.yul\":196:418   */\n    tag_13:\n        /* \"#utility.yul\":261:270   */\n      dup1\n      dup3\n      add\n        /* \"#utility.yul\":282:292   */\n      dup1\n      dup3\n      gt\n        /* \"#utility.yul\":279:412   */\n      iszero\n      tag_17\n      jumpi\n        /* \"#utility.yul\":334:344   */\n      0x4e487b71\n        /* \"#utility.yul\":329:332   */\n      0xe0\n        /* \"#utility.yul\":325:345   */\n      shl\n        /* \"#utility.yul\":322:323   */\n      0x00\n        /* \"#utility.yul\":315:346   */\n      mstore\n        /* \"#utility.yul\":369:373   */\n      0x11\n        /* \"#utility.yul\":366:367   */\n      0x04\n        /* \"#utility.yul\":359:374   */\n      mstore\n        /* \"#utility.yul\":397:401   */\n      0x24\n        /* \"#utility.yul\":394:395   */\n      0x00\n        /* \"#utility.yul\":387:402   */\n      revert\n        /* \"#utility.yul\":279:412   */\n    tag_17:\n        /* \"#utility.yul\":196:418   */\n      swap3\n      swap2\n      pop\n      pop\n      jump\t// out\n\n    auxdata: 0xa264697066735822122006c4f1c2a24fcabbf214043b442e42315d1b5ecef49ea444c710a7b90b73411564736f6c63430008190033\n}\n",
				"bytecode": {
					"linkReferences": {},
					"object": "6080604052348015600e575f80fd5b5060c580601a5f395ff3fe6080604052348015600e575f80fd5b50600436106030575f3560e01c80635508d8e11460345780635d6da25714604d575b5f80fd5b603b5f5481565b60405190815260200160405180910390f35b60536055565b005b60015f8082825460649190606b565b9091555050565b80820180821115608957634e487b7160e01b5f52601160045260245ffd5b9291505056fea264697066735822122006c4f1c2a24fcabbf214043b442e42315d1b5ecef49ea444c710a7b90b73411564736f6c63430008190033",
					"opcodes": "PUSH1 0x80 PUSH1 0x40 MSTORE CALLVALUE DUP1 ISZERO PUSH1 0xE JUMPI PUSH0 DUP1 REVERT JUMPDEST POP PUSH1 0xC5 DUP1 PUSH1 0x1A PUSH0 CODECOPY PUSH0 RETURN INVALID PUSH1 0x80 PUSH1 0x40 MSTORE CALLVALUE DUP1 ISZERO PUSH1 0xE JUMPI PUSH0 DUP1 REVERT JUMPDEST POP PUSH1 0x4 CALLDATASIZE LT PUSH1 0x30 JUMPI PUSH0 CALLDATALOAD PUSH1 0xE0 SHR DUP1 PUSH4 0x5508D8E1 EQ PUSH1 0x34 JUMPI DUP1 PUSH4 0x5D6DA257 EQ PUSH1 0x4D JUMPI JUMPDEST PUSH0 DUP1 REVERT JUMPDEST PUSH1 0x3B PUSH0 SLOAD DUP2 JUMP JUMPDEST PUSH1 0x40 MLOAD SWAP1 DUP2 MSTORE PUSH1 0x20 ADD PUSH1 0x40 MLOAD DUP1 SWAP2 SUB SWAP1 RETURN JUMPDEST PUSH1 0x53 PUSH1 0x55 JUMP JUMPDEST STOP JUMPDEST PUSH1 0x1 PUSH0 DUP1 DUP3 DUP3 SLOAD PUSH1 0x64 SWAP2 SWAP1 PUSH1 0x6B JUMP JUMPDEST SWAP1 SWAP2 SSTORE POP POP JUMP JUMPDEST DUP1 DUP3 ADD DUP1 DUP3 GT ISZERO PUSH1 0x89 JUMPI PUSH4 0x4E487B71 PUSH1 0xE0 SHL PUSH0 MSTORE PUSH1 0x11 PUSH1 0x4 MSTORE PUSH1 0x24 PUSH0 REVERT JUMPDEST SWAP3 SWAP2 POP POP JUMP INVALID LOG2 PUSH5 0x6970667358 0x22 SLT KECCAK256 MOD 0xC4 CALL 0xC2 LOG2 0x4F 0xCA 0xBB CALLCODE EQ DIV EXTCODESIZE PREVRANDAO 0x2E TIMESTAMP BALANCE TSTORE SHL MCOPY 0xCE DELEGATECALL SWAP15 LOG4 PREVRANDAO 0xC7 LT 0xA7 0xB9 SIGNEXTEND PUSH20 0x411564736F6C6343000819003300000000000000 "
				},
				"gasEstimates": {
					"creation": {
						"codeDepositCost": "39400",
						"executionCost": "91",
						"totalCost": "39491"
					},
					"external": {
						"IncreaseNFT()": "24442",
						"NFTCounter()": "2259"
					}
				},
				"methodIdentifiers": {
					"IncreaseNFT()": "5d6da257",
					"NFTCounter()": "5508d8e1"
				}
			},
			"storageLayout": {
				"storage": [
					{
						"astId": 3,
						"contract": "tests/Practice.sol:PracticeesterdayClass",
						"label": "NFTCounter",
						"offset": 0,
						"slot": "0",
						"type": "t_uint256"
					}
				],
				"types": {
					"t_uint256": {
						"encoding": "inplace",
						"label": "uint256",
						"numberOfBytes": "32"
					}
				}
			},
			"userdoc": {
				"kind": "user",
				"methods": {},
				"version": 1
			}
		}
	}
}