{
	"tests/localVariables.sol": {
		"LocalVariables": {
			"abi": [
				{
					"inputs": [],
					"name": "local",
					"outputs": [
						{
							"internalType": "address",
							"name": "",
							"type": "address"
						},
						{
							"internalType": "uint256",
							"name": "",
							"type": "uint256"
						},
						{
							"internalType": "uint256",
							"name": "",
							"type": "uint256"
						}
					],
					"stateMutability": "nonpayable",
					"type": "function"
				},
				{
					"inputs": [],
					"name": "myNumber",
					"outputs": [
						{
							"internalType": "uint256",
							"name": "",
							"type": "uint256"
						}
					],
					"stateMutability": "view",
					"type": "function"
				}
			],
			"devdoc": {
				"kind": "dev",
				"methods": {},
				"version": 1
			},
			"evm": {
				"assembly": "    /* \"tests/localVariables.sol\":58:737  contract LocalVariables {... */\n  mstore(0x40, 0x80)\n  callvalue\n  dup1\n  iszero\n  tag_1\n  jumpi\n  0x00\n  dup1\n  revert\ntag_1:\n  pop\n  dataSize(sub_0)\n  dup1\n  dataOffset(sub_0)\n  0x00\n  codecopy\n  0x00\n  return\nstop\n\nsub_0: assembly {\n        /* \"tests/localVariables.sol\":58:737  contract LocalVariables {... */\n      mstore(0x40, 0x80)\n      callvalue\n      dup1\n      iszero\n      tag_1\n      jumpi\n      0x00\n      dup1\n      revert\n    tag_1:\n      pop\n      jumpi(tag_2, lt(calldatasize, 0x04))\n      shr(0xe0, calldataload(0x00))\n      dup1\n      0x0f166ad4\n      eq\n      tag_3\n      jumpi\n      dup1\n      0x23fd0e40\n      eq\n      tag_4\n      jumpi\n    tag_2:\n      0x00\n      dup1\n      revert\n        /* \"tests/localVariables.sol\":364:735  function local()... */\n    tag_3:\n      tag_5\n      tag_6\n      jump\t// in\n    tag_5:\n      0x40\n      dup1\n      mload\n      sub(shl(0xa0, 0x01), 0x01)\n        /* \"#utility.yul\":234:266   */\n      swap1\n      swap5\n      and\n        /* \"#utility.yul\":216:267   */\n      dup5\n      mstore\n        /* \"#utility.yul\":298:300   */\n      0x20\n        /* \"#utility.yul\":283:301   */\n      dup5\n      add\n        /* \"#utility.yul\":276:310   */\n      swap3\n      swap1\n      swap3\n      mstore\n        /* \"#utility.yul\":326:344   */\n      swap1\n      dup3\n      add\n        /* \"#utility.yul\":319:353   */\n      mstore\n        /* \"#utility.yul\":204:206   */\n      0x60\n        /* \"#utility.yul\":189:207   */\n      add\n        /* \"tests/localVariables.sol\":364:735  function local()... */\n    tag_7:\n      mload(0x40)\n      dup1\n      swap2\n      sub\n      swap1\n      return\n        /* \"tests/localVariables.sol\":88:111  uint256 public myNumber */\n    tag_4:\n      tag_9\n      sload(0x00)\n      dup2\n      jump\n    tag_9:\n      mload(0x40)\n        /* \"#utility.yul\":510:535   */\n      swap1\n      dup2\n      mstore\n        /* \"#utility.yul\":498:500   */\n      0x20\n        /* \"#utility.yul\":483:501   */\n      add\n        /* \"tests/localVariables.sol\":88:111  uint256 public myNumber */\n      tag_7\n        /* \"#utility.yul\":364:541   */\n      jump\n        /* \"tests/localVariables.sol\":364:735  function local()... */\n    tag_6:\n        /* \"tests/localVariables.sol\":603:606  345 */\n      0x0159\n        /* \"tests/localVariables.sol\":426:433  address */\n      0x00\n        /* \"tests/localVariables.sol\":616:628  myNumber = i */\n      dup2\n      dup2\n      sstore\n        /* \"tests/localVariables.sol\":426:433  address */\n      swap1\n      dup2\n      swap1\n      dup2\n      swap1\n        /* \"tests/localVariables.sol\":639:646  i += 45 */\n      tag_14\n        /* \"tests/localVariables.sol\":644:646  45 */\n      0x2d\n        /* \"tests/localVariables.sol\":603:606  345 */\n      dup3\n        /* \"tests/localVariables.sol\":639:646  i += 45 */\n      tag_15\n      jump\t// in\n    tag_14:\n        /* \"tests/localVariables.sol\":656:673  address myAddress */\n      0x00\n        /* \"tests/localVariables.sol\":716:724  myNumber */\n      sload\n        /* \"tests/localVariables.sol\":684:685  1 */\n      0x01\n      swap7\n        /* \"tests/localVariables.sol\":716:724  myNumber */\n      swap1\n      swap6\n      pop\n        /* \"tests/localVariables.sol\":639:646  i += 45 */\n      swap1\n      swap4\n      pop\n        /* \"tests/localVariables.sol\":364:735  function local()... */\n      swap2\n      pop\n      pop\n      jump\t// out\n        /* \"#utility.yul\":546:768   */\n    tag_15:\n        /* \"#utility.yul\":611:620   */\n      dup1\n      dup3\n      add\n        /* \"#utility.yul\":632:642   */\n      dup1\n      dup3\n      gt\n        /* \"#utility.yul\":629:762   */\n      iszero\n      tag_20\n      jumpi\n        /* \"#utility.yul\":684:694   */\n      0x4e487b71\n        /* \"#utility.yul\":679:682   */\n      0xe0\n        /* \"#utility.yul\":675:695   */\n      shl\n        /* \"#utility.yul\":672:673   */\n      0x00\n        /* \"#utility.yul\":665:696   */\n      mstore\n        /* \"#utility.yul\":719:723   */\n      0x11\n        /* \"#utility.yul\":716:717   */\n      0x04\n        /* \"#utility.yul\":709:724   */\n      mstore\n        /* \"#utility.yul\":747:751   */\n      0x24\n        /* \"#utility.yul\":744:745   */\n      0x00\n        /* \"#utility.yul\":737:752   */\n      revert\n        /* \"#utility.yul\":629:762   */\n    tag_20:\n        /* \"#utility.yul\":546:768   */\n      swap3\n      swap2\n      pop\n      pop\n      jump\t// out\n\n    auxdata: 0xa26469706673582212205602d4d8b14260606bfca08b312ac8e93e05d270f7dac354d305dae11063dfc064736f6c63430008190033\n}\n",
				"bytecode": {
					"linkReferences": {},
					"object": "6080604052348015600e575f80fd5b5060f78061001b5f395ff3fe6080604052348015600e575f80fd5b50600436106030575f3560e01c80630f166ad414603457806323fd0e40146064575b5f80fd5b603a6078565b604080516001600160a01b0390941684526020840192909252908201526060015b60405180910390f35b606b5f5481565b604051908152602001605b565b6101595f8181559081908190608d602d82609d565b5f54600196909550909350915050565b8082018082111560bb57634e487b7160e01b5f52601160045260245ffd5b9291505056fea26469706673582212205602d4d8b14260606bfca08b312ac8e93e05d270f7dac354d305dae11063dfc064736f6c63430008190033",
					"opcodes": "PUSH1 0x80 PUSH1 0x40 MSTORE CALLVALUE DUP1 ISZERO PUSH1 0xE JUMPI PUSH0 DUP1 REVERT JUMPDEST POP PUSH1 0xF7 DUP1 PUSH2 0x1B PUSH0 CODECOPY PUSH0 RETURN INVALID PUSH1 0x80 PUSH1 0x40 MSTORE CALLVALUE DUP1 ISZERO PUSH1 0xE JUMPI PUSH0 DUP1 REVERT JUMPDEST POP PUSH1 0x4 CALLDATASIZE LT PUSH1 0x30 JUMPI PUSH0 CALLDATALOAD PUSH1 0xE0 SHR DUP1 PUSH4 0xF166AD4 EQ PUSH1 0x34 JUMPI DUP1 PUSH4 0x23FD0E40 EQ PUSH1 0x64 JUMPI JUMPDEST PUSH0 DUP1 REVERT JUMPDEST PUSH1 0x3A PUSH1 0x78 JUMP JUMPDEST PUSH1 0x40 DUP1 MLOAD PUSH1 0x1 PUSH1 0x1 PUSH1 0xA0 SHL SUB SWAP1 SWAP5 AND DUP5 MSTORE PUSH1 0x20 DUP5 ADD SWAP3 SWAP1 SWAP3 MSTORE SWAP1 DUP3 ADD MSTORE PUSH1 0x60 ADD JUMPDEST PUSH1 0x40 MLOAD DUP1 SWAP2 SUB SWAP1 RETURN JUMPDEST PUSH1 0x6B PUSH0 SLOAD DUP2 JUMP JUMPDEST PUSH1 0x40 MLOAD SWAP1 DUP2 MSTORE PUSH1 0x20 ADD PUSH1 0x5B JUMP JUMPDEST PUSH2 0x159 PUSH0 DUP2 DUP2 SSTORE SWAP1 DUP2 SWAP1 DUP2 SWAP1 PUSH1 0x8D PUSH1 0x2D DUP3 PUSH1 0x9D JUMP JUMPDEST PUSH0 SLOAD PUSH1 0x1 SWAP7 SWAP1 SWAP6 POP SWAP1 SWAP4 POP SWAP2 POP POP JUMP JUMPDEST DUP1 DUP3 ADD DUP1 DUP3 GT ISZERO PUSH1 0xBB JUMPI PUSH4 0x4E487B71 PUSH1 0xE0 SHL PUSH0 MSTORE PUSH1 0x11 PUSH1 0x4 MSTORE PUSH1 0x24 PUSH0 REVERT JUMPDEST SWAP3 SWAP2 POP POP JUMP INVALID LOG2 PUSH5 0x6970667358 0x22 SLT KECCAK256 JUMP MUL 0xD4 0xD8 0xB1 TIMESTAMP PUSH1 0x60 PUSH12 0xFCA08B312AC8E93E05D270F7 0xDA 0xC3 SLOAD 0xD3 SDIV 0xDA 0xE1 LT PUSH4 0xDFC06473 PUSH16 0x6C634300081900330000000000000000 "
				},
				"gasEstimates": {
					"creation": {
						"codeDepositCost": "49400",
						"executionCost": "97",
						"totalCost": "49497"
					},
					"external": {
						"local()": "24562",
						"myNumber()": "2293"
					}
				},
				"methodIdentifiers": {
					"local()": "0f166ad4",
					"myNumber()": "23fd0e40"
				}
			},
			"storageLayout": {
				"storage": [
					{
						"astId": 3,
						"contract": "tests/localVariables.sol:LocalVariables",
						"label": "myNumber",
						"offset": 0,
						"slot": "0",
						"type": "t_uint256"
					}
				],
				"types": {
					"t_uint256": {
						"encoding": "inplace",
						"label": "uint256",
						"numberOfBytes": "32"
					}
				}
			},
			"userdoc": {
				"kind": "user",
				"methods": {},
				"version": 1
			}
		}
	}
}