{
	"tests/stateVariables.sol": {
		"StateVariable": {
			"abi": [
				{
					"inputs": [],
					"name": "myNum",
					"outputs": [
						{
							"internalType": "uint256",
							"name": "",
							"type": "uint256"
						}
					],
					"stateMutability": "view",
					"type": "function"
				},
				{
					"inputs": [],
					"name": "myState",
					"outputs": [
						{
							"internalType": "string",
							"name": "",
							"type": "string"
						}
					],
					"stateMutability": "view",
					"type": "function"
				}
			],
			"devdoc": {
				"kind": "dev",
				"methods": {},
				"version": 1
			},
			"evm": {
				"assembly": "    /* \"tests/stateVariables.sol\":61:540  contract StateVariable {... */\n  mstore(0x40, 0x80)\n  callvalue\n  dup1\n  iszero\n  tag_1\n  jumpi\n  0x00\n  dup1\n  revert\ntag_1:\n  pop\n  dataSize(sub_0)\n  dup1\n  dataOffset(sub_0)\n  0x00\n  codecopy\n  0x00\n  return\nstop\n\nsub_0: assembly {\n        /* \"tests/stateVariables.sol\":61:540  contract StateVariable {... */\n      mstore(0x40, 0x80)\n      callvalue\n      dup1\n      iszero\n      tag_1\n      jumpi\n      0x00\n      dup1\n      revert\n    tag_1:\n      pop\n      jumpi(tag_2, lt(calldatasize, 0x04))\n      shr(0xe0, calldataload(0x00))\n      dup1\n      0x8bf1799f\n      eq\n      tag_3\n      jumpi\n      dup1\n      0xd4da005a\n      eq\n      tag_4\n      jumpi\n    tag_2:\n      0x00\n      dup1\n      revert\n        /* \"tests/stateVariables.sol\":158:179  string public myState */\n    tag_3:\n      tag_5\n      tag_6\n      jump\t// in\n    tag_5:\n      mload(0x40)\n      tag_7\n      swap2\n      swap1\n      tag_8\n      jump\t// in\n    tag_7:\n      mload(0x40)\n      dup1\n      swap2\n      sub\n      swap1\n      return\n        /* \"tests/stateVariables.sol\":186:206  uint256 public myNum */\n    tag_4:\n      tag_9\n      sload(0x01)\n      dup2\n      jump\n    tag_9:\n      mload(0x40)\n        /* \"#utility.yul\":583:608   */\n      swap1\n      dup2\n      mstore\n        /* \"#utility.yul\":571:573   */\n      0x20\n        /* \"#utility.yul\":556:574   */\n      add\n        /* \"tests/stateVariables.sol\":186:206  uint256 public myNum */\n      tag_7\n        /* \"#utility.yul\":437:614   */\n      jump\n        /* \"tests/stateVariables.sol\":158:179  string public myState */\n    tag_6:\n      0x00\n      dup1\n      sload\n      tag_13\n      swap1\n      tag_14\n      jump\t// in\n    tag_13:\n      dup1\n      0x1f\n      add\n      0x20\n      dup1\n      swap2\n      div\n      mul\n      0x20\n      add\n      mload(0x40)\n      swap1\n      dup2\n      add\n      0x40\n      mstore\n      dup1\n      swap3\n      swap2\n      swap1\n      dup2\n      dup2\n      mstore\n      0x20\n      add\n      dup3\n      dup1\n      sload\n      tag_15\n      swap1\n      tag_14\n      jump\t// in\n    tag_15:\n      dup1\n      iszero\n      tag_16\n      jumpi\n      dup1\n      0x1f\n      lt\n      tag_17\n      jumpi\n      0x0100\n      dup1\n      dup4\n      sload\n      div\n      mul\n      dup4\n      mstore\n      swap2\n      0x20\n      add\n      swap2\n      jump(tag_16)\n    tag_17:\n      dup3\n      add\n      swap2\n      swap1\n      0x00\n      mstore\n      keccak256(0x00, 0x20)\n      swap1\n    tag_18:\n      dup2\n      sload\n      dup2\n      mstore\n      swap1\n      0x01\n      add\n      swap1\n      0x20\n      add\n      dup1\n      dup4\n      gt\n      tag_18\n      jumpi\n      dup3\n      swap1\n      sub\n      0x1f\n      and\n      dup3\n      add\n      swap2\n    tag_16:\n      pop\n      pop\n      pop\n      pop\n      pop\n      dup2\n      jump\t// out\n        /* \"#utility.yul\":14:432   */\n    tag_8:\n        /* \"#utility.yul\":163:165   */\n      0x20\n        /* \"#utility.yul\":152:161   */\n      dup2\n        /* \"#utility.yul\":145:166   */\n      mstore\n        /* \"#utility.yul\":126:130   */\n      0x00\n        /* \"#utility.yul\":195:201   */\n      dup3\n        /* \"#utility.yul\":189:202   */\n      mload\n        /* \"#utility.yul\":238:244   */\n      dup1\n        /* \"#utility.yul\":233:235   */\n      0x20\n        /* \"#utility.yul\":222:231   */\n      dup5\n        /* \"#utility.yul\":218:236   */\n      add\n        /* \"#utility.yul\":211:245   */\n      mstore\n        /* \"#utility.yul\":297:303   */\n      dup1\n        /* \"#utility.yul\":292:294   */\n      0x20\n        /* \"#utility.yul\":284:290   */\n      dup6\n        /* \"#utility.yul\":280:295   */\n      add\n        /* \"#utility.yul\":275:277   */\n      0x40\n        /* \"#utility.yul\":264:273   */\n      dup6\n        /* \"#utility.yul\":260:278   */\n      add\n        /* \"#utility.yul\":254:304   */\n      mcopy\n        /* \"#utility.yul\":353:354   */\n      0x00\n        /* \"#utility.yul\":348:350   */\n      0x40\n        /* \"#utility.yul\":339:345   */\n      dup3\n        /* \"#utility.yul\":328:337   */\n      dup6\n        /* \"#utility.yul\":324:346   */\n      add\n        /* \"#utility.yul\":320:351   */\n      add\n        /* \"#utility.yul\":313:355   */\n      mstore\n        /* \"#utility.yul\":423:425   */\n      0x40\n        /* \"#utility.yul\":416:418   */\n      0x1f\n        /* \"#utility.yul\":412:419   */\n      not\n        /* \"#utility.yul\":407:409   */\n      0x1f\n        /* \"#utility.yul\":399:405   */\n      dup4\n        /* \"#utility.yul\":395:410   */\n      add\n        /* \"#utility.yul\":391:420   */\n      and\n        /* \"#utility.yul\":380:389   */\n      dup5\n        /* \"#utility.yul\":376:421   */\n      add\n        /* \"#utility.yul\":372:426   */\n      add\n        /* \"#utility.yul\":364:426   */\n      swap2\n      pop\n      pop\n        /* \"#utility.yul\":14:432   */\n      swap3\n      swap2\n      pop\n      pop\n      jump\t// out\n        /* \"#utility.yul\":619:999   */\n    tag_14:\n        /* \"#utility.yul\":698:699   */\n      0x01\n        /* \"#utility.yul\":694:706   */\n      dup2\n      dup2\n      shr\n      swap1\n        /* \"#utility.yul\":741:753   */\n      dup3\n      and\n      dup1\n        /* \"#utility.yul\":762:823   */\n      tag_23\n      jumpi\n        /* \"#utility.yul\":816:820   */\n      0x7f\n        /* \"#utility.yul\":808:814   */\n      dup3\n        /* \"#utility.yul\":804:821   */\n      and\n        /* \"#utility.yul\":794:821   */\n      swap2\n      pop\n        /* \"#utility.yul\":762:823   */\n    tag_23:\n        /* \"#utility.yul\":869:871   */\n      0x20\n        /* \"#utility.yul\":861:867   */\n      dup3\n        /* \"#utility.yul\":858:872   */\n      lt\n        /* \"#utility.yul\":838:856   */\n      dup2\n        /* \"#utility.yul\":835:873   */\n      sub\n        /* \"#utility.yul\":832:993   */\n      tag_24\n      jumpi\n        /* \"#utility.yul\":915:925   */\n      0x4e487b71\n        /* \"#utility.yul\":910:913   */\n      0xe0\n        /* \"#utility.yul\":906:926   */\n      shl\n        /* \"#utility.yul\":903:904   */\n      0x00\n        /* \"#utility.yul\":896:927   */\n      mstore\n        /* \"#utility.yul\":950:954   */\n      0x22\n        /* \"#utility.yul\":947:948   */\n      0x04\n        /* \"#utility.yul\":940:955   */\n      mstore\n        /* \"#utility.yul\":978:982   */\n      0x24\n        /* \"#utility.yul\":975:976   */\n      0x00\n        /* \"#utility.yul\":968:983   */\n      revert\n        /* \"#utility.yul\":832:993   */\n    tag_24:\n      pop\n        /* \"#utility.yul\":619:999   */\n      swap2\n      swap1\n      pop\n      jump\t// out\n\n    auxdata: 0xa264697066735822122004b7b59a034025c893790f9f19f631eb5e9f3fb07e7f2cbb1dbe93e6aecc7e2964736f6c63430008190033\n}\n",
				"bytecode": {
					"linkReferences": {},
					"object": "6080604052348015600e575f80fd5b5061019b8061001c5f395ff3fe608060405234801561000f575f80fd5b5060043610610034575f3560e01c80638bf1799f14610038578063d4da005a14610056575b5f80fd5b61004061006d565b60405161004d91906100f8565b60405180910390f35b61005f60015481565b60405190815260200161004d565b5f80546100799061012d565b80601f01602080910402602001604051908101604052809291908181526020018280546100a59061012d565b80156100f05780601f106100c7576101008083540402835291602001916100f0565b820191905f5260205f20905b8154815290600101906020018083116100d357829003601f168201915b505050505081565b602081525f82518060208401528060208501604085015e5f604082850101526040601f19601f83011684010191505092915050565b600181811c9082168061014157607f821691505b60208210810361015f57634e487b7160e01b5f52602260045260245ffd5b5091905056fea264697066735822122004b7b59a034025c893790f9f19f631eb5e9f3fb07e7f2cbb1dbe93e6aecc7e2964736f6c63430008190033",
					"opcodes": "PUSH1 0x80 PUSH1 0x40 MSTORE CALLVALUE DUP1 ISZERO PUSH1 0xE JUMPI PUSH0 DUP1 REVERT JUMPDEST POP PUSH2 0x19B DUP1 PUSH2 0x1C PUSH0 CODECOPY PUSH0 RETURN INVALID PUSH1 0x80 PUSH1 0x40 MSTORE CALLVALUE DUP1 ISZERO PUSH2 0xF JUMPI PUSH0 DUP1 REVERT JUMPDEST POP PUSH1 0x4 CALLDATASIZE LT PUSH2 0x34 JUMPI PUSH0 CALLDATALOAD PUSH1 0xE0 SHR DUP1 PUSH4 0x8BF1799F EQ PUSH2 0x38 JUMPI DUP1 PUSH4 0xD4DA005A EQ PUSH2 0x56 JUMPI JUMPDEST PUSH0 DUP1 REVERT JUMPDEST PUSH2 0x40 PUSH2 0x6D JUMP JUMPDEST PUSH1 0x40 MLOAD PUSH2 0x4D SWAP2 SWAP1 PUSH2 0xF8 JUMP JUMPDEST PUSH1 0x40 MLOAD DUP1 SWAP2 SUB SWAP1 RETURN JUMPDEST PUSH2 0x5F PUSH1 0x1 SLOAD DUP2 JUMP JUMPDEST PUSH1 0x40 MLOAD SWAP1 DUP2 MSTORE PUSH1 0x20 ADD PUSH2 0x4D JUMP JUMPDEST PUSH0 DUP1 SLOAD PUSH2 0x79 SWAP1 PUSH2 0x12D JUMP JUMPDEST DUP1 PUSH1 0x1F ADD PUSH1 0x20 DUP1 SWAP2 DIV MUL PUSH1 0x20 ADD PUSH1 0x40 MLOAD SWAP1 DUP2 ADD PUSH1 0x40 MSTORE DUP1 SWAP3 SWAP2 SWAP1 DUP2 DUP2 MSTORE PUSH1 0x20 ADD DUP3 DUP1 SLOAD PUSH2 0xA5 SWAP1 PUSH2 0x12D JUMP JUMPDEST DUP1 ISZERO PUSH2 0xF0 JUMPI DUP1 PUSH1 0x1F LT PUSH2 0xC7 JUMPI PUSH2 0x100 DUP1 DUP4 SLOAD DIV MUL DUP4 MSTORE SWAP2 PUSH1 0x20 ADD SWAP2 PUSH2 0xF0 JUMP JUMPDEST DUP3 ADD SWAP2 SWAP1 PUSH0 MSTORE PUSH1 0x20 PUSH0 KECCAK256 SWAP1 JUMPDEST DUP2 SLOAD DUP2 MSTORE SWAP1 PUSH1 0x1 ADD SWAP1 PUSH1 0x20 ADD DUP1 DUP4 GT PUSH2 0xD3 JUMPI DUP3 SWAP1 SUB PUSH1 0x1F AND DUP3 ADD SWAP2 JUMPDEST POP POP POP POP POP DUP2 JUMP JUMPDEST PUSH1 0x20 DUP2 MSTORE PUSH0 DUP3 MLOAD DUP1 PUSH1 0x20 DUP5 ADD MSTORE DUP1 PUSH1 0x20 DUP6 ADD PUSH1 0x40 DUP6 ADD MCOPY PUSH0 PUSH1 0x40 DUP3 DUP6 ADD ADD MSTORE PUSH1 0x40 PUSH1 0x1F NOT PUSH1 0x1F DUP4 ADD AND DUP5 ADD ADD SWAP2 POP POP SWAP3 SWAP2 POP POP JUMP JUMPDEST PUSH1 0x1 DUP2 DUP2 SHR SWAP1 DUP3 AND DUP1 PUSH2 0x141 JUMPI PUSH1 0x7F DUP3 AND SWAP2 POP JUMPDEST PUSH1 0x20 DUP3 LT DUP2 SUB PUSH2 0x15F JUMPI PUSH4 0x4E487B71 PUSH1 0xE0 SHL PUSH0 MSTORE PUSH1 0x22 PUSH1 0x4 MSTORE PUSH1 0x24 PUSH0 REVERT JUMPDEST POP SWAP2 SWAP1 POP JUMP INVALID LOG2 PUSH5 0x6970667358 0x22 SLT KECCAK256 DIV 0xB7 0xB5 SWAP11 SUB BLOCKHASH 0x25 0xC8 SWAP4 PUSH26 0xF9F19F631EB5E9F3FB07E7F2CBB1DBE93E6AECC7E2964736F6C PUSH4 0x43000819 STOP CALLER "
				},
				"gasEstimates": {
					"creation": {
						"codeDepositCost": "82200",
						"executionCost": "127",
						"totalCost": "82327"
					},
					"external": {
						"myNum()": "2294",
						"myState()": "infinite"
					}
				},
				"methodIdentifiers": {
					"myNum()": "d4da005a",
					"myState()": "8bf1799f"
				}
			},
			"storageLayout": {
				"storage": [
					{
						"astId": 3,
						"contract": "tests/stateVariables.sol:StateVariable",
						"label": "myState",
						"offset": 0,
						"slot": "0",
						"type": "t_string_storage"
					},
					{
						"astId": 5,
						"contract": "tests/stateVariables.sol:StateVariable",
						"label": "myNum",
						"offset": 0,
						"slot": "1",
						"type": "t_uint256"
					}
				],
				"types": {
					"t_string_storage": {
						"encoding": "bytes",
						"label": "string",
						"numberOfBytes": "32"
					},
					"t_uint256": {
						"encoding": "inplace",
						"label": "uint256",
						"numberOfBytes": "32"
					}
				}
			},
			"userdoc": {
				"kind": "user",
				"methods": {},
				"version": 1
			}
		}
	}
}