{
	"tests/function.sol": {
		"LearnFunction": {
			"abi": [
				{
					"inputs": [],
					"name": "getInfo",
					"outputs": [
						{
							"internalType": "uint256",
							"name": "",
							"type": "uint256"
						}
					],
					"stateMutability": "view",
					"type": "function"
				},
				{
					"inputs": [
						{
							"internalType": "uint256",
							"name": "_hey",
							"type": "uint256"
						}
					],
					"name": "updateData",
					"outputs": [],
					"stateMutability": "nonpayable",
					"type": "function"
				}
			],
			"devdoc": {
				"kind": "dev",
				"methods": {},
				"version": 1
			},
			"evm": {
				"assembly": "    /* \"tests/function.sol\":60:338  contract LearnFunction {... */\n  mstore(0x40, 0x80)\n  callvalue\n  dup1\n  iszero\n  tag_1\n  jumpi\n  0x00\n  dup1\n  revert\ntag_1:\n  pop\n  dataSize(sub_0)\n  dup1\n  dataOffset(sub_0)\n  0x00\n  codecopy\n  0x00\n  return\nstop\n\nsub_0: assembly {\n        /* \"tests/function.sol\":60:338  contract LearnFunction {... */\n      mstore(0x40, 0x80)\n      callvalue\n      dup1\n      iszero\n      tag_1\n      jumpi\n      0x00\n      dup1\n      revert\n    tag_1:\n      pop\n      jumpi(tag_2, lt(calldatasize, 0x04))\n      shr(0xe0, calldataload(0x00))\n      dup1\n      0x09e96008\n      eq\n      tag_3\n      jumpi\n      dup1\n      0x5a9b0b89\n      eq\n      tag_4\n      jumpi\n    tag_2:\n      0x00\n      dup1\n      revert\n        /* \"tests/function.sol\":266:335  function updateData(uint256 _hey) public{... */\n    tag_3:\n      tag_5\n      tag_6\n      calldatasize\n      0x04\n      tag_7\n      jump\t// in\n    tag_6:\n        /* \"tests/function.sol\":317:320  hey */\n      0x00\n        /* \"tests/function.sol\":317:327  hey = _hey */\n      sstore\n        /* \"tests/function.sol\":266:335  function updateData(uint256 _hey) public{... */\n      jump\n    tag_5:\n      stop\n        /* \"tests/function.sol\":181:258  function getInfo() public view returns(uint256) {... */\n    tag_4:\n        /* \"tests/function.sol\":220:227  uint256 */\n      0x00\n        /* \"tests/function.sol\":247:250  hey */\n      sload\n        /* \"tests/function.sol\":181:258  function getInfo() public view returns(uint256) {... */\n      mload(0x40)\n        /* \"#utility.yul\":345:370   */\n      swap1\n      dup2\n      mstore\n        /* \"#utility.yul\":333:335   */\n      0x20\n        /* \"#utility.yul\":318:336   */\n      add\n        /* \"tests/function.sol\":181:258  function getInfo() public view returns(uint256) {... */\n      mload(0x40)\n      dup1\n      swap2\n      sub\n      swap1\n      return\n        /* \"#utility.yul\":14:194   */\n    tag_7:\n        /* \"#utility.yul\":73:79   */\n      0x00\n        /* \"#utility.yul\":126:128   */\n      0x20\n        /* \"#utility.yul\":114:123   */\n      dup3\n        /* \"#utility.yul\":105:112   */\n      dup5\n        /* \"#utility.yul\":101:124   */\n      sub\n        /* \"#utility.yul\":97:129   */\n      slt\n        /* \"#utility.yul\":94:146   */\n      iszero\n      tag_17\n      jumpi\n        /* \"#utility.yul\":142:143   */\n      0x00\n        /* \"#utility.yul\":139:140   */\n      dup1\n        /* \"#utility.yul\":132:144   */\n      revert\n        /* \"#utility.yul\":94:146   */\n    tag_17:\n      pop\n        /* \"#utility.yul\":165:188   */\n      calldataload\n      swap2\n        /* \"#utility.yul\":14:194   */\n      swap1\n      pop\n      jump\t// out\n\n    auxdata: 0xa26469706673582212209ca5e08b018aaa7d1dfe9334c5652a4deaaedf20822df01478940f428dc30e3764736f6c63430008190033\n}\n",
				"bytecode": {
					"linkReferences": {},
					"object": "6080604052348015600e575f80fd5b5060a580601a5f395ff3fe6080604052348015600e575f80fd5b50600436106030575f3560e01c806309e960081460345780635a9b0b89146045575b5f80fd5b6043603f3660046059565b5f55565b005b5f5460405190815260200160405180910390f35b5f602082840312156068575f80fd5b503591905056fea26469706673582212209ca5e08b018aaa7d1dfe9334c5652a4deaaedf20822df01478940f428dc30e3764736f6c63430008190033",
					"opcodes": "PUSH1 0x80 PUSH1 0x40 MSTORE CALLVALUE DUP1 ISZERO PUSH1 0xE JUMPI PUSH0 DUP1 REVERT JUMPDEST POP PUSH1 0xA5 DUP1 PUSH1 0x1A PUSH0 CODECOPY PUSH0 RETURN INVALID PUSH1 0x80 PUSH1 0x40 MSTORE CALLVALUE DUP1 ISZERO PUSH1 0xE JUMPI PUSH0 DUP1 REVERT JUMPDEST POP PUSH1 0x4 CALLDATASIZE LT PUSH1 0x30 JUMPI PUSH0 CALLDATALOAD PUSH1 0xE0 SHR DUP1 PUSH4 0x9E96008 EQ PUSH1 0x34 JUMPI DUP1 PUSH4 0x5A9B0B89 EQ PUSH1 0x45 JUMPI JUMPDEST PUSH0 DUP1 REVERT JUMPDEST PUSH1 0x43 PUSH1 0x3F CALLDATASIZE PUSH1 0x4 PUSH1 0x59 JUMP JUMPDEST PUSH0 SSTORE JUMP JUMPDEST STOP JUMPDEST PUSH0 SLOAD PUSH1 0x40 MLOAD SWAP1 DUP2 MSTORE PUSH1 0x20 ADD PUSH1 0x40 MLOAD DUP1 SWAP2 SUB SWAP1 RETURN JUMPDEST PUSH0 PUSH1 0x20 DUP3 DUP5 SUB SLT ISZERO PUSH1 0x68 JUMPI PUSH0 DUP1 REVERT JUMPDEST POP CALLDATALOAD SWAP2 SWAP1 POP JUMP INVALID LOG2 PUSH5 0x6970667358 0x22 SLT KECCAK256 SWAP13 0xA5 0xE0 DUP12 ADD DUP11 0xAA PUSH30 0x1DFE9334C5652A4DEAAEDF20822DF01478940F428DC30E3764736F6C6343 STOP ADDMOD NOT STOP CALLER "
				},
				"gasEstimates": {
					"creation": {
						"codeDepositCost": "33000",
						"executionCost": "85",
						"totalCost": "33085"
					},
					"external": {
						"getInfo()": "2266",
						"updateData(uint256)": "22287"
					}
				},
				"methodIdentifiers": {
					"getInfo()": "5a9b0b89",
					"updateData(uint256)": "09e96008"
				}
			},
			"storageLayout": {
				"storage": [
					{
						"astId": 3,
						"contract": "tests/function.sol:LearnFunction",
						"label": "hey",
						"offset": 0,
						"slot": "0",
						"type": "t_uint256"
					}
				],
				"types": {
					"t_uint256": {
						"encoding": "inplace",
						"label": "uint256",
						"numberOfBytes": "32"
					}
				}
			},
			"userdoc": {
				"kind": "user",
				"methods": {},
				"version": 1
			}
		}
	}
}