{
	"tests/function.sol": {
		"LearnFunction": {
			"abi": [
				{
					"inputs": [
						{
							"internalType": "uint256",
							"name": "_a",
							"type": "uint256"
						},
						{
							"internalType": "uint256",
							"name": "_b",
							"type": "uint256"
						}
					],
					"name": "add",
					"outputs": [
						{
							"internalType": "uint256",
							"name": "",
							"type": "uint256"
						}
					],
					"stateMutability": "view",
					"type": "function"
				},
				{
					"inputs": [
						{
							"internalType": "uint256",
							"name": "_a",
							"type": "uint256"
						},
						{
							"internalType": "uint256",
							"name": "_b",
							"type": "uint256"
						}
					],
					"name": "get",
					"outputs": [
						{
							"internalType": "uint256",
							"name": "",
							"type": "uint256"
						}
					],
					"stateMutability": "view",
					"type": "function"
				}
			],
			"devdoc": {
				"kind": "dev",
				"methods": {},
				"version": 1
			},
			"evm": {
				"assembly": "    /* \"tests/function.sol\":60:674  contract LearnFunction {... */\n  mstore(0x40, 0x80)\n  callvalue\n  dup1\n  iszero\n  tag_1\n  jumpi\n  0x00\n  dup1\n  revert\ntag_1:\n  pop\n  dataSize(sub_0)\n  dup1\n  dataOffset(sub_0)\n  0x00\n  codecopy\n  0x00\n  return\nstop\n\nsub_0: assembly {\n        /* \"tests/function.sol\":60:674  contract LearnFunction {... */\n      mstore(0x40, 0x80)\n      callvalue\n      dup1\n      iszero\n      tag_1\n      jumpi\n      0x00\n      dup1\n      revert\n    tag_1:\n      pop\n      jumpi(tag_2, lt(calldatasize, 0x04))\n      shr(0xe0, calldataload(0x00))\n      dup1\n      0x669e48aa\n      eq\n      tag_3\n      jumpi\n      dup1\n      0x771602f7\n      eq\n      tag_3\n      jumpi\n    tag_2:\n      0x00\n      dup1\n      revert\n        /* \"tests/function.sol\":386:521  function get(uint256 _a, uint256 _b) public view returns(uint){... */\n    tag_3:\n      tag_5\n      tag_6\n      calldatasize\n      0x04\n      tag_7\n      jump\t// in\n    tag_6:\n      tag_8\n      jump\t// in\n    tag_5:\n      mload(0x40)\n        /* \"#utility.yul\":413:438   */\n      swap1\n      dup2\n      mstore\n        /* \"#utility.yul\":401:403   */\n      0x20\n        /* \"#utility.yul\":386:404   */\n      add\n        /* \"tests/function.sol\":386:521  function get(uint256 _a, uint256 _b) public view returns(uint){... */\n      mload(0x40)\n      dup1\n      swap2\n      sub\n      swap1\n      return\n    tag_8:\n        /* \"tests/function.sol\":443:447  uint */\n      0x00\n      dup1\n        /* \"tests/function.sol\":479:486  _a + _b */\n      tag_16\n        /* \"tests/function.sol\":484:486  _b */\n      dup4\n        /* \"tests/function.sol\":479:481  _a */\n      dup6\n        /* \"tests/function.sol\":479:486  _a + _b */\n      tag_17\n      jump\t// in\n    tag_16:\n        /* \"tests/function.sol\":459:486  uint256 newNumber = _a + _b */\n      swap2\n      pop\n      pop\n        /* \"tests/function.sol\":386:521  function get(uint256 _a, uint256 _b) public view returns(uint){... */\n    tag_15:\n      swap3\n      swap2\n      pop\n      pop\n      jump\t// out\n        /* \"#utility.yul\":14:262   */\n    tag_7:\n        /* \"#utility.yul\":82:88   */\n      0x00\n        /* \"#utility.yul\":90:96   */\n      dup1\n        /* \"#utility.yul\":143:145   */\n      0x40\n        /* \"#utility.yul\":131:140   */\n      dup4\n        /* \"#utility.yul\":122:129   */\n      dup6\n        /* \"#utility.yul\":118:141   */\n      sub\n        /* \"#utility.yul\":114:146   */\n      slt\n        /* \"#utility.yul\":111:163   */\n      iszero\n      tag_22\n      jumpi\n        /* \"#utility.yul\":159:160   */\n      0x00\n        /* \"#utility.yul\":156:157   */\n      dup1\n        /* \"#utility.yul\":149:161   */\n      revert\n        /* \"#utility.yul\":111:163   */\n    tag_22:\n      pop\n      pop\n        /* \"#utility.yul\":182:205   */\n      dup1\n      calldataload\n      swap3\n        /* \"#utility.yul\":252:254   */\n      0x20\n        /* \"#utility.yul\":237:255   */\n      swap1\n      swap2\n      add\n        /* \"#utility.yul\":224:256   */\n      calldataload\n      swap2\n      pop\n        /* \"#utility.yul\":14:262   */\n      jump\t// out\n        /* \"#utility.yul\":449:671   */\n    tag_17:\n        /* \"#utility.yul\":514:523   */\n      dup1\n      dup3\n      add\n        /* \"#utility.yul\":535:545   */\n      dup1\n      dup3\n      gt\n        /* \"#utility.yul\":532:665   */\n      iszero\n      tag_15\n      jumpi\n        /* \"#utility.yul\":587:597   */\n      0x4e487b71\n        /* \"#utility.yul\":582:585   */\n      0xe0\n        /* \"#utility.yul\":578:598   */\n      shl\n        /* \"#utility.yul\":575:576   */\n      0x00\n        /* \"#utility.yul\":568:599   */\n      mstore\n        /* \"#utility.yul\":622:626   */\n      0x11\n        /* \"#utility.yul\":619:620   */\n      0x04\n        /* \"#utility.yul\":612:627   */\n      mstore\n        /* \"#utility.yul\":650:654   */\n      0x24\n        /* \"#utility.yul\":647:648   */\n      0x00\n        /* \"#utility.yul\":640:655   */\n      revert\n\n    auxdata: 0xa26469706673582212207be398a92ab6c73004454eda37cdc25c731c8ba96136337f6d53aebd1c4a550864736f6c63430008190033\n}\n",
				"bytecode": {
					"linkReferences": {},
					"object": "6080604052348015600e575f80fd5b5060dc80601a5f395ff3fe6080604052348015600e575f80fd5b50600436106030575f3560e01c8063669e48aa146034578063771602f7146034575b5f80fd5b6043603f3660046069565b6055565b60405190815260200160405180910390f35b5f80605f83856088565b9150505b92915050565b5f80604083850312156079575f80fd5b50508035926020909101359150565b80820180821115606357634e487b7160e01b5f52601160045260245ffdfea26469706673582212207be398a92ab6c73004454eda37cdc25c731c8ba96136337f6d53aebd1c4a550864736f6c63430008190033",
					"opcodes": "PUSH1 0x80 PUSH1 0x40 MSTORE CALLVALUE DUP1 ISZERO PUSH1 0xE JUMPI PUSH0 DUP1 REVERT JUMPDEST POP PUSH1 0xDC DUP1 PUSH1 0x1A PUSH0 CODECOPY PUSH0 RETURN INVALID PUSH1 0x80 PUSH1 0x40 MSTORE CALLVALUE DUP1 ISZERO PUSH1 0xE JUMPI PUSH0 DUP1 REVERT JUMPDEST POP PUSH1 0x4 CALLDATASIZE LT PUSH1 0x30 JUMPI PUSH0 CALLDATALOAD PUSH1 0xE0 SHR DUP1 PUSH4 0x669E48AA EQ PUSH1 0x34 JUMPI DUP1 PUSH4 0x771602F7 EQ PUSH1 0x34 JUMPI JUMPDEST PUSH0 DUP1 REVERT JUMPDEST PUSH1 0x43 PUSH1 0x3F CALLDATASIZE PUSH1 0x4 PUSH1 0x69 JUMP JUMPDEST PUSH1 0x55 JUMP JUMPDEST PUSH1 0x40 MLOAD SWAP1 DUP2 MSTORE PUSH1 0x20 ADD PUSH1 0x40 MLOAD DUP1 SWAP2 SUB SWAP1 RETURN JUMPDEST PUSH0 DUP1 PUSH1 0x5F DUP4 DUP6 PUSH1 0x88 JUMP JUMPDEST SWAP2 POP POP JUMPDEST SWAP3 SWAP2 POP POP JUMP JUMPDEST PUSH0 DUP1 PUSH1 0x40 DUP4 DUP6 SUB SLT ISZERO PUSH1 0x79 JUMPI PUSH0 DUP1 REVERT JUMPDEST POP POP DUP1 CALLDATALOAD SWAP3 PUSH1 0x20 SWAP1 SWAP2 ADD CALLDATALOAD SWAP2 POP JUMP JUMPDEST DUP1 DUP3 ADD DUP1 DUP3 GT ISZERO PUSH1 0x63 JUMPI PUSH4 0x4E487B71 PUSH1 0xE0 SHL PUSH0 MSTORE PUSH1 0x11 PUSH1 0x4 MSTORE PUSH1 0x24 PUSH0 REVERT INVALID LOG2 PUSH5 0x6970667358 0x22 SLT KECCAK256 PUSH28 0xE398A92AB6C73004454EDA37CDC25C731C8BA96136337F6D53AEBD1C BLOBBASEFEE SSTORE ADDMOD PUSH5 0x736F6C6343 STOP ADDMOD NOT STOP CALLER "
				},
				"gasEstimates": {
					"creation": {
						"codeDepositCost": "44000",
						"executionCost": "91",
						"totalCost": "44091"
					},
					"external": {
						"add(uint256,uint256)": "infinite",
						"get(uint256,uint256)": "infinite"
					}
				},
				"methodIdentifiers": {
					"add(uint256,uint256)": "771602f7",
					"get(uint256,uint256)": "669e48aa"
				}
			},
			"storageLayout": {
				"storage": [
					{
						"astId": 3,
						"contract": "tests/function.sol:LearnFunction",
						"label": "hey",
						"offset": 0,
						"slot": "0",
						"type": "t_uint256"
					}
				],
				"types": {
					"t_uint256": {
						"encoding": "inplace",
						"label": "uint256",
						"numberOfBytes": "32"
					}
				}
			},
			"userdoc": {
				"kind": "user",
				"methods": {},
				"version": 1
			}
		}
	}
}