{
	"tests/practice.sol": {
		"Mypractice": {
			"abi": [
				{
					"inputs": [],
					"name": "level",
					"outputs": [
						{
							"internalType": "uint256",
							"name": "",
							"type": "uint256"
						}
					],
					"stateMutability": "view",
					"type": "function"
				},
				{
					"inputs": [],
					"name": "levelDecrement",
					"outputs": [],
					"stateMutability": "nonpayable",
					"type": "function"
				},
				{
					"inputs": [],
					"name": "levelIncrement",
					"outputs": [],
					"stateMutability": "nonpayable",
					"type": "function"
				},
				{
					"inputs": [],
					"name": "school",
					"outputs": [
						{
							"internalType": "string",
							"name": "",
							"type": "string"
						}
					],
					"stateMutability": "view",
					"type": "function"
				},
				{
					"inputs": [],
					"name": "toSeeAllLevels",
					"outputs": [
						{
							"internalType": "uint256",
							"name": "",
							"type": "uint256"
						}
					],
					"stateMutability": "view",
					"type": "function"
				}
			],
			"devdoc": {
				"kind": "dev",
				"methods": {},
				"version": 1
			},
			"evm": {
				"assembly": "    /* \"tests/practice.sol\":61:764  contract Mypractice {... */\n  mstore(0x40, 0x80)\n  callvalue\n  dup1\n  iszero\n  tag_1\n  jumpi\n  0x00\n  dup1\n  revert\ntag_1:\n  pop\n  dataSize(sub_0)\n  dup1\n  dataOffset(sub_0)\n  0x00\n  codecopy\n  0x00\n  return\nstop\n\nsub_0: assembly {\n        /* \"tests/practice.sol\":61:764  contract Mypractice {... */\n      mstore(0x40, 0x80)\n      callvalue\n      dup1\n      iszero\n      tag_1\n      jumpi\n      0x00\n      dup1\n      revert\n    tag_1:\n      pop\n      jumpi(tag_2, lt(calldatasize, 0x04))\n      shr(0xe0, calldataload(0x00))\n      dup1\n      0x114244c3\n      eq\n      tag_3\n      jumpi\n      dup1\n      0x6fd5ae15\n      eq\n      tag_4\n      jumpi\n      dup1\n      0x80489e92\n      eq\n      tag_5\n      jumpi\n      dup1\n      0x812c8d5f\n      eq\n      tag_6\n      jumpi\n      dup1\n      0xd4b945d2\n      eq\n      tag_7\n      jumpi\n    tag_2:\n      0x00\n      dup1\n      revert\n        /* \"tests/practice.sol\":671:759  function toSeeAllLevels () public view returns (uint256) {... */\n    tag_3:\n        /* \"tests/practice.sol\":746:751  level */\n      sload(0x01)\n        /* \"tests/practice.sol\":671:759  function toSeeAllLevels () public view returns (uint256) {... */\n    tag_8:\n      mload(0x40)\n        /* \"#utility.yul\":160:185   */\n      swap1\n      dup2\n      mstore\n        /* \"#utility.yul\":148:150   */\n      0x20\n        /* \"#utility.yul\":133:151   */\n      add\n        /* \"tests/practice.sol\":671:759  function toSeeAllLevels () public view returns (uint256) {... */\n    tag_10:\n      mload(0x40)\n      dup1\n      swap2\n      sub\n      swap1\n      return\n        /* \"tests/practice.sol\":227:247  uint256 public level */\n    tag_4:\n      tag_8\n      sload(0x01)\n      dup2\n      jump\n        /* \"tests/practice.sol\":527:591  function levelIncrement () public  {... */\n    tag_5:\n      tag_15\n      tag_16\n      jump\t// in\n    tag_15:\n      stop\n        /* \"tests/practice.sol\":200:220  string public school */\n    tag_6:\n      tag_17\n      tag_18\n      jump\t// in\n    tag_17:\n      mload(0x40)\n      tag_10\n      swap2\n      swap1\n      tag_20\n      jump\t// in\n        /* \"tests/practice.sol\":599:663  function levelDecrement () public  {... */\n    tag_7:\n      tag_15\n      tag_22\n      jump\t// in\n        /* \"tests/practice.sol\":527:591  function levelIncrement () public  {... */\n    tag_16:\n        /* \"tests/practice.sol\":582:583  1 */\n      0x01\n        /* \"tests/practice.sol\":573:578  level */\n      dup1\n      0x00\n        /* \"tests/practice.sol\":573:583  level += 1 */\n      dup3\n      dup3\n      sload\n      tag_25\n      swap2\n      swap1\n      tag_26\n      jump\t// in\n    tag_25:\n      swap1\n      swap2\n      sstore\n      pop\n      pop\n        /* \"tests/practice.sol\":527:591  function levelIncrement () public  {... */\n      jump\t// out\n        /* \"tests/practice.sol\":200:220  string public school */\n    tag_18:\n      0x00\n      dup1\n      sload\n      tag_27\n      swap1\n      tag_28\n      jump\t// in\n    tag_27:\n      dup1\n      0x1f\n      add\n      0x20\n      dup1\n      swap2\n      div\n      mul\n      0x20\n      add\n      mload(0x40)\n      swap1\n      dup2\n      add\n      0x40\n      mstore\n      dup1\n      swap3\n      swap2\n      swap1\n      dup2\n      dup2\n      mstore\n      0x20\n      add\n      dup3\n      dup1\n      sload\n      tag_29\n      swap1\n      tag_28\n      jump\t// in\n    tag_29:\n      dup1\n      iszero\n      tag_30\n      jumpi\n      dup1\n      0x1f\n      lt\n      tag_31\n      jumpi\n      0x0100\n      dup1\n      dup4\n      sload\n      div\n      mul\n      dup4\n      mstore\n      swap2\n      0x20\n      add\n      swap2\n      jump(tag_30)\n    tag_31:\n      dup3\n      add\n      swap2\n      swap1\n      0x00\n      mstore\n      keccak256(0x00, 0x20)\n      swap1\n    tag_32:\n      dup2\n      sload\n      dup2\n      mstore\n      swap1\n      0x01\n      add\n      swap1\n      0x20\n      add\n      dup1\n      dup4\n      gt\n      tag_32\n      jumpi\n      dup3\n      swap1\n      sub\n      0x1f\n      and\n      dup3\n      add\n      swap2\n    tag_30:\n      pop\n      pop\n      pop\n      pop\n      pop\n      dup2\n      jump\t// out\n        /* \"tests/practice.sol\":599:663  function levelDecrement () public  {... */\n    tag_22:\n        /* \"tests/practice.sol\":654:655  1 */\n      0x01\n        /* \"tests/practice.sol\":645:650  level */\n      dup1\n      0x00\n        /* \"tests/practice.sol\":645:655  level -= 1 */\n      dup3\n      dup3\n      sload\n      tag_25\n      swap2\n      swap1\n      tag_35\n      jump\t// in\n        /* \"#utility.yul\":196:614   */\n    tag_20:\n        /* \"#utility.yul\":345:347   */\n      0x20\n        /* \"#utility.yul\":334:343   */\n      dup2\n        /* \"#utility.yul\":327:348   */\n      mstore\n        /* \"#utility.yul\":308:312   */\n      0x00\n        /* \"#utility.yul\":377:383   */\n      dup3\n        /* \"#utility.yul\":371:384   */\n      mload\n        /* \"#utility.yul\":420:426   */\n      dup1\n        /* \"#utility.yul\":415:417   */\n      0x20\n        /* \"#utility.yul\":404:413   */\n      dup5\n        /* \"#utility.yul\":400:418   */\n      add\n        /* \"#utility.yul\":393:427   */\n      mstore\n        /* \"#utility.yul\":479:485   */\n      dup1\n        /* \"#utility.yul\":474:476   */\n      0x20\n        /* \"#utility.yul\":466:472   */\n      dup6\n        /* \"#utility.yul\":462:477   */\n      add\n        /* \"#utility.yul\":457:459   */\n      0x40\n        /* \"#utility.yul\":446:455   */\n      dup6\n        /* \"#utility.yul\":442:460   */\n      add\n        /* \"#utility.yul\":436:486   */\n      mcopy\n        /* \"#utility.yul\":535:536   */\n      0x00\n        /* \"#utility.yul\":530:532   */\n      0x40\n        /* \"#utility.yul\":521:527   */\n      dup3\n        /* \"#utility.yul\":510:519   */\n      dup6\n        /* \"#utility.yul\":506:528   */\n      add\n        /* \"#utility.yul\":502:533   */\n      add\n        /* \"#utility.yul\":495:537   */\n      mstore\n        /* \"#utility.yul\":605:607   */\n      0x40\n        /* \"#utility.yul\":598:600   */\n      0x1f\n        /* \"#utility.yul\":594:601   */\n      not\n        /* \"#utility.yul\":589:591   */\n      0x1f\n        /* \"#utility.yul\":581:587   */\n      dup4\n        /* \"#utility.yul\":577:592   */\n      add\n        /* \"#utility.yul\":573:602   */\n      and\n        /* \"#utility.yul\":562:571   */\n      dup5\n        /* \"#utility.yul\":558:603   */\n      add\n        /* \"#utility.yul\":554:608   */\n      add\n        /* \"#utility.yul\":546:608   */\n      swap2\n      pop\n      pop\n        /* \"#utility.yul\":196:614   */\n      swap3\n      swap2\n      pop\n      pop\n      jump\t// out\n        /* \"#utility.yul\":619:746   */\n    tag_36:\n        /* \"#utility.yul\":680:690   */\n      0x4e487b71\n        /* \"#utility.yul\":675:678   */\n      0xe0\n        /* \"#utility.yul\":671:691   */\n      shl\n        /* \"#utility.yul\":668:669   */\n      0x00\n        /* \"#utility.yul\":661:692   */\n      mstore\n        /* \"#utility.yul\":711:715   */\n      0x11\n        /* \"#utility.yul\":708:709   */\n      0x04\n        /* \"#utility.yul\":701:716   */\n      mstore\n        /* \"#utility.yul\":735:739   */\n      0x24\n        /* \"#utility.yul\":732:733   */\n      0x00\n        /* \"#utility.yul\":725:740   */\n      revert\n        /* \"#utility.yul\":751:876   */\n    tag_26:\n        /* \"#utility.yul\":816:825   */\n      dup1\n      dup3\n      add\n        /* \"#utility.yul\":837:847   */\n      dup1\n      dup3\n      gt\n        /* \"#utility.yul\":834:870   */\n      iszero\n      tag_43\n      jumpi\n        /* \"#utility.yul\":850:868   */\n      tag_43\n      tag_36\n      jump\t// in\n    tag_43:\n        /* \"#utility.yul\":751:876   */\n      swap3\n      swap2\n      pop\n      pop\n      jump\t// out\n        /* \"#utility.yul\":881:1261   */\n    tag_28:\n        /* \"#utility.yul\":960:961   */\n      0x01\n        /* \"#utility.yul\":956:968   */\n      dup2\n      dup2\n      shr\n      swap1\n        /* \"#utility.yul\":1003:1015   */\n      dup3\n      and\n      dup1\n        /* \"#utility.yul\":1024:1085   */\n      tag_45\n      jumpi\n        /* \"#utility.yul\":1078:1082   */\n      0x7f\n        /* \"#utility.yul\":1070:1076   */\n      dup3\n        /* \"#utility.yul\":1066:1083   */\n      and\n        /* \"#utility.yul\":1056:1083   */\n      swap2\n      pop\n        /* \"#utility.yul\":1024:1085   */\n    tag_45:\n        /* \"#utility.yul\":1131:1133   */\n      0x20\n        /* \"#utility.yul\":1123:1129   */\n      dup3\n        /* \"#utility.yul\":1120:1134   */\n      lt\n        /* \"#utility.yul\":1100:1118   */\n      dup2\n        /* \"#utility.yul\":1097:1135   */\n      sub\n        /* \"#utility.yul\":1094:1255   */\n      tag_46\n      jumpi\n        /* \"#utility.yul\":1177:1187   */\n      0x4e487b71\n        /* \"#utility.yul\":1172:1175   */\n      0xe0\n        /* \"#utility.yul\":1168:1188   */\n      shl\n        /* \"#utility.yul\":1165:1166   */\n      0x00\n        /* \"#utility.yul\":1158:1189   */\n      mstore\n        /* \"#utility.yul\":1212:1216   */\n      0x22\n        /* \"#utility.yul\":1209:1210   */\n      0x04\n        /* \"#utility.yul\":1202:1217   */\n      mstore\n        /* \"#utility.yul\":1240:1244   */\n      0x24\n        /* \"#utility.yul\":1237:1238   */\n      0x00\n        /* \"#utility.yul\":1230:1245   */\n      revert\n        /* \"#utility.yul\":1094:1255   */\n    tag_46:\n      pop\n        /* \"#utility.yul\":881:1261   */\n      swap2\n      swap1\n      pop\n      jump\t// out\n        /* \"#utility.yul\":1266:1394   */\n    tag_35:\n        /* \"#utility.yul\":1333:1342   */\n      dup2\n      dup2\n      sub\n        /* \"#utility.yul\":1354:1365   */\n      dup2\n      dup2\n      gt\n        /* \"#utility.yul\":1351:1388   */\n      iszero\n      tag_43\n      jumpi\n        /* \"#utility.yul\":1368:1386   */\n      tag_43\n      tag_36\n      jump\t// in\n\n    auxdata: 0xa2646970667358221220c1d6a9a47886dadfcf2018119806c1435b85091e22a64ea184a7523cc378c03c64736f6c63430008190033\n}\n",
				"bytecode": {
					"linkReferences": {},
					"object": "6080604052348015600e575f80fd5b506102378061001c5f395ff3fe608060405234801561000f575f80fd5b5060043610610055575f3560e01c8063114244c3146100595780636fd5ae151461007057806380489e9214610079578063812c8d5f14610083578063d4b945d214610098575b5f80fd5b6001545b6040519081526020015b60405180910390f35b61005d60015481565b6100816100a0565b005b61008b6100b8565b6040516100679190610154565b610081610143565b6001805f8282546100b1919061019d565b9091555050565b5f80546100c4906101b6565b80601f01602080910402602001604051908101604052809291908181526020018280546100f0906101b6565b801561013b5780601f106101125761010080835404028352916020019161013b565b820191905f5260205f20905b81548152906001019060200180831161011e57829003601f168201915b505050505081565b6001805f8282546100b191906101ee565b602081525f82518060208401528060208501604085015e5f604082850101526040601f19601f83011684010191505092915050565b634e487b7160e01b5f52601160045260245ffd5b808201808211156101b0576101b0610189565b92915050565b600181811c908216806101ca57607f821691505b6020821081036101e857634e487b7160e01b5f52602260045260245ffd5b50919050565b818103818111156101b0576101b061018956fea2646970667358221220c1d6a9a47886dadfcf2018119806c1435b85091e22a64ea184a7523cc378c03c64736f6c63430008190033",
					"opcodes": "PUSH1 0x80 PUSH1 0x40 MSTORE CALLVALUE DUP1 ISZERO PUSH1 0xE JUMPI PUSH0 DUP1 REVERT JUMPDEST POP PUSH2 0x237 DUP1 PUSH2 0x1C PUSH0 CODECOPY PUSH0 RETURN INVALID PUSH1 0x80 PUSH1 0x40 MSTORE CALLVALUE DUP1 ISZERO PUSH2 0xF JUMPI PUSH0 DUP1 REVERT JUMPDEST POP PUSH1 0x4 CALLDATASIZE LT PUSH2 0x55 JUMPI PUSH0 CALLDATALOAD PUSH1 0xE0 SHR DUP1 PUSH4 0x114244C3 EQ PUSH2 0x59 JUMPI DUP1 PUSH4 0x6FD5AE15 EQ PUSH2 0x70 JUMPI DUP1 PUSH4 0x80489E92 EQ PUSH2 0x79 JUMPI DUP1 PUSH4 0x812C8D5F EQ PUSH2 0x83 JUMPI DUP1 PUSH4 0xD4B945D2 EQ PUSH2 0x98 JUMPI JUMPDEST PUSH0 DUP1 REVERT JUMPDEST PUSH1 0x1 SLOAD JUMPDEST PUSH1 0x40 MLOAD SWAP1 DUP2 MSTORE PUSH1 0x20 ADD JUMPDEST PUSH1 0x40 MLOAD DUP1 SWAP2 SUB SWAP1 RETURN JUMPDEST PUSH2 0x5D PUSH1 0x1 SLOAD DUP2 JUMP JUMPDEST PUSH2 0x81 PUSH2 0xA0 JUMP JUMPDEST STOP JUMPDEST PUSH2 0x8B PUSH2 0xB8 JUMP JUMPDEST PUSH1 0x40 MLOAD PUSH2 0x67 SWAP2 SWAP1 PUSH2 0x154 JUMP JUMPDEST PUSH2 0x81 PUSH2 0x143 JUMP JUMPDEST PUSH1 0x1 DUP1 PUSH0 DUP3 DUP3 SLOAD PUSH2 0xB1 SWAP2 SWAP1 PUSH2 0x19D JUMP JUMPDEST SWAP1 SWAP2 SSTORE POP POP JUMP JUMPDEST PUSH0 DUP1 SLOAD PUSH2 0xC4 SWAP1 PUSH2 0x1B6 JUMP JUMPDEST DUP1 PUSH1 0x1F ADD PUSH1 0x20 DUP1 SWAP2 DIV MUL PUSH1 0x20 ADD PUSH1 0x40 MLOAD SWAP1 DUP2 ADD PUSH1 0x40 MSTORE DUP1 SWAP3 SWAP2 SWAP1 DUP2 DUP2 MSTORE PUSH1 0x20 ADD DUP3 DUP1 SLOAD PUSH2 0xF0 SWAP1 PUSH2 0x1B6 JUMP JUMPDEST DUP1 ISZERO PUSH2 0x13B JUMPI DUP1 PUSH1 0x1F LT PUSH2 0x112 JUMPI PUSH2 0x100 DUP1 DUP4 SLOAD DIV MUL DUP4 MSTORE SWAP2 PUSH1 0x20 ADD SWAP2 PUSH2 0x13B JUMP JUMPDEST DUP3 ADD SWAP2 SWAP1 PUSH0 MSTORE PUSH1 0x20 PUSH0 KECCAK256 SWAP1 JUMPDEST DUP2 SLOAD DUP2 MSTORE SWAP1 PUSH1 0x1 ADD SWAP1 PUSH1 0x20 ADD DUP1 DUP4 GT PUSH2 0x11E JUMPI DUP3 SWAP1 SUB PUSH1 0x1F AND DUP3 ADD SWAP2 JUMPDEST POP POP POP POP POP DUP2 JUMP JUMPDEST PUSH1 0x1 DUP1 PUSH0 DUP3 DUP3 SLOAD PUSH2 0xB1 SWAP2 SWAP1 PUSH2 0x1EE JUMP JUMPDEST PUSH1 0x20 DUP2 MSTORE PUSH0 DUP3 MLOAD DUP1 PUSH1 0x20 DUP5 ADD MSTORE DUP1 PUSH1 0x20 DUP6 ADD PUSH1 0x40 DUP6 ADD MCOPY PUSH0 PUSH1 0x40 DUP3 DUP6 ADD ADD MSTORE PUSH1 0x40 PUSH1 0x1F NOT PUSH1 0x1F DUP4 ADD AND DUP5 ADD ADD SWAP2 POP POP SWAP3 SWAP2 POP POP JUMP JUMPDEST PUSH4 0x4E487B71 PUSH1 0xE0 SHL PUSH0 MSTORE PUSH1 0x11 PUSH1 0x4 MSTORE PUSH1 0x24 PUSH0 REVERT JUMPDEST DUP1 DUP3 ADD DUP1 DUP3 GT ISZERO PUSH2 0x1B0 JUMPI PUSH2 0x1B0 PUSH2 0x189 JUMP JUMPDEST SWAP3 SWAP2 POP POP JUMP JUMPDEST PUSH1 0x1 DUP2 DUP2 SHR SWAP1 DUP3 AND DUP1 PUSH2 0x1CA JUMPI PUSH1 0x7F DUP3 AND SWAP2 POP JUMPDEST PUSH1 0x20 DUP3 LT DUP2 SUB PUSH2 0x1E8 JUMPI PUSH4 0x4E487B71 PUSH1 0xE0 SHL PUSH0 MSTORE PUSH1 0x22 PUSH1 0x4 MSTORE PUSH1 0x24 PUSH0 REVERT JUMPDEST POP SWAP2 SWAP1 POP JUMP JUMPDEST DUP2 DUP2 SUB DUP2 DUP2 GT ISZERO PUSH2 0x1B0 JUMPI PUSH2 0x1B0 PUSH2 0x189 JUMP INVALID LOG2 PUSH5 0x6970667358 0x22 SLT KECCAK256 0xC1 0xD6 0xA9 LOG4 PUSH25 0x86DADFCF2018119806C1435B85091E22A64EA184A7523CC378 0xC0 EXTCODECOPY PUSH5 0x736F6C6343 STOP ADDMOD NOT STOP CALLER "
				},
				"gasEstimates": {
					"creation": {
						"codeDepositCost": "113400",
						"executionCost": "157",
						"totalCost": "113557"
					},
					"external": {
						"level()": "2283",
						"levelDecrement()": "24508",
						"levelIncrement()": "24464",
						"school()": "infinite",
						"toSeeAllLevels()": "2247"
					}
				},
				"methodIdentifiers": {
					"level()": "6fd5ae15",
					"levelDecrement()": "d4b945d2",
					"levelIncrement()": "80489e92",
					"school()": "812c8d5f",
					"toSeeAllLevels()": "114244c3"
				}
			},
			"storageLayout": {
				"storage": [
					{
						"astId": 3,
						"contract": "tests/practice.sol:Mypractice",
						"label": "school",
						"offset": 0,
						"slot": "0",
						"type": "t_string_storage"
					},
					{
						"astId": 5,
						"contract": "tests/practice.sol:Mypractice",
						"label": "level",
						"offset": 0,
						"slot": "1",
						"type": "t_uint256"
					}
				],
				"types": {
					"t_string_storage": {
						"encoding": "bytes",
						"label": "string",
						"numberOfBytes": "32"
					},
					"t_uint256": {
						"encoding": "inplace",
						"label": "uint256",
						"numberOfBytes": "32"
					}
				}
			},
			"userdoc": {
				"kind": "user",
				"methods": {},
				"version": 1
			}
		}
	}
}