{
	"tests/stateVariables.sol": {
		"StateVariable": {
			"abi": [
				{
					"inputs": [],
					"name": "myNum",
					"outputs": [
						{
							"internalType": "uint256",
							"name": "",
							"type": "uint256"
						}
					],
					"stateMutability": "view",
					"type": "function"
				},
				{
					"inputs": [],
					"name": "myState",
					"outputs": [
						{
							"internalType": "string",
							"name": "",
							"type": "string"
						}
					],
					"stateMutability": "view",
					"type": "function"
				},
				{
					"inputs": [
						{
							"internalType": "string",
							"name": "_text",
							"type": "string"
						},
						{
							"internalType": "uint256",
							"name": "_no",
							"type": "uint256"
						}
					],
					"name": "update",
					"outputs": [],
					"stateMutability": "nonpayable",
					"type": "function"
				}
			],
			"devdoc": {
				"kind": "dev",
				"methods": {},
				"version": 1
			},
			"evm": {
				"assembly": "    /* \"tests/stateVariables.sol\":61:868  contract StateVariable {... */\n  mstore(0x40, 0x80)\n  callvalue\n  dup1\n  iszero\n  tag_1\n  jumpi\n  0x00\n  dup1\n  revert\ntag_1:\n  pop\n  dataSize(sub_0)\n  dup1\n  dataOffset(sub_0)\n  0x00\n  codecopy\n  0x00\n  return\nstop\n\nsub_0: assembly {\n        /* \"tests/stateVariables.sol\":61:868  contract StateVariable {... */\n      mstore(0x40, 0x80)\n      callvalue\n      dup1\n      iszero\n      tag_1\n      jumpi\n      0x00\n      dup1\n      revert\n    tag_1:\n      pop\n      jumpi(tag_2, lt(calldatasize, 0x04))\n      shr(0xe0, calldataload(0x00))\n      dup1\n      0x4ee5c2ee\n      eq\n      tag_3\n      jumpi\n      dup1\n      0x8bf1799f\n      eq\n      tag_4\n      jumpi\n      dup1\n      0xd4da005a\n      eq\n      tag_5\n      jumpi\n    tag_2:\n      0x00\n      dup1\n      revert\n        /* \"tests/stateVariables.sol\":732:863  function update(string memory _text, uint _no) public  {... */\n    tag_3:\n      tag_6\n      tag_7\n      calldatasize\n      0x04\n      tag_8\n      jump\t// in\n    tag_7:\n      tag_9\n      jump\t// in\n    tag_6:\n      stop\n        /* \"tests/stateVariables.sol\":550:571  string public myState */\n    tag_4:\n      tag_10\n      tag_11\n      jump\t// in\n    tag_10:\n      mload(0x40)\n      tag_12\n      swap2\n      swap1\n      tag_13\n      jump\t// in\n    tag_12:\n      mload(0x40)\n      dup1\n      swap2\n      sub\n      swap1\n      return\n        /* \"tests/stateVariables.sol\":578:598  uint256 public myNum */\n    tag_5:\n      tag_14\n      sload(0x01)\n      dup2\n      jump\n    tag_14:\n      mload(0x40)\n        /* \"#utility.yul\":1720:1745   */\n      swap1\n      dup2\n      mstore\n        /* \"#utility.yul\":1708:1710   */\n      0x20\n        /* \"#utility.yul\":1693:1711   */\n      add\n        /* \"tests/stateVariables.sol\":578:598  uint256 public myNum */\n      tag_12\n        /* \"#utility.yul\":1574:1751   */\n      jump\n        /* \"tests/stateVariables.sol\":732:863  function update(string memory _text, uint _no) public  {... */\n    tag_9:\n        /* \"tests/stateVariables.sol\":812:819  myState */\n      0x00\n        /* \"tests/stateVariables.sol\":812:827  myState = _text */\n      tag_19\n        /* \"tests/stateVariables.sol\":822:827  _text */\n      dup4\n        /* \"tests/stateVariables.sol\":812:819  myState */\n      dup3\n        /* \"tests/stateVariables.sol\":812:827  myState = _text */\n      tag_20\n      jump\t// in\n    tag_19:\n      pop\n        /* \"tests/stateVariables.sol\":842:847  myNum */\n      0x01\n        /* \"tests/stateVariables.sol\":842:853  myNum = _no */\n      sstore\n      pop\n        /* \"tests/stateVariables.sol\":732:863  function update(string memory _text, uint _no) public  {... */\n      jump\t// out\n        /* \"tests/stateVariables.sol\":550:571  string public myState */\n    tag_11:\n      0x00\n      dup1\n      sload\n      tag_21\n      swap1\n      tag_22\n      jump\t// in\n    tag_21:\n      dup1\n      0x1f\n      add\n      0x20\n      dup1\n      swap2\n      div\n      mul\n      0x20\n      add\n      mload(0x40)\n      swap1\n      dup2\n      add\n      0x40\n      mstore\n      dup1\n      swap3\n      swap2\n      swap1\n      dup2\n      dup2\n      mstore\n      0x20\n      add\n      dup3\n      dup1\n      sload\n      tag_23\n      swap1\n      tag_22\n      jump\t// in\n    tag_23:\n      dup1\n      iszero\n      tag_24\n      jumpi\n      dup1\n      0x1f\n      lt\n      tag_25\n      jumpi\n      0x0100\n      dup1\n      dup4\n      sload\n      div\n      mul\n      dup4\n      mstore\n      swap2\n      0x20\n      add\n      swap2\n      jump(tag_24)\n    tag_25:\n      dup3\n      add\n      swap2\n      swap1\n      0x00\n      mstore\n      keccak256(0x00, 0x20)\n      swap1\n    tag_26:\n      dup2\n      sload\n      dup2\n      mstore\n      swap1\n      0x01\n      add\n      swap1\n      0x20\n      add\n      dup1\n      dup4\n      gt\n      tag_26\n      jumpi\n      dup3\n      swap1\n      sub\n      0x1f\n      and\n      dup3\n      add\n      swap2\n    tag_24:\n      pop\n      pop\n      pop\n      pop\n      pop\n      dup2\n      jump\t// out\n        /* \"#utility.yul\":14:141   */\n    tag_27:\n        /* \"#utility.yul\":75:85   */\n      0x4e487b71\n        /* \"#utility.yul\":70:73   */\n      0xe0\n        /* \"#utility.yul\":66:86   */\n      shl\n        /* \"#utility.yul\":63:64   */\n      0x00\n        /* \"#utility.yul\":56:87   */\n      mstore\n        /* \"#utility.yul\":106:110   */\n      0x41\n        /* \"#utility.yul\":103:104   */\n      0x04\n        /* \"#utility.yul\":96:111   */\n      mstore\n        /* \"#utility.yul\":130:134   */\n      0x24\n        /* \"#utility.yul\":127:128   */\n      0x00\n        /* \"#utility.yul\":120:135   */\n      revert\n        /* \"#utility.yul\":146:1146   */\n    tag_8:\n        /* \"#utility.yul\":224:230   */\n      0x00\n        /* \"#utility.yul\":232:238   */\n      dup1\n        /* \"#utility.yul\":285:287   */\n      0x40\n        /* \"#utility.yul\":273:282   */\n      dup4\n        /* \"#utility.yul\":264:271   */\n      dup6\n        /* \"#utility.yul\":260:283   */\n      sub\n        /* \"#utility.yul\":256:288   */\n      slt\n        /* \"#utility.yul\":253:305   */\n      iszero\n      tag_34\n      jumpi\n        /* \"#utility.yul\":301:302   */\n      0x00\n        /* \"#utility.yul\":298:299   */\n      dup1\n        /* \"#utility.yul\":291:303   */\n      revert\n        /* \"#utility.yul\":253:305   */\n    tag_34:\n        /* \"#utility.yul\":341:350   */\n      dup3\n        /* \"#utility.yul\":328:351   */\n      calldataload\n        /* \"#utility.yul\":370:388   */\n      0xffffffffffffffff\n        /* \"#utility.yul\":411:413   */\n      dup1\n        /* \"#utility.yul\":403:409   */\n      dup3\n        /* \"#utility.yul\":400:414   */\n      gt\n        /* \"#utility.yul\":397:431   */\n      iszero\n      tag_35\n      jumpi\n        /* \"#utility.yul\":427:428   */\n      0x00\n        /* \"#utility.yul\":424:425   */\n      dup1\n        /* \"#utility.yul\":417:429   */\n      revert\n        /* \"#utility.yul\":397:431   */\n    tag_35:\n        /* \"#utility.yul\":465:471   */\n      dup2\n        /* \"#utility.yul\":454:463   */\n      dup6\n        /* \"#utility.yul\":450:472   */\n      add\n        /* \"#utility.yul\":440:472   */\n      swap2\n      pop\n        /* \"#utility.yul\":510:517   */\n      dup6\n        /* \"#utility.yul\":503:507   */\n      0x1f\n        /* \"#utility.yul\":499:501   */\n      dup4\n        /* \"#utility.yul\":495:508   */\n      add\n        /* \"#utility.yul\":491:518   */\n      slt\n        /* \"#utility.yul\":481:536   */\n      tag_36\n      jumpi\n        /* \"#utility.yul\":532:533   */\n      0x00\n        /* \"#utility.yul\":529:530   */\n      dup1\n        /* \"#utility.yul\":522:534   */\n      revert\n        /* \"#utility.yul\":481:536   */\n    tag_36:\n        /* \"#utility.yul\":568:570   */\n      dup2\n        /* \"#utility.yul\":555:571   */\n      calldataload\n        /* \"#utility.yul\":590:592   */\n      dup2\n        /* \"#utility.yul\":586:588   */\n      dup2\n        /* \"#utility.yul\":583:593   */\n      gt\n        /* \"#utility.yul\":580:616   */\n      iszero\n      tag_38\n      jumpi\n        /* \"#utility.yul\":596:614   */\n      tag_38\n      tag_27\n      jump\t// in\n    tag_38:\n        /* \"#utility.yul\":671:673   */\n      0x40\n        /* \"#utility.yul\":665:674   */\n      mload\n        /* \"#utility.yul\":639:641   */\n      0x1f\n        /* \"#utility.yul\":725:738   */\n      dup3\n      add\n      not(0x1f)\n        /* \"#utility.yul\":721:743   */\n      swap1\n      dup2\n      and\n        /* \"#utility.yul\":745:747   */\n      0x3f\n        /* \"#utility.yul\":717:748   */\n      add\n        /* \"#utility.yul\":713:753   */\n      and\n        /* \"#utility.yul\":701:754   */\n      dup2\n      add\n      swap1\n        /* \"#utility.yul\":769:787   */\n      dup4\n      dup3\n      gt\n        /* \"#utility.yul\":789:811   */\n      dup2\n      dup4\n      lt\n        /* \"#utility.yul\":766:812   */\n      or\n        /* \"#utility.yul\":763:835   */\n      iszero\n      tag_40\n      jumpi\n        /* \"#utility.yul\":815:833   */\n      tag_40\n      tag_27\n      jump\t// in\n    tag_40:\n        /* \"#utility.yul\":855:865   */\n      dup2\n        /* \"#utility.yul\":851:853   */\n      0x40\n        /* \"#utility.yul\":844:866   */\n      mstore\n        /* \"#utility.yul\":890:892   */\n      dup3\n        /* \"#utility.yul\":882:888   */\n      dup2\n        /* \"#utility.yul\":875:893   */\n      mstore\n        /* \"#utility.yul\":932:939   */\n      dup9\n        /* \"#utility.yul\":925:929   */\n      0x20\n        /* \"#utility.yul\":920:922   */\n      dup5\n        /* \"#utility.yul\":916:918   */\n      dup8\n        /* \"#utility.yul\":912:923   */\n      add\n        /* \"#utility.yul\":908:930   */\n      add\n        /* \"#utility.yul\":905:940   */\n      gt\n        /* \"#utility.yul\":902:957   */\n      iszero\n      tag_41\n      jumpi\n        /* \"#utility.yul\":953:954   */\n      0x00\n        /* \"#utility.yul\":950:951   */\n      dup1\n        /* \"#utility.yul\":943:955   */\n      revert\n        /* \"#utility.yul\":902:957   */\n    tag_41:\n        /* \"#utility.yul\":1013:1015   */\n      dup3\n        /* \"#utility.yul\":1006:1010   */\n      0x20\n        /* \"#utility.yul\":1002:1004   */\n      dup7\n        /* \"#utility.yul\":998:1011   */\n      add\n        /* \"#utility.yul\":991:995   */\n      0x20\n        /* \"#utility.yul\":983:989   */\n      dup4\n        /* \"#utility.yul\":979:996   */\n      add\n        /* \"#utility.yul\":966:1016   */\n      calldatacopy\n        /* \"#utility.yul\":1060:1061   */\n      0x00\n        /* \"#utility.yul\":1053:1057   */\n      0x20\n        /* \"#utility.yul\":1036:1051   */\n      swap4\n      dup3\n      add\n        /* \"#utility.yul\":1032:1058   */\n      dup5\n      add\n        /* \"#utility.yul\":1025:1062   */\n      mstore\n        /* \"#utility.yul\":1036:1051   */\n      swap9\n        /* \"#utility.yul\":1119:1139   */\n      swap7\n      swap1\n      swap2\n      add\n        /* \"#utility.yul\":1106:1140   */\n      calldataload\n      swap7\n      pop\n      pop\n      pop\n      pop\n      pop\n      pop\n        /* \"#utility.yul\":146:1146   */\n      jump\t// out\n        /* \"#utility.yul\":1151:1569   */\n    tag_13:\n        /* \"#utility.yul\":1300:1302   */\n      0x20\n        /* \"#utility.yul\":1289:1298   */\n      dup2\n        /* \"#utility.yul\":1282:1303   */\n      mstore\n        /* \"#utility.yul\":1263:1267   */\n      0x00\n        /* \"#utility.yul\":1332:1338   */\n      dup3\n        /* \"#utility.yul\":1326:1339   */\n      mload\n        /* \"#utility.yul\":1375:1381   */\n      dup1\n        /* \"#utility.yul\":1370:1372   */\n      0x20\n        /* \"#utility.yul\":1359:1368   */\n      dup5\n        /* \"#utility.yul\":1355:1373   */\n      add\n        /* \"#utility.yul\":1348:1382   */\n      mstore\n        /* \"#utility.yul\":1434:1440   */\n      dup1\n        /* \"#utility.yul\":1429:1431   */\n      0x20\n        /* \"#utility.yul\":1421:1427   */\n      dup6\n        /* \"#utility.yul\":1417:1432   */\n      add\n        /* \"#utility.yul\":1412:1414   */\n      0x40\n        /* \"#utility.yul\":1401:1410   */\n      dup6\n        /* \"#utility.yul\":1397:1415   */\n      add\n        /* \"#utility.yul\":1391:1441   */\n      mcopy\n        /* \"#utility.yul\":1490:1491   */\n      0x00\n        /* \"#utility.yul\":1485:1487   */\n      0x40\n        /* \"#utility.yul\":1476:1482   */\n      dup3\n        /* \"#utility.yul\":1465:1474   */\n      dup6\n        /* \"#utility.yul\":1461:1483   */\n      add\n        /* \"#utility.yul\":1457:1488   */\n      add\n        /* \"#utility.yul\":1450:1492   */\n      mstore\n        /* \"#utility.yul\":1560:1562   */\n      0x40\n        /* \"#utility.yul\":1553:1555   */\n      0x1f\n        /* \"#utility.yul\":1549:1556   */\n      not\n        /* \"#utility.yul\":1544:1546   */\n      0x1f\n        /* \"#utility.yul\":1536:1542   */\n      dup4\n        /* \"#utility.yul\":1532:1547   */\n      add\n        /* \"#utility.yul\":1528:1557   */\n      and\n        /* \"#utility.yul\":1517:1526   */\n      dup5\n        /* \"#utility.yul\":1513:1558   */\n      add\n        /* \"#utility.yul\":1509:1563   */\n      add\n        /* \"#utility.yul\":1501:1563   */\n      swap2\n      pop\n      pop\n        /* \"#utility.yul\":1151:1569   */\n      swap3\n      swap2\n      pop\n      pop\n      jump\t// out\n        /* \"#utility.yul\":1756:2136   */\n    tag_22:\n        /* \"#utility.yul\":1835:1836   */\n      0x01\n        /* \"#utility.yul\":1831:1843   */\n      dup2\n      dup2\n      shr\n      swap1\n        /* \"#utility.yul\":1878:1890   */\n      dup3\n      and\n      dup1\n        /* \"#utility.yul\":1899:1960   */\n      tag_45\n      jumpi\n        /* \"#utility.yul\":1953:1957   */\n      0x7f\n        /* \"#utility.yul\":1945:1951   */\n      dup3\n        /* \"#utility.yul\":1941:1958   */\n      and\n        /* \"#utility.yul\":1931:1958   */\n      swap2\n      pop\n        /* \"#utility.yul\":1899:1960   */\n    tag_45:\n        /* \"#utility.yul\":2006:2008   */\n      0x20\n        /* \"#utility.yul\":1998:2004   */\n      dup3\n        /* \"#utility.yul\":1995:2009   */\n      lt\n        /* \"#utility.yul\":1975:1993   */\n      dup2\n        /* \"#utility.yul\":1972:2010   */\n      sub\n        /* \"#utility.yul\":1969:2130   */\n      tag_46\n      jumpi\n        /* \"#utility.yul\":2052:2062   */\n      0x4e487b71\n        /* \"#utility.yul\":2047:2050   */\n      0xe0\n        /* \"#utility.yul\":2043:2063   */\n      shl\n        /* \"#utility.yul\":2040:2041   */\n      0x00\n        /* \"#utility.yul\":2033:2064   */\n      mstore\n        /* \"#utility.yul\":2087:2091   */\n      0x22\n        /* \"#utility.yul\":2084:2085   */\n      0x04\n        /* \"#utility.yul\":2077:2092   */\n      mstore\n        /* \"#utility.yul\":2115:2119   */\n      0x24\n        /* \"#utility.yul\":2112:2113   */\n      0x00\n        /* \"#utility.yul\":2105:2120   */\n      revert\n        /* \"#utility.yul\":1969:2130   */\n    tag_46:\n      pop\n        /* \"#utility.yul\":1756:2136   */\n      swap2\n      swap1\n      pop\n      jump\t// out\n        /* \"#utility.yul\":2267:2785   */\n    tag_29:\n        /* \"#utility.yul\":2369:2371   */\n      0x1f\n        /* \"#utility.yul\":2364:2367   */\n      dup3\n        /* \"#utility.yul\":2361:2372   */\n      gt\n        /* \"#utility.yul\":2358:2779   */\n      iszero\n      tag_49\n      jumpi\n        /* \"#utility.yul\":2405:2410   */\n      dup1\n        /* \"#utility.yul\":2402:2403   */\n      0x00\n        /* \"#utility.yul\":2395:2411   */\n      mstore\n        /* \"#utility.yul\":2449:2453   */\n      0x20\n        /* \"#utility.yul\":2446:2447   */\n      0x00\n        /* \"#utility.yul\":2436:2454   */\n      keccak256\n        /* \"#utility.yul\":2519:2521   */\n      0x1f\n        /* \"#utility.yul\":2507:2517   */\n      dup5\n        /* \"#utility.yul\":2503:2522   */\n      add\n        /* \"#utility.yul\":2500:2501   */\n      0x05\n        /* \"#utility.yul\":2496:2523   */\n      shr\n        /* \"#utility.yul\":2490:2494   */\n      dup2\n        /* \"#utility.yul\":2486:2524   */\n      add\n        /* \"#utility.yul\":2555:2559   */\n      0x20\n        /* \"#utility.yul\":2543:2553   */\n      dup6\n        /* \"#utility.yul\":2540:2560   */\n      lt\n        /* \"#utility.yul\":2537:2584   */\n      iszero\n      tag_50\n      jumpi\n      pop\n        /* \"#utility.yul\":2578:2582   */\n      dup1\n        /* \"#utility.yul\":2537:2584   */\n    tag_50:\n        /* \"#utility.yul\":2633:2635   */\n      0x1f\n        /* \"#utility.yul\":2628:2631   */\n      dup5\n        /* \"#utility.yul\":2624:2636   */\n      add\n        /* \"#utility.yul\":2621:2622   */\n      0x05\n        /* \"#utility.yul\":2617:2637   */\n      shr\n        /* \"#utility.yul\":2611:2615   */\n      dup3\n        /* \"#utility.yul\":2607:2638   */\n      add\n        /* \"#utility.yul\":2597:2638   */\n      swap2\n      pop\n        /* \"#utility.yul\":2688:2769   */\n    tag_51:\n        /* \"#utility.yul\":2706:2708   */\n      dup2\n        /* \"#utility.yul\":2699:2704   */\n      dup2\n        /* \"#utility.yul\":2696:2709   */\n      lt\n        /* \"#utility.yul\":2688:2769   */\n      iszero\n      tag_53\n      jumpi\n        /* \"#utility.yul\":2765:2766   */\n      0x00\n        /* \"#utility.yul\":2751:2767   */\n      dup2\n      sstore\n        /* \"#utility.yul\":2732:2733   */\n      0x01\n        /* \"#utility.yul\":2721:2734   */\n      add\n        /* \"#utility.yul\":2688:2769   */\n      jump(tag_51)\n    tag_53:\n        /* \"#utility.yul\":2692:2695   */\n      pop\n      pop\n        /* \"#utility.yul\":2358:2779   */\n    tag_49:\n        /* \"#utility.yul\":2267:2785   */\n      pop\n      pop\n      pop\n      jump\t// out\n        /* \"#utility.yul\":2961:4306   */\n    tag_20:\n        /* \"#utility.yul\":3087:3090   */\n      dup2\n        /* \"#utility.yul\":3081:3091   */\n      mload\n        /* \"#utility.yul\":3114:3132   */\n      0xffffffffffffffff\n        /* \"#utility.yul\":3106:3112   */\n      dup2\n        /* \"#utility.yul\":3103:3133   */\n      gt\n        /* \"#utility.yul\":3100:3156   */\n      iszero\n      tag_57\n      jumpi\n        /* \"#utility.yul\":3136:3154   */\n      tag_57\n      tag_27\n      jump\t// in\n    tag_57:\n        /* \"#utility.yul\":3165:3262   */\n      tag_58\n        /* \"#utility.yul\":3255:3261   */\n      dup2\n        /* \"#utility.yul\":3215:3253   */\n      tag_59\n        /* \"#utility.yul\":3247:3251   */\n      dup5\n        /* \"#utility.yul\":3241:3252   */\n      sload\n        /* \"#utility.yul\":3215:3253   */\n      tag_22\n      jump\t// in\n    tag_59:\n        /* \"#utility.yul\":3209:3213   */\n      dup5\n        /* \"#utility.yul\":3165:3262   */\n      tag_29\n      jump\t// in\n    tag_58:\n        /* \"#utility.yul\":3317:3321   */\n      0x20\n      dup1\n        /* \"#utility.yul\":3374:3376   */\n      0x1f\n        /* \"#utility.yul\":3363:3377   */\n      dup4\n      gt\n        /* \"#utility.yul\":3391:3392   */\n      0x01\n        /* \"#utility.yul\":3386:4049   */\n      dup2\n      eq\n      tag_61\n      jumpi\n        /* \"#utility.yul\":4093:4094   */\n      0x00\n        /* \"#utility.yul\":4110:4116   */\n      dup5\n        /* \"#utility.yul\":4107:4196   */\n      iszero\n      tag_62\n      jumpi\n      pop\n        /* \"#utility.yul\":4162:4181   */\n      dup6\n      dup4\n      add\n        /* \"#utility.yul\":4156:4182   */\n      mload\n        /* \"#utility.yul\":4107:4196   */\n    tag_62:\n      not(0x00)\n        /* \"#utility.yul\":2918:2919   */\n      0x03\n        /* \"#utility.yul\":2914:2925   */\n      dup7\n      swap1\n      shl\n        /* \"#utility.yul\":2910:2934   */\n      shr\n        /* \"#utility.yul\":2906:2935   */\n      not\n        /* \"#utility.yul\":2896:2936   */\n      and\n        /* \"#utility.yul\":2942:2943   */\n      0x01\n        /* \"#utility.yul\":2938:2949   */\n      dup6\n      swap1\n      shl\n        /* \"#utility.yul\":2893:2950   */\n      or\n        /* \"#utility.yul\":4209:4290   */\n      dup6\n      sstore\n        /* \"#utility.yul\":3356:4300   */\n      jump(tag_60)\n        /* \"#utility.yul\":3386:4049   */\n    tag_61:\n        /* \"#utility.yul\":2214:2215   */\n      0x00\n        /* \"#utility.yul\":2207:2221   */\n      dup6\n      dup2\n      mstore\n        /* \"#utility.yul\":2251:2255   */\n      0x20\n        /* \"#utility.yul\":2238:2256   */\n      dup2\n      keccak256\n      not(0x1f)\n        /* \"#utility.yul\":3422:3442   */\n      dup7\n      and\n      swap2\n        /* \"#utility.yul\":3540:3776   */\n    tag_65:\n        /* \"#utility.yul\":3554:3561   */\n      dup3\n        /* \"#utility.yul\":3551:3552   */\n      dup2\n        /* \"#utility.yul\":3548:3562   */\n      lt\n        /* \"#utility.yul\":3540:3776   */\n      iszero\n      tag_67\n      jumpi\n        /* \"#utility.yul\":3643:3662   */\n      dup9\n      dup7\n      add\n        /* \"#utility.yul\":3637:3663   */\n      mload\n        /* \"#utility.yul\":3622:3664   */\n      dup3\n      sstore\n        /* \"#utility.yul\":3735:3762   */\n      swap5\n      dup5\n      add\n      swap5\n        /* \"#utility.yul\":3703:3704   */\n      0x01\n        /* \"#utility.yul\":3691:3705   */\n      swap1\n      swap2\n      add\n      swap1\n        /* \"#utility.yul\":3570:3589   */\n      dup5\n      add\n        /* \"#utility.yul\":3540:3776   */\n      jump(tag_65)\n    tag_67:\n        /* \"#utility.yul\":3544:3547   */\n      pop\n        /* \"#utility.yul\":3804:3810   */\n      dup6\n        /* \"#utility.yul\":3795:3802   */\n      dup3\n        /* \"#utility.yul\":3792:3811   */\n      lt\n        /* \"#utility.yul\":3789:3990   */\n      iszero\n      tag_68\n      jumpi\n        /* \"#utility.yul\":3865:3884   */\n      dup8\n      dup6\n      add\n        /* \"#utility.yul\":3859:3885   */\n      mload\n      not(0x00)\n        /* \"#utility.yul\":3948:3949   */\n      0x03\n        /* \"#utility.yul\":3944:3958   */\n      dup9\n      swap1\n      shl\n        /* \"#utility.yul\":3960:3963   */\n      0xf8\n        /* \"#utility.yul\":3940:3964   */\n      and\n        /* \"#utility.yul\":3936:3973   */\n      shr\n        /* \"#utility.yul\":3932:3974   */\n      not\n        /* \"#utility.yul\":3917:3975   */\n      and\n        /* \"#utility.yul\":3902:3976   */\n      dup2\n      sstore\n        /* \"#utility.yul\":3789:3990   */\n    tag_68:\n      pop\n      pop\n        /* \"#utility.yul\":4036:4037   */\n      0x01\n        /* \"#utility.yul\":4027:4033   */\n      dup5\n        /* \"#utility.yul\":4024:4025   */\n      0x01\n        /* \"#utility.yul\":4020:4034   */\n      shl\n        /* \"#utility.yul\":4016:4038   */\n      add\n        /* \"#utility.yul\":4010:4014   */\n      dup6\n        /* \"#utility.yul\":4003:4039   */\n      sstore\n        /* \"#utility.yul\":3356:4300   */\n    tag_60:\n      pop\n      pop\n      pop\n      pop\n        /* \"#utility.yul\":2961:4306   */\n      pop\n      pop\n      jump\t// out\n\n    auxdata: 0xa2646970667358221220f89b8461a2e2baf017ff50723e6f5b96315ec89265be3f34f04e58f821e0b05864736f6c63430008190033\n}\n",
				"bytecode": {
					"linkReferences": {},
					"object": "6080604052348015600e575f80fd5b5061039c8061001c5f395ff3fe608060405234801561000f575f80fd5b506004361061003f575f3560e01c80634ee5c2ee146100435780638bf1799f14610058578063d4da005a14610076575b5f80fd5b61005661005136600461013e565b61008d565b005b61006061009f565b60405161006d91906101ed565b60405180910390f35b61007f60015481565b60405190815260200161006d565b5f61009883826102a6565b5060015550565b5f80546100ab90610222565b80601f01602080910402602001604051908101604052809291908181526020018280546100d790610222565b80156101225780601f106100f957610100808354040283529160200191610122565b820191905f5260205f20905b81548152906001019060200180831161010557829003601f168201915b505050505081565b634e487b7160e01b5f52604160045260245ffd5b5f806040838503121561014f575f80fd5b823567ffffffffffffffff80821115610166575f80fd5b818501915085601f830112610179575f80fd5b81358181111561018b5761018b61012a565b604051601f8201601f19908116603f011681019083821181831017156101b3576101b361012a565b816040528281528860208487010111156101cb575f80fd5b826020860160208301375f602093820184015298969091013596505050505050565b602081525f82518060208401528060208501604085015e5f604082850101526040601f19601f83011684010191505092915050565b600181811c9082168061023657607f821691505b60208210810361025457634e487b7160e01b5f52602260045260245ffd5b50919050565b601f8211156102a157805f5260205f20601f840160051c8101602085101561027f5750805b601f840160051c820191505b8181101561029e575f815560010161028b565b50505b505050565b815167ffffffffffffffff8111156102c0576102c061012a565b6102d4816102ce8454610222565b8461025a565b602080601f831160018114610307575f84156102f05750858301515b5f19600386901b1c1916600185901b17855561035e565b5f85815260208120601f198616915b8281101561033557888601518255948401946001909101908401610316565b508582101561035257878501515f19600388901b60f8161c191681555b505060018460011b0185555b50505050505056fea2646970667358221220f89b8461a2e2baf017ff50723e6f5b96315ec89265be3f34f04e58f821e0b05864736f6c63430008190033",
					"opcodes": "PUSH1 0x80 PUSH1 0x40 MSTORE CALLVALUE DUP1 ISZERO PUSH1 0xE JUMPI PUSH0 DUP1 REVERT JUMPDEST POP PUSH2 0x39C DUP1 PUSH2 0x1C PUSH0 CODECOPY PUSH0 RETURN INVALID PUSH1 0x80 PUSH1 0x40 MSTORE CALLVALUE DUP1 ISZERO PUSH2 0xF JUMPI PUSH0 DUP1 REVERT JUMPDEST POP PUSH1 0x4 CALLDATASIZE LT PUSH2 0x3F JUMPI PUSH0 CALLDATALOAD PUSH1 0xE0 SHR DUP1 PUSH4 0x4EE5C2EE EQ PUSH2 0x43 JUMPI DUP1 PUSH4 0x8BF1799F EQ PUSH2 0x58 JUMPI DUP1 PUSH4 0xD4DA005A EQ PUSH2 0x76 JUMPI JUMPDEST PUSH0 DUP1 REVERT JUMPDEST PUSH2 0x56 PUSH2 0x51 CALLDATASIZE PUSH1 0x4 PUSH2 0x13E JUMP JUMPDEST PUSH2 0x8D JUMP JUMPDEST STOP JUMPDEST PUSH2 0x60 PUSH2 0x9F JUMP JUMPDEST PUSH1 0x40 MLOAD PUSH2 0x6D SWAP2 SWAP1 PUSH2 0x1ED JUMP JUMPDEST PUSH1 0x40 MLOAD DUP1 SWAP2 SUB SWAP1 RETURN JUMPDEST PUSH2 0x7F PUSH1 0x1 SLOAD DUP2 JUMP JUMPDEST PUSH1 0x40 MLOAD SWAP1 DUP2 MSTORE PUSH1 0x20 ADD PUSH2 0x6D JUMP JUMPDEST PUSH0 PUSH2 0x98 DUP4 DUP3 PUSH2 0x2A6 JUMP JUMPDEST POP PUSH1 0x1 SSTORE POP JUMP JUMPDEST PUSH0 DUP1 SLOAD PUSH2 0xAB SWAP1 PUSH2 0x222 JUMP JUMPDEST DUP1 PUSH1 0x1F ADD PUSH1 0x20 DUP1 SWAP2 DIV MUL PUSH1 0x20 ADD PUSH1 0x40 MLOAD SWAP1 DUP2 ADD PUSH1 0x40 MSTORE DUP1 SWAP3 SWAP2 SWAP1 DUP2 DUP2 MSTORE PUSH1 0x20 ADD DUP3 DUP1 SLOAD PUSH2 0xD7 SWAP1 PUSH2 0x222 JUMP JUMPDEST DUP1 ISZERO PUSH2 0x122 JUMPI DUP1 PUSH1 0x1F LT PUSH2 0xF9 JUMPI PUSH2 0x100 DUP1 DUP4 SLOAD DIV MUL DUP4 MSTORE SWAP2 PUSH1 0x20 ADD SWAP2 PUSH2 0x122 JUMP JUMPDEST DUP3 ADD SWAP2 SWAP1 PUSH0 MSTORE PUSH1 0x20 PUSH0 KECCAK256 SWAP1 JUMPDEST DUP2 SLOAD DUP2 MSTORE SWAP1 PUSH1 0x1 ADD SWAP1 PUSH1 0x20 ADD DUP1 DUP4 GT PUSH2 0x105 JUMPI DUP3 SWAP1 SUB PUSH1 0x1F AND DUP3 ADD SWAP2 JUMPDEST POP POP POP POP POP DUP2 JUMP JUMPDEST PUSH4 0x4E487B71 PUSH1 0xE0 SHL PUSH0 MSTORE PUSH1 0x41 PUSH1 0x4 MSTORE PUSH1 0x24 PUSH0 REVERT JUMPDEST PUSH0 DUP1 PUSH1 0x40 DUP4 DUP6 SUB SLT ISZERO PUSH2 0x14F JUMPI PUSH0 DUP1 REVERT JUMPDEST DUP3 CALLDATALOAD PUSH8 0xFFFFFFFFFFFFFFFF DUP1 DUP3 GT ISZERO PUSH2 0x166 JUMPI PUSH0 DUP1 REVERT JUMPDEST DUP2 DUP6 ADD SWAP2 POP DUP6 PUSH1 0x1F DUP4 ADD SLT PUSH2 0x179 JUMPI PUSH0 DUP1 REVERT JUMPDEST DUP2 CALLDATALOAD DUP2 DUP2 GT ISZERO PUSH2 0x18B JUMPI PUSH2 0x18B PUSH2 0x12A JUMP JUMPDEST PUSH1 0x40 MLOAD PUSH1 0x1F DUP3 ADD PUSH1 0x1F NOT SWAP1 DUP2 AND PUSH1 0x3F ADD AND DUP2 ADD SWAP1 DUP4 DUP3 GT DUP2 DUP4 LT OR ISZERO PUSH2 0x1B3 JUMPI PUSH2 0x1B3 PUSH2 0x12A JUMP JUMPDEST DUP2 PUSH1 0x40 MSTORE DUP3 DUP2 MSTORE DUP9 PUSH1 0x20 DUP5 DUP8 ADD ADD GT ISZERO PUSH2 0x1CB JUMPI PUSH0 DUP1 REVERT JUMPDEST DUP3 PUSH1 0x20 DUP7 ADD PUSH1 0x20 DUP4 ADD CALLDATACOPY PUSH0 PUSH1 0x20 SWAP4 DUP3 ADD DUP5 ADD MSTORE SWAP9 SWAP7 SWAP1 SWAP2 ADD CALLDATALOAD SWAP7 POP POP POP POP POP POP JUMP JUMPDEST PUSH1 0x20 DUP2 MSTORE PUSH0 DUP3 MLOAD DUP1 PUSH1 0x20 DUP5 ADD MSTORE DUP1 PUSH1 0x20 DUP6 ADD PUSH1 0x40 DUP6 ADD MCOPY PUSH0 PUSH1 0x40 DUP3 DUP6 ADD ADD MSTORE PUSH1 0x40 PUSH1 0x1F NOT PUSH1 0x1F DUP4 ADD AND DUP5 ADD ADD SWAP2 POP POP SWAP3 SWAP2 POP POP JUMP JUMPDEST PUSH1 0x1 DUP2 DUP2 SHR SWAP1 DUP3 AND DUP1 PUSH2 0x236 JUMPI PUSH1 0x7F DUP3 AND SWAP2 POP JUMPDEST PUSH1 0x20 DUP3 LT DUP2 SUB PUSH2 0x254 JUMPI PUSH4 0x4E487B71 PUSH1 0xE0 SHL PUSH0 MSTORE PUSH1 0x22 PUSH1 0x4 MSTORE PUSH1 0x24 PUSH0 REVERT JUMPDEST POP SWAP2 SWAP1 POP JUMP JUMPDEST PUSH1 0x1F DUP3 GT ISZERO PUSH2 0x2A1 JUMPI DUP1 PUSH0 MSTORE PUSH1 0x20 PUSH0 KECCAK256 PUSH1 0x1F DUP5 ADD PUSH1 0x5 SHR DUP2 ADD PUSH1 0x20 DUP6 LT ISZERO PUSH2 0x27F JUMPI POP DUP1 JUMPDEST PUSH1 0x1F DUP5 ADD PUSH1 0x5 SHR DUP3 ADD SWAP2 POP JUMPDEST DUP2 DUP2 LT ISZERO PUSH2 0x29E JUMPI PUSH0 DUP2 SSTORE PUSH1 0x1 ADD PUSH2 0x28B JUMP JUMPDEST POP POP JUMPDEST POP POP POP JUMP JUMPDEST DUP2 MLOAD PUSH8 0xFFFFFFFFFFFFFFFF DUP2 GT ISZERO PUSH2 0x2C0 JUMPI PUSH2 0x2C0 PUSH2 0x12A JUMP JUMPDEST PUSH2 0x2D4 DUP2 PUSH2 0x2CE DUP5 SLOAD PUSH2 0x222 JUMP JUMPDEST DUP5 PUSH2 0x25A JUMP JUMPDEST PUSH1 0x20 DUP1 PUSH1 0x1F DUP4 GT PUSH1 0x1 DUP2 EQ PUSH2 0x307 JUMPI PUSH0 DUP5 ISZERO PUSH2 0x2F0 JUMPI POP DUP6 DUP4 ADD MLOAD JUMPDEST PUSH0 NOT PUSH1 0x3 DUP7 SWAP1 SHL SHR NOT AND PUSH1 0x1 DUP6 SWAP1 SHL OR DUP6 SSTORE PUSH2 0x35E JUMP JUMPDEST PUSH0 DUP6 DUP2 MSTORE PUSH1 0x20 DUP2 KECCAK256 PUSH1 0x1F NOT DUP7 AND SWAP2 JUMPDEST DUP3 DUP2 LT ISZERO PUSH2 0x335 JUMPI DUP9 DUP7 ADD MLOAD DUP3 SSTORE SWAP5 DUP5 ADD SWAP5 PUSH1 0x1 SWAP1 SWAP2 ADD SWAP1 DUP5 ADD PUSH2 0x316 JUMP JUMPDEST POP DUP6 DUP3 LT ISZERO PUSH2 0x352 JUMPI DUP8 DUP6 ADD MLOAD PUSH0 NOT PUSH1 0x3 DUP9 SWAP1 SHL PUSH1 0xF8 AND SHR NOT AND DUP2 SSTORE JUMPDEST POP POP PUSH1 0x1 DUP5 PUSH1 0x1 SHL ADD DUP6 SSTORE JUMPDEST POP POP POP POP POP POP JUMP INVALID LOG2 PUSH5 0x6970667358 0x22 SLT KECCAK256 0xF8 SWAP12 DUP5 PUSH2 0xA2E2 0xBA CREATE OR SELFDESTRUCT POP PUSH19 0x3E6F5B96315EC89265BE3F34F04E58F821E0B0 PC PUSH5 0x736F6C6343 STOP ADDMOD NOT STOP CALLER "
				},
				"gasEstimates": {
					"creation": {
						"codeDepositCost": "184800",
						"executionCost": "224",
						"totalCost": "185024"
					},
					"external": {
						"myNum()": "2316",
						"myState()": "infinite",
						"update(string,uint256)": "infinite"
					}
				},
				"methodIdentifiers": {
					"myNum()": "d4da005a",
					"myState()": "8bf1799f",
					"update(string,uint256)": "4ee5c2ee"
				}
			},
			"storageLayout": {
				"storage": [
					{
						"astId": 3,
						"contract": "tests/stateVariables.sol:StateVariable",
						"label": "myState",
						"offset": 0,
						"slot": "0",
						"type": "t_string_storage"
					},
					{
						"astId": 5,
						"contract": "tests/stateVariables.sol:StateVariable",
						"label": "myNum",
						"offset": 0,
						"slot": "1",
						"type": "t_uint256"
					}
				],
				"types": {
					"t_string_storage": {
						"encoding": "bytes",
						"label": "string",
						"numberOfBytes": "32"
					},
					"t_uint256": {
						"encoding": "inplace",
						"label": "uint256",
						"numberOfBytes": "32"
					}
				}
			},
			"userdoc": {
				"kind": "user",
				"methods": {},
				"version": 1
			}
		}
	}
}