{
	"tests/firstApp.sol": {
		"NFTCount": {
			"abi": [
				{
					"inputs": [],
					"name": "addNFT",
					"outputs": [],
					"stateMutability": "nonpayable",
					"type": "function"
				},
				{
					"inputs": [],
					"name": "checkTotalNFT",
					"outputs": [
						{
							"internalType": "uint256",
							"name": "",
							"type": "uint256"
						}
					],
					"stateMutability": "view",
					"type": "function"
				},
				{
					"inputs": [],
					"name": "deleteNFT",
					"outputs": [],
					"stateMutability": "nonpayable",
					"type": "function"
				},
				{
					"inputs": [],
					"name": "numberOfNFT",
					"outputs": [
						{
							"internalType": "uint256",
							"name": "",
							"type": "uint256"
						}
					],
					"stateMutability": "view",
					"type": "function"
				}
			],
			"devdoc": {
				"kind": "dev",
				"methods": {},
				"version": 1
			},
			"evm": {
				"assembly": "    /* \"tests/firstApp.sol\":62:534  contract NFTCount {... */\n  mstore(0x40, 0x80)\n  callvalue\n  dup1\n  iszero\n  tag_1\n  jumpi\n  0x00\n  dup1\n  revert\ntag_1:\n  pop\n  dataSize(sub_0)\n  dup1\n  dataOffset(sub_0)\n  0x00\n  codecopy\n  0x00\n  return\nstop\n\nsub_0: assembly {\n        /* \"tests/firstApp.sol\":62:534  contract NFTCount {... */\n      mstore(0x40, 0x80)\n      callvalue\n      dup1\n      iszero\n      tag_1\n      jumpi\n      0x00\n      dup1\n      revert\n    tag_1:\n      pop\n      jumpi(tag_2, lt(calldatasize, 0x04))\n      shr(0xe0, calldataload(0x00))\n      dup1\n      0x3748a5c2\n      eq\n      tag_3\n      jumpi\n      dup1\n      0x3d82faf0\n      eq\n      tag_4\n      jumpi\n      dup1\n      0x8acc7b47\n      eq\n      tag_5\n      jumpi\n      dup1\n      0xe02b87bb\n      eq\n      tag_6\n      jumpi\n    tag_2:\n      0x00\n      dup1\n      revert\n        /* \"tests/firstApp.sol\":87:113  uint256 public numberOfNFT */\n    tag_3:\n      tag_7\n      sload(0x00)\n      dup2\n      jump\n    tag_7:\n      mload(0x40)\n        /* \"#utility.yul\":160:185   */\n      swap1\n      dup2\n      mstore\n        /* \"#utility.yul\":148:150   */\n      0x20\n        /* \"#utility.yul\":133:151   */\n      add\n        /* \"tests/firstApp.sol\":87:113  uint256 public numberOfNFT */\n      mload(0x40)\n      dup1\n      swap2\n      sub\n      swap1\n      return\n        /* \"tests/firstApp.sol\":194:287  function checkTotalNFT () public view returns (uint256) {... */\n    tag_4:\n        /* \"tests/firstApp.sol\":241:248  uint256 */\n      0x00\n        /* \"tests/firstApp.sol\":268:279  numberOfNFT */\n      sload\n        /* \"tests/firstApp.sol\":194:287  function checkTotalNFT () public view returns (uint256) {... */\n      jump(tag_7)\n        /* \"tests/firstApp.sol\":347:407  function addNFT() public {... */\n    tag_5:\n      tag_14\n      tag_15\n      jump\t// in\n    tag_14:\n      stop\n        /* \"tests/firstApp.sol\":467:531  function deleteNFT () public {... */\n    tag_6:\n      tag_14\n      tag_17\n      jump\t// in\n        /* \"tests/firstApp.sol\":347:407  function addNFT() public {... */\n    tag_15:\n        /* \"tests/firstApp.sol\":398:399  1 */\n      0x01\n        /* \"tests/firstApp.sol\":383:394  numberOfNFT */\n      0x00\n      dup1\n        /* \"tests/firstApp.sol\":383:399  numberOfNFT += 1 */\n      dup3\n      dup3\n      sload\n      tag_20\n      swap2\n      swap1\n      tag_21\n      jump\t// in\n    tag_20:\n      swap1\n      swap2\n      sstore\n      pop\n      pop\n        /* \"tests/firstApp.sol\":347:407  function addNFT() public {... */\n      jump\t// out\n        /* \"tests/firstApp.sol\":467:531  function deleteNFT () public {... */\n    tag_17:\n        /* \"tests/firstApp.sol\":522:523  1 */\n      0x01\n        /* \"tests/firstApp.sol\":507:518  numberOfNFT */\n      0x00\n      dup1\n        /* \"tests/firstApp.sol\":507:523  numberOfNFT -= 1 */\n      dup3\n      dup3\n      sload\n      tag_20\n      swap2\n      swap1\n      tag_24\n      jump\t// in\n        /* \"#utility.yul\":196:323   */\n    tag_25:\n        /* \"#utility.yul\":257:267   */\n      0x4e487b71\n        /* \"#utility.yul\":252:255   */\n      0xe0\n        /* \"#utility.yul\":248:268   */\n      shl\n        /* \"#utility.yul\":245:246   */\n      0x00\n        /* \"#utility.yul\":238:269   */\n      mstore\n        /* \"#utility.yul\":288:292   */\n      0x11\n        /* \"#utility.yul\":285:286   */\n      0x04\n        /* \"#utility.yul\":278:293   */\n      mstore\n        /* \"#utility.yul\":312:316   */\n      0x24\n        /* \"#utility.yul\":309:310   */\n      0x00\n        /* \"#utility.yul\":302:317   */\n      revert\n        /* \"#utility.yul\":328:453   */\n    tag_21:\n        /* \"#utility.yul\":393:402   */\n      dup1\n      dup3\n      add\n        /* \"#utility.yul\":414:424   */\n      dup1\n      dup3\n      gt\n        /* \"#utility.yul\":411:447   */\n      iszero\n      tag_31\n      jumpi\n        /* \"#utility.yul\":427:445   */\n      tag_31\n      tag_25\n      jump\t// in\n    tag_31:\n        /* \"#utility.yul\":328:453   */\n      swap3\n      swap2\n      pop\n      pop\n      jump\t// out\n        /* \"#utility.yul\":458:586   */\n    tag_24:\n        /* \"#utility.yul\":525:534   */\n      dup2\n      dup2\n      sub\n        /* \"#utility.yul\":546:557   */\n      dup2\n      dup2\n      gt\n        /* \"#utility.yul\":543:580   */\n      iszero\n      tag_31\n      jumpi\n        /* \"#utility.yul\":560:578   */\n      tag_31\n      tag_25\n      jump\t// in\n\n    auxdata: 0xa2646970667358221220602844f1365ad3f21eb7e14e7a7aeebc16fc29a92571d0fd89a9066b074a34f164736f6c63430008190033\n}\n",
				"bytecode": {
					"linkReferences": {},
					"object": "6080604052348015600e575f80fd5b5061010a8061001c5f395ff3fe6080604052348015600e575f80fd5b50600436106044575f3560e01c80633748a5c21460485780633d82faf01460615780638acc7b47146067578063e02b87bb14606f575b5f80fd5b604f5f5481565b60405190815260200160405180910390f35b5f54604f565b606d6075565b005b606d608b565b60015f808282546084919060ae565b9091555050565b60015f808282546084919060c4565b634e487b7160e01b5f52601160045260245ffd5b8082018082111560be5760be609a565b92915050565b8181038181111560be5760be609a56fea2646970667358221220602844f1365ad3f21eb7e14e7a7aeebc16fc29a92571d0fd89a9066b074a34f164736f6c63430008190033",
					"opcodes": "PUSH1 0x80 PUSH1 0x40 MSTORE CALLVALUE DUP1 ISZERO PUSH1 0xE JUMPI PUSH0 DUP1 REVERT JUMPDEST POP PUSH2 0x10A DUP1 PUSH2 0x1C PUSH0 CODECOPY PUSH0 RETURN INVALID PUSH1 0x80 PUSH1 0x40 MSTORE CALLVALUE DUP1 ISZERO PUSH1 0xE JUMPI PUSH0 DUP1 REVERT JUMPDEST POP PUSH1 0x4 CALLDATASIZE LT PUSH1 0x44 JUMPI PUSH0 CALLDATALOAD PUSH1 0xE0 SHR DUP1 PUSH4 0x3748A5C2 EQ PUSH1 0x48 JUMPI DUP1 PUSH4 0x3D82FAF0 EQ PUSH1 0x61 JUMPI DUP1 PUSH4 0x8ACC7B47 EQ PUSH1 0x67 JUMPI DUP1 PUSH4 0xE02B87BB EQ PUSH1 0x6F JUMPI JUMPDEST PUSH0 DUP1 REVERT JUMPDEST PUSH1 0x4F PUSH0 SLOAD DUP2 JUMP JUMPDEST PUSH1 0x40 MLOAD SWAP1 DUP2 MSTORE PUSH1 0x20 ADD PUSH1 0x40 MLOAD DUP1 SWAP2 SUB SWAP1 RETURN JUMPDEST PUSH0 SLOAD PUSH1 0x4F JUMP JUMPDEST PUSH1 0x6D PUSH1 0x75 JUMP JUMPDEST STOP JUMPDEST PUSH1 0x6D PUSH1 0x8B JUMP JUMPDEST PUSH1 0x1 PUSH0 DUP1 DUP3 DUP3 SLOAD PUSH1 0x84 SWAP2 SWAP1 PUSH1 0xAE JUMP JUMPDEST SWAP1 SWAP2 SSTORE POP POP JUMP JUMPDEST PUSH1 0x1 PUSH0 DUP1 DUP3 DUP3 SLOAD PUSH1 0x84 SWAP2 SWAP1 PUSH1 0xC4 JUMP JUMPDEST PUSH4 0x4E487B71 PUSH1 0xE0 SHL PUSH0 MSTORE PUSH1 0x11 PUSH1 0x4 MSTORE PUSH1 0x24 PUSH0 REVERT JUMPDEST DUP1 DUP3 ADD DUP1 DUP3 GT ISZERO PUSH1 0xBE JUMPI PUSH1 0xBE PUSH1 0x9A JUMP JUMPDEST SWAP3 SWAP2 POP POP JUMP JUMPDEST DUP2 DUP2 SUB DUP2 DUP2 GT ISZERO PUSH1 0xBE JUMPI PUSH1 0xBE PUSH1 0x9A JUMP INVALID LOG2 PUSH5 0x6970667358 0x22 SLT KECCAK256 PUSH1 0x28 PREVRANDAO CALL CALLDATASIZE GAS 0xD3 CALLCODE 0x1E 0xB7 0xE1 0x4E PUSH27 0x7AEEBC16FC29A92571D0FD89A9066B074A34F164736F6C63430008 NOT STOP CALLER "
				},
				"gasEstimates": {
					"creation": {
						"codeDepositCost": "53200",
						"executionCost": "103",
						"totalCost": "53303"
					},
					"external": {
						"addNFT()": "24464",
						"checkTotalNFT()": "2278",
						"deleteNFT()": "24486",
						"numberOfNFT()": "2259"
					}
				},
				"methodIdentifiers": {
					"addNFT()": "8acc7b47",
					"checkTotalNFT()": "3d82faf0",
					"deleteNFT()": "e02b87bb",
					"numberOfNFT()": "3748a5c2"
				}
			},
			"storageLayout": {
				"storage": [
					{
						"astId": 3,
						"contract": "tests/firstApp.sol:NFTCount",
						"label": "numberOfNFT",
						"offset": 0,
						"slot": "0",
						"type": "t_uint256"
					}
				],
				"types": {
					"t_uint256": {
						"encoding": "inplace",
						"label": "uint256",
						"numberOfBytes": "32"
					}
				}
			},
			"userdoc": {
				"kind": "user",
				"methods": {},
				"version": 1
			}
		}
	}
}